{
  "contractName": "Degenics",
  "abi": [
    {
      "inputs": [
        {
          "internalType": "address",
          "name": "_storage",
          "type": "address"
        },
        {
          "internalType": "address",
          "name": "_account",
          "type": "address"
        },
        {
          "internalType": "address",
          "name": "_specimen",
          "type": "address"
        },
        {
          "internalType": "address",
          "name": "_location",
          "type": "address"
        }
      ],
      "payable": false,
      "stateMutability": "nonpayable",
      "type": "constructor"
    },
    {
      "anonymous": false,
      "inputs": [
        {
          "indexed": false,
          "internalType": "address",
          "name": "account",
          "type": "address"
        },
        {
          "indexed": false,
          "internalType": "string",
          "name": "name",
          "type": "string"
        },
        {
          "indexed": false,
          "internalType": "string",
          "name": "country",
          "type": "string"
        },
        {
          "indexed": false,
          "internalType": "string",
          "name": "city",
          "type": "string"
        }
      ],
      "name": "NewLab",
      "type": "event"
    },
    {
      "anonymous": false,
      "inputs": [
        {
          "indexed": false,
          "internalType": "address",
          "name": "labAccount",
          "type": "address"
        },
        {
          "indexed": false,
          "internalType": "string",
          "name": "name",
          "type": "string"
        },
        {
          "indexed": false,
          "internalType": "string",
          "name": "service",
          "type": "string"
        }
      ],
      "name": "NewService",
      "type": "event"
    },
    {
      "anonymous": false,
      "inputs": [
        {
          "indexed": false,
          "internalType": "address",
          "name": "labAccount",
          "type": "address"
        },
        {
          "indexed": false,
          "internalType": "string",
          "name": "Code",
          "type": "string"
        }
      ],
      "name": "NewSpecimen",
      "type": "event"
    },
    {
      "constant": true,
      "inputs": [],
      "name": "eternalStorage",
      "outputs": [
        {
          "internalType": "contract EternalStorageInterface",
          "name": "",
          "type": "address"
        }
      ],
      "payable": false,
      "stateMutability": "view",
      "type": "function"
    },
    {
      "constant": true,
      "inputs": [
        {
          "internalType": "string",
          "name": "country",
          "type": "string"
        },
        {
          "internalType": "string",
          "name": "city",
          "type": "string"
        }
      ],
      "name": "labCount",
      "outputs": [
        {
          "internalType": "uint256",
          "name": "",
          "type": "uint256"
        }
      ],
      "payable": false,
      "stateMutability": "view",
      "type": "function"
    },
    {
      "constant": true,
      "inputs": [
        {
          "internalType": "string",
          "name": "_country",
          "type": "string"
        },
        {
          "internalType": "string",
          "name": "_city",
          "type": "string"
        },
        {
          "internalType": "uint256",
          "name": "index",
          "type": "uint256"
        }
      ],
      "name": "labByIndex",
      "outputs": [
        {
          "internalType": "address",
          "name": "labAccount",
          "type": "address"
        },
        {
          "internalType": "string",
          "name": "name",
          "type": "string"
        },
        {
          "internalType": "string",
          "name": "country",
          "type": "string"
        },
        {
          "internalType": "string",
          "name": "city",
          "type": "string"
        }
      ],
      "payable": false,
      "stateMutability": "view",
      "type": "function"
    },
    {
      "constant": true,
      "inputs": [
        {
          "internalType": "address",
          "name": "_account",
          "type": "address"
        }
      ],
      "name": "labByAccount",
      "outputs": [
        {
          "internalType": "address",
          "name": "labAccount",
          "type": "address"
        },
        {
          "internalType": "string",
          "name": "name",
          "type": "string"
        },
        {
          "internalType": "string",
          "name": "country",
          "type": "string"
        },
        {
          "internalType": "string",
          "name": "city",
          "type": "string"
        }
      ],
      "payable": false,
      "stateMutability": "view",
      "type": "function"
    },
    {
      "constant": true,
      "inputs": [
        {
          "internalType": "address",
          "name": "labAccount",
          "type": "address"
        }
      ],
      "name": "serviceCount",
      "outputs": [
        {
          "internalType": "uint256",
          "name": "",
          "type": "uint256"
        }
      ],
      "payable": false,
      "stateMutability": "view",
      "type": "function"
    },
    {
      "constant": true,
      "inputs": [
        {
          "internalType": "address",
          "name": "labAccount",
          "type": "address"
        },
        {
          "internalType": "uint256",
          "name": "index",
          "type": "uint256"
        }
      ],
      "name": "serviceByIndex",
      "outputs": [
        {
          "internalType": "string",
          "name": "code",
          "type": "string"
        },
        {
          "internalType": "string",
          "name": "serviceName",
          "type": "string"
        },
        {
          "internalType": "uint256",
          "name": "price",
          "type": "uint256"
        }
      ],
      "payable": false,
      "stateMutability": "view",
      "type": "function"
    },
    {
      "constant": false,
      "inputs": [
        {
          "internalType": "address",
          "name": "labAccount",
          "type": "address"
        },
        {
          "internalType": "string",
          "name": "serviceCode",
          "type": "string"
        }
      ],
      "name": "registerSpecimen",
      "outputs": [],
      "payable": false,
      "stateMutability": "nonpayable",
      "type": "function"
    },
    {
      "constant": true,
      "inputs": [],
      "name": "getLastNumber",
      "outputs": [
        {
          "internalType": "bytes32",
          "name": "",
          "type": "bytes32"
        }
      ],
      "payable": false,
      "stateMutability": "view",
      "type": "function"
    },
    {
      "constant": true,
      "inputs": [],
      "name": "specimenCount",
      "outputs": [
        {
          "internalType": "uint256",
          "name": "",
          "type": "uint256"
        }
      ],
      "payable": false,
      "stateMutability": "view",
      "type": "function"
    },
    {
      "constant": true,
      "inputs": [
        {
          "internalType": "bytes32",
          "name": "number",
          "type": "bytes32"
        }
      ],
      "name": "specimenByNumber",
      "outputs": [
        {
          "internalType": "address",
          "name": "owner",
          "type": "address"
        },
        {
          "internalType": "address",
          "name": "labAccount",
          "type": "address"
        },
        {
          "internalType": "string",
          "name": "serviceCode",
          "type": "string"
        },
        {
          "internalType": "string",
          "name": "status",
          "type": "string"
        }
      ],
      "payable": false,
      "stateMutability": "view",
      "type": "function"
    },
    {
      "constant": true,
      "inputs": [
        {
          "internalType": "uint256",
          "name": "index",
          "type": "uint256"
        }
      ],
      "name": "specimenByIndex",
      "outputs": [
        {
          "internalType": "address",
          "name": "owner",
          "type": "address"
        },
        {
          "internalType": "address",
          "name": "labAccount",
          "type": "address"
        },
        {
          "internalType": "string",
          "name": "serviceCode",
          "type": "string"
        },
        {
          "internalType": "string",
          "name": "status",
          "type": "string"
        }
      ],
      "payable": false,
      "stateMutability": "view",
      "type": "function"
    },
    {
      "constant": true,
      "inputs": [
        {
          "internalType": "bytes32",
          "name": "number",
          "type": "bytes32"
        }
      ],
      "name": "getEscrow",
      "outputs": [
        {
          "internalType": "address",
          "name": "",
          "type": "address"
        }
      ],
      "payable": false,
      "stateMutability": "view",
      "type": "function"
    },
    {
      "constant": false,
      "inputs": [
        {
          "internalType": "bytes32",
          "name": "number",
          "type": "bytes32"
        },
        {
          "internalType": "string",
          "name": "remark",
          "type": "string"
        }
      ],
      "name": "sendSpecimen",
      "outputs": [],
      "payable": false,
      "stateMutability": "nonpayable",
      "type": "function"
    },
    {
      "constant": false,
      "inputs": [
        {
          "internalType": "bytes32",
          "name": "number",
          "type": "bytes32"
        },
        {
          "internalType": "string",
          "name": "remark",
          "type": "string"
        }
      ],
      "name": "receiveSpecimen",
      "outputs": [],
      "payable": false,
      "stateMutability": "nonpayable",
      "type": "function"
    },
    {
      "constant": false,
      "inputs": [
        {
          "internalType": "bytes32",
          "name": "number",
          "type": "bytes32"
        },
        {
          "internalType": "string",
          "name": "file",
          "type": "string"
        },
        {
          "internalType": "string",
          "name": "remark",
          "type": "string"
        }
      ],
      "name": "analysisSucces",
      "outputs": [],
      "payable": false,
      "stateMutability": "nonpayable",
      "type": "function"
    },
    {
      "constant": false,
      "inputs": [
        {
          "internalType": "bytes32",
          "name": "number",
          "type": "bytes32"
        },
        {
          "internalType": "string",
          "name": "remark",
          "type": "string"
        }
      ],
      "name": "analysisFail",
      "outputs": [],
      "payable": false,
      "stateMutability": "nonpayable",
      "type": "function"
    },
    {
      "constant": false,
      "inputs": [
        {
          "internalType": "address",
          "name": "_account",
          "type": "address"
        },
        {
          "internalType": "string",
          "name": "name",
          "type": "string"
        },
        {
          "internalType": "string",
          "name": "country",
          "type": "string"
        },
        {
          "internalType": "string",
          "name": "city",
          "type": "string"
        }
      ],
      "name": "emitNewLab",
      "outputs": [],
      "payable": false,
      "stateMutability": "nonpayable",
      "type": "function"
    },
    {
      "constant": false,
      "inputs": [
        {
          "internalType": "address",
          "name": "labAccount",
          "type": "address"
        },
        {
          "internalType": "string",
          "name": "name",
          "type": "string"
        },
        {
          "internalType": "string",
          "name": "service",
          "type": "string"
        }
      ],
      "name": "emitNewService",
      "outputs": [],
      "payable": false,
      "stateMutability": "nonpayable",
      "type": "function"
    }
  ],
  "bytecode": "0x608060405260008060006101000a81548173ffffffffffffffffffffffffffffffffffffffff021916908373ffffffffffffffffffffffffffffffffffffffff16021790555034801561005157600080fd5b50604051613cb7380380613cb78339818101604052608081101561007457600080fd5b810190808051906020019092919080519060200190929190805190602001909291908051906020019092919050505083806000806101000a81548173ffffffffffffffffffffffffffffffffffffffff021916908373ffffffffffffffffffffffffffffffffffffffff1602179055505080600160006101000a81548173ffffffffffffffffffffffffffffffffffffffff021916908373ffffffffffffffffffffffffffffffffffffffff16021790555082600260006101000a81548173ffffffffffffffffffffffffffffffffffffffff021916908373ffffffffffffffffffffffffffffffffffffffff16021790555081600360006101000a81548173ffffffffffffffffffffffffffffffffffffffff021916908373ffffffffffffffffffffffffffffffffffffffff16021790555050505050613afc806101bb6000396000f3fe608060405234801561001057600080fd5b50600436106101165760003560e01c80639c99c7c9116100a2578063d97b0d3f11610071578063d97b0d3f14611017578063e77ebf4614611035578063ed01c66614611191578063f023b81114611359578063fe021544146113c757610116565b80639c99c7c914610980578063b1bc38f014610af9578063ba3eb0e114610c72578063d06a9cb714610f5257610116565b8063682c0fc1116100e9578063682c0fc11461057d578063905110d81461059b578063940c0288146106d557806398ff9c541461072d578063996d5fc31461077757610116565b806312af942e1461011b5780631e7dcb181461028d57806343034f961461035257806354c7763a146104b8575b600080fd5b61028b6004803603606081101561013157600080fd5b81019080803573ffffffffffffffffffffffffffffffffffffffff1690602001909291908035906020019064010000000081111561016e57600080fd5b82018360208201111561018057600080fd5b803590602001918460018302840111640100000000831117156101a257600080fd5b91908080601f016020809104026020016040519081016040528093929190818152602001838380828437600081840152601f19601f8201169050808301925050505050505091929192908035906020019064010000000081111561020557600080fd5b82018360208201111561021757600080fd5b8035906020019184600183028401116401000000008311171561023957600080fd5b91908080601f016020809104026020016040519081016040528093929190818152602001838380828437600081840152601f19601f8201169050808301925050505050505091929192905050506114a2565b005b610350600480360360408110156102a357600080fd5b8101908080359060200190929190803590602001906401000000008111156102ca57600080fd5b8201836020820111156102dc57600080fd5b803590602001918460018302840111640100000000831117156102fe57600080fd5b91908080601f016020809104026020016040519081016040528093929190818152602001838380828437600081840152601f19601f8201169050808301925050505050505091929192905050506115e4565b005b6104a26004803603604081101561036857600080fd5b810190808035906020019064010000000081111561038557600080fd5b82018360208201111561039757600080fd5b803590602001918460018302840111640100000000831117156103b957600080fd5b91908080601f016020809104026020016040519081016040528093929190818152602001838380828437600081840152601f19601f8201169050808301925050505050505091929192908035906020019064010000000081111561041c57600080fd5b82018360208201111561042e57600080fd5b8035906020019184600183028401116401000000008311171561045057600080fd5b91908080601f016020809104026020016040519081016040528093929190818152602001838380828437600081840152601f19601f8201169050808301925050505050505091929192905050506116e2565b6040518082815260200191505060405180910390f35b61057b600480360360408110156104ce57600080fd5b8101908080359060200190929190803590602001906401000000008111156104f557600080fd5b82018360208201111561050757600080fd5b8035906020019184600183028401116401000000008311171561052957600080fd5b91908080601f016020809104026020016040519081016040528093929190818152602001838380828437600081840152601f19601f820116905080830192505050505050509192919290505050611885565b005b610585611983565b6040518082815260200191505060405180910390f35b6105e7600480360360408110156105b157600080fd5b81019080803573ffffffffffffffffffffffffffffffffffffffff16906020019092919080359060200190929190505050611ab4565b604051808060200180602001848152602001838103835286818151815260200191508051906020019080838360005b83811015610631578082015181840152602081019050610616565b50505050905090810190601f16801561065e5780820380516001836020036101000a031916815260200191505b50838103825285818151815260200191508051906020019080838360005b8381101561069757808201518184015260208101905061067c565b50505050905090810190601f1680156106c45780820380516001836020036101000a031916815260200191505b509550505050505060405180910390f35b610717600480360360208110156106eb57600080fd5b81019080803573ffffffffffffffffffffffffffffffffffffffff169060200190929190505050612077565b6040518082815260200191505060405180910390f35b6107356121aa565b604051808273ffffffffffffffffffffffffffffffffffffffff1673ffffffffffffffffffffffffffffffffffffffff16815260200191505060405180910390f35b61097e6004803603608081101561078d57600080fd5b81019080803573ffffffffffffffffffffffffffffffffffffffff169060200190929190803590602001906401000000008111156107ca57600080fd5b8201836020820111156107dc57600080fd5b803590602001918460018302840111640100000000831117156107fe57600080fd5b91908080601f016020809104026020016040519081016040528093929190818152602001838380828437600081840152601f19601f8201169050808301925050505050505091929192908035906020019064010000000081111561086157600080fd5b82018360208201111561087357600080fd5b8035906020019184600183028401116401000000008311171561089557600080fd5b91908080601f016020809104026020016040519081016040528093929190818152602001838380828437600081840152601f19601f820116905080830192505050505050509192919290803590602001906401000000008111156108f857600080fd5b82018360208201111561090a57600080fd5b8035906020019184600183028401116401000000008311171561092c57600080fd5b91908080601f016020809104026020016040519081016040528093929190818152602001838380828437600081840152601f19601f8201169050808301925050505050505091929192905050506121cf565b005b6109ac6004803603602081101561099657600080fd5b810190808035906020019092919050505061237f565b604051808573ffffffffffffffffffffffffffffffffffffffff1673ffffffffffffffffffffffffffffffffffffffff1681526020018473ffffffffffffffffffffffffffffffffffffffff1673ffffffffffffffffffffffffffffffffffffffff1681526020018060200180602001838103835285818151815260200191508051906020019080838360005b83811015610a54578082015181840152602081019050610a39565b50505050905090810190601f168015610a815780820380516001836020036101000a031916815260200191505b50838103825284818151815260200191508051906020019080838360005b83811015610aba578082015181840152602081019050610a9f565b50505050905090810190601f168015610ae75780820380516001836020036101000a031916815260200191505b50965050505050505060405180910390f35b610b2560048036036020811015610b0f57600080fd5b81019080803590602001909291905050506124d4565b604051808573ffffffffffffffffffffffffffffffffffffffff1673ffffffffffffffffffffffffffffffffffffffff1681526020018473ffffffffffffffffffffffffffffffffffffffff1673ffffffffffffffffffffffffffffffffffffffff1681526020018060200180602001838103835285818151815260200191508051906020019080838360005b83811015610bcd578082015181840152602081019050610bb2565b50505050905090810190601f168015610bfa5780820380516001836020036101000a031916815260200191505b50838103825284818151815260200191508051906020019080838360005b83811015610c33578082015181840152602081019050610c18565b50505050905090810190601f168015610c605780820380516001836020036101000a031916815260200191505b50965050505050505060405180910390f35b610dcc60048036036060811015610c8857600080fd5b8101908080359060200190640100000000811115610ca557600080fd5b820183602082011115610cb757600080fd5b80359060200191846001830284011164010000000083111715610cd957600080fd5b91908080601f016020809104026020016040519081016040528093929190818152602001838380828437600081840152601f19601f82011690508083019250505050505050919291929080359060200190640100000000811115610d3c57600080fd5b820183602082011115610d4e57600080fd5b80359060200191846001830284011164010000000083111715610d7057600080fd5b91908080601f016020809104026020016040519081016040528093929190818152602001838380828437600081840152601f19601f82011690508083019250505050505050919291929080359060200190929190505050612720565b604051808573ffffffffffffffffffffffffffffffffffffffff1673ffffffffffffffffffffffffffffffffffffffff168152602001806020018060200180602001848103845287818151815260200191508051906020019080838360005b83811015610e46578082015181840152602081019050610e2b565b50505050905090810190601f168015610e735780820380516001836020036101000a031916815260200191505b50848103835286818151815260200191508051906020019080838360005b83811015610eac578082015181840152602081019050610e91565b50505050905090810190601f168015610ed95780820380516001836020036101000a031916815260200191505b50848103825285818151815260200191508051906020019080838360005b83811015610f12578082015181840152602081019050610ef7565b50505050905090810190601f168015610f3f5780820380516001836020036101000a031916815260200191505b5097505050505050505060405180910390f35b61101560048036036040811015610f6857600080fd5b810190808035906020019092919080359060200190640100000000811115610f8f57600080fd5b820183602082011115610fa157600080fd5b80359060200191846001830284011164010000000083111715610fc357600080fd5b91908080601f016020809104026020016040519081016040528093929190818152602001838380828437600081840152601f19601f8201169050808301925050505050505091929192905050506128e4565b005b61101f6129e2565b6040518082815260200191505060405180910390f35b61118f6004803603606081101561104b57600080fd5b81019080803590602001909291908035906020019064010000000081111561107257600080fd5b82018360208201111561108457600080fd5b803590602001918460018302840111640100000000831117156110a657600080fd5b91908080601f016020809104026020016040519081016040528093929190818152602001838380828437600081840152601f19601f8201169050808301925050505050505091929192908035906020019064010000000081111561110957600080fd5b82018360208201111561111b57600080fd5b8035906020019184600183028401116401000000008311171561113d57600080fd5b91908080601f016020809104026020016040519081016040528093929190818152602001838380828437600081840152601f19601f820116905080830192505050505050509192919290505050612ac3565b005b6111d3600480360360208110156111a757600080fd5b81019080803573ffffffffffffffffffffffffffffffffffffffff169060200190929190505050612ca3565b604051808573ffffffffffffffffffffffffffffffffffffffff1673ffffffffffffffffffffffffffffffffffffffff168152602001806020018060200180602001848103845287818151815260200191508051906020019080838360005b8381101561124d578082015181840152602081019050611232565b50505050905090810190601f16801561127a5780820380516001836020036101000a031916815260200191505b50848103835286818151815260200191508051906020019080838360005b838110156112b3578082015181840152602081019050611298565b50505050905090810190601f1680156112e05780820380516001836020036101000a031916815260200191505b50848103825285818151815260200191508051906020019080838360005b838110156113195780820151818401526020810190506112fe565b50505050905090810190601f1680156113465780820380516001836020036101000a031916815260200191505b5097505050505050505060405180910390f35b6113856004803603602081101561136f57600080fd5b8101908080359060200190929190505050613272565b604051808273ffffffffffffffffffffffffffffffffffffffff1673ffffffffffffffffffffffffffffffffffffffff16815260200191505060405180910390f35b6114a0600480360360408110156113dd57600080fd5b81019080803573ffffffffffffffffffffffffffffffffffffffff1690602001909291908035906020019064010000000081111561141a57600080fd5b82018360208201111561142c57600080fd5b8035906020019184600183028401116401000000008311171561144e57600080fd5b91908080601f016020809104026020016040519081016040528093929190818152602001838380828437600081840152601f19601f820116905080830192505050505050509192919290505050613376565b005b7fd9491d9a8b6f9be10814b9a1d01c06052d9a61354c5b8c6d00c53e0839661362838383604051808473ffffffffffffffffffffffffffffffffffffffff1673ffffffffffffffffffffffffffffffffffffffff1681526020018060200180602001838103835285818151815260200191508051906020019080838360005b8381101561153c578082015181840152602081019050611521565b50505050905090810190601f1680156115695780820380516001836020036101000a031916815260200191505b50838103825284818151815260200191508051906020019080838360005b838110156115a2578082015181840152602081019050611587565b50505050905090810190601f1680156115cf5780820380516001836020036101000a031916815260200191505b509550505050505060405180910390a1505050565b600360009054906101000a900473ffffffffffffffffffffffffffffffffffffffff1673ffffffffffffffffffffffffffffffffffffffff16631e7dcb1883836040518363ffffffff1660e01b81526004018083815260200180602001828103825283818151815260200191508051906020019080838360005b8381101561167957808201518184015260208101905061165e565b50505050905090810190601f1680156116a65780820380516001836020036101000a031916815260200191505b509350505050600060405180830381600087803b1580156116c657600080fd5b505af11580156116da573d6000803e3d6000fd5b505050505050565b60008060009054906101000a900473ffffffffffffffffffffffffffffffffffffffff1673ffffffffffffffffffffffffffffffffffffffff1663bd02d0f5848460405160200180807f6c61622e6c6f636174696f6e0000000000000000000000000000000000000000815250600c0183805190602001908083835b60208310611781578051825260208201915060208101905060208303925061175e565b6001836020036101000a03801982511681845116808217855250505050505090500182805190602001908083835b602083106117d257805182526020820191506020810190506020830392506117af565b6001836020036101000a03801982511681845116808217855250505050505090500192505050604051602081830303815290604052805190602001206040518263ffffffff1660e01b81526004018082815260200191505060206040518083038186803b15801561184257600080fd5b505afa158015611856573d6000803e3d6000fd5b505050506040513d602081101561186c57600080fd5b8101908080519060200190929190505050905092915050565b600360009054906101000a900473ffffffffffffffffffffffffffffffffffffffff1673ffffffffffffffffffffffffffffffffffffffff166354c7763a83836040518363ffffffff1660e01b81526004018083815260200180602001828103825283818151815260200191508051906020019080838360005b8381101561191a5780820151818401526020810190506118ff565b50505050905090810190601f1680156119475780820380516001836020036101000a031916815260200191505b509350505050600060405180830381600087803b15801561196757600080fd5b505af115801561197b573d6000803e3d6000fd5b505050505050565b60008060009054906101000a900473ffffffffffffffffffffffffffffffffffffffff1673ffffffffffffffffffffffffffffffffffffffff1663a6ed563e3360405160200180807f53706563696d656e2e6c6173744e756d626572000000000000000000000000008152506013018273ffffffffffffffffffffffffffffffffffffffff1673ffffffffffffffffffffffffffffffffffffffff1660601b8152601401915050604051602081830303815290604052805190602001206040518263ffffffff1660e01b81526004018082815260200191505060206040518083038186803b158015611a7457600080fd5b505afa158015611a88573d6000803e3d6000fd5b505050506040513d6020811015611a9e57600080fd5b8101908080519060200190929190505050905090565b60608060008060009054906101000a900473ffffffffffffffffffffffffffffffffffffffff1673ffffffffffffffffffffffffffffffffffffffff1663986e791a868660405160200180807f6c61622e736572766963652e636f6465000000000000000000000000000000008152506010018373ffffffffffffffffffffffffffffffffffffffff1673ffffffffffffffffffffffffffffffffffffffff1660601b815260140182815260200192505050604051602081830303815290604052805190602001206040518263ffffffff1660e01b81526004018082815260200191505060006040518083038186803b158015611bb057600080fd5b505afa158015611bc4573d6000803e3d6000fd5b505050506040513d6000823e3d601f19601f820116820180604052506020811015611bee57600080fd5b8101908080516040519392919084640100000000821115611c0e57600080fd5b83820191506020820185811115611c2457600080fd5b8251866001820283011164010000000082111715611c4157600080fd5b8083526020830192505050908051906020019080838360005b83811015611c75578082015181840152602081019050611c5a565b50505050905090810190601f168015611ca25780820380516001836020036101000a031916815260200191505b5060405250505092506000809054906101000a900473ffffffffffffffffffffffffffffffffffffffff1673ffffffffffffffffffffffffffffffffffffffff1663986e791a868560405160200180807f6c61622e736572766963652e6e616d65000000000000000000000000000000008152506010018373ffffffffffffffffffffffffffffffffffffffff1673ffffffffffffffffffffffffffffffffffffffff1660601b815260140182805190602001908083835b60208310611d7d5780518252602082019150602081019050602083039250611d5a565b6001836020036101000a03801982511681845116808217855250505050505090500192505050604051602081830303815290604052805190602001206040518263ffffffff1660e01b81526004018082815260200191505060006040518083038186803b158015611ded57600080fd5b505afa158015611e01573d6000803e3d6000fd5b505050506040513d6000823e3d601f19601f820116820180604052506020811015611e2b57600080fd5b8101908080516040519392919084640100000000821115611e4b57600080fd5b83820191506020820185811115611e6157600080fd5b8251866001820283011164010000000082111715611e7e57600080fd5b8083526020830192505050908051906020019080838360005b83811015611eb2578082015181840152602081019050611e97565b50505050905090810190601f168015611edf5780820380516001836020036101000a031916815260200191505b5060405250505091506000809054906101000a900473ffffffffffffffffffffffffffffffffffffffff1673ffffffffffffffffffffffffffffffffffffffff1663bd02d0f5868560405160200180807f6c61622e736572766963652e70726963650000000000000000000000000000008152506011018373ffffffffffffffffffffffffffffffffffffffff1673ffffffffffffffffffffffffffffffffffffffff1660601b815260140182805190602001908083835b60208310611fba5780518252602082019150602081019050602083039250611f97565b6001836020036101000a03801982511681845116808217855250505050505090500192505050604051602081830303815290604052805190602001206040518263ffffffff1660e01b81526004018082815260200191505060206040518083038186803b15801561202a57600080fd5b505afa15801561203e573d6000803e3d6000fd5b505050506040513d602081101561205457600080fd5b810190808051906020019092919050505090508282829250925092509250925092565b60008060009054906101000a900473ffffffffffffffffffffffffffffffffffffffff1673ffffffffffffffffffffffffffffffffffffffff1663bd02d0f58360405160200180807f6c61622e736572766963652e636f756e740000000000000000000000000000008152506011018273ffffffffffffffffffffffffffffffffffffffff1673ffffffffffffffffffffffffffffffffffffffff1660601b8152601401915050604051602081830303815290604052805190602001206040518263ffffffff1660e01b81526004018082815260200191505060206040518083038186803b15801561216857600080fd5b505afa15801561217c573d6000803e3d6000fd5b505050506040513d602081101561219257600080fd5b81019080805190602001909291905050509050919050565b6000809054906101000a900473ffffffffffffffffffffffffffffffffffffffff1681565b7f8ca5fb51ec76e0fba6b96a8e596d91cb678f7fef4fe4edb108915e409782107184848484604051808573ffffffffffffffffffffffffffffffffffffffff1673ffffffffffffffffffffffffffffffffffffffff168152602001806020018060200180602001848103845287818151815260200191508051906020019080838360005b8381101561226e578082015181840152602081019050612253565b50505050905090810190601f16801561229b5780820380516001836020036101000a031916815260200191505b50848103835286818151815260200191508051906020019080838360005b838110156122d45780820151818401526020810190506122b9565b50505050905090810190601f1680156123015780820380516001836020036101000a031916815260200191505b50848103825285818151815260200191508051906020019080838360005b8381101561233a57808201518184015260208101905061231f565b50505050905090810190601f1680156123675780820380516001836020036101000a031916815260200191505b5097505050505050505060405180910390a150505050565b60008060608060008060009054906101000a900473ffffffffffffffffffffffffffffffffffffffff1673ffffffffffffffffffffffffffffffffffffffff1663a6ed563e338860405160200180807f53706563696d656e0000000000000000000000000000000000000000000000008152506008018373ffffffffffffffffffffffffffffffffffffffff1673ffffffffffffffffffffffffffffffffffffffff1660601b815260140182815260200192505050604051602081830303815290604052805190602001206040518263ffffffff1660e01b81526004018082815260200191505060206040518083038186803b15801561247e57600080fd5b505afa158015612492573d6000803e3d6000fd5b505050506040513d60208110156124a857600080fd5b810190808051906020019092919050505090506124c4816124d4565b9450945094509450509193509193565b600080606080600360009054906101000a900473ffffffffffffffffffffffffffffffffffffffff1673ffffffffffffffffffffffffffffffffffffffff1663b1bc38f0866040518263ffffffff1660e01b81526004018082815260200191505060006040518083038186803b15801561254d57600080fd5b505afa158015612561573d6000803e3d6000fd5b505050506040513d6000823e3d601f19601f82011682018060405250608081101561258b57600080fd5b810190808051906020019092919080519060200190929190805160405193929190846401000000008211156125bf57600080fd5b838201915060208201858111156125d557600080fd5b82518660018202830111640100000000821117156125f257600080fd5b8083526020830192505050908051906020019080838360005b8381101561262657808201518184015260208101905061260b565b50505050905090810190601f1680156126535780820380516001836020036101000a031916815260200191505b506040526020018051604051939291908464010000000082111561267657600080fd5b8382019150602082018581111561268c57600080fd5b82518660018202830111640100000000821117156126a957600080fd5b8083526020830192505050908051906020019080838360005b838110156126dd5780820151818401526020810190506126c2565b50505050905090810190601f16801561270a5780820380516001836020036101000a031916815260200191505b5060405250505093509350935093509193509193565b600060608060606000809054906101000a900473ffffffffffffffffffffffffffffffffffffffff1673ffffffffffffffffffffffffffffffffffffffff166321f8a72188888860405160200180807f6c61622e6c6f636174696f6e0000000000000000000000000000000000000000815250600c0184805190602001908083835b602083106127c557805182526020820191506020810190506020830392506127a2565b6001836020036101000a03801982511681845116808217855250505050505090500183805190602001908083835b6020831061281657805182526020820191506020810190506020830392506127f3565b6001836020036101000a0380198251168184511680821785525050505050509050018281526020019350505050604051602081830303815290604052805190602001206040518263ffffffff1660e01b81526004018082815260200191505060206040518083038186803b15801561288d57600080fd5b505afa1580156128a1573d6000803e3d6000fd5b505050506040513d60208110156128b757600080fd5b810190808051906020019092919050505093506128d384612ca3565b935093509350935093509350935093565b600360009054906101000a900473ffffffffffffffffffffffffffffffffffffffff1673ffffffffffffffffffffffffffffffffffffffff1663d06a9cb783836040518363ffffffff1660e01b81526004018083815260200180602001828103825283818151815260200191508051906020019080838360005b8381101561297957808201518184015260208101905061295e565b50505050905090810190601f1680156129a65780820380516001836020036101000a031916815260200191505b509350505050600060405180830381600087803b1580156129c657600080fd5b505af11580156129da573d6000803e3d6000fd5b505050505050565b6000600360009054906101000a900473ffffffffffffffffffffffffffffffffffffffff1673ffffffffffffffffffffffffffffffffffffffff16635803d619336040518263ffffffff1660e01b8152600401808273ffffffffffffffffffffffffffffffffffffffff1673ffffffffffffffffffffffffffffffffffffffff16815260200191505060206040518083038186803b158015612a8357600080fd5b505afa158015612a97573d6000803e3d6000fd5b505050506040513d6020811015612aad57600080fd5b8101908080519060200190929190505050905090565b600360009054906101000a900473ffffffffffffffffffffffffffffffffffffffff1673ffffffffffffffffffffffffffffffffffffffff1663e77ebf468484846040518463ffffffff1660e01b8152600401808481526020018060200180602001838103835285818151815260200191508051906020019080838360005b83811015612b5d578082015181840152602081019050612b42565b50505050905090810190601f168015612b8a5780820380516001836020036101000a031916815260200191505b50838103825284818151815260200191508051906020019080838360005b83811015612bc3578082015181840152602081019050612ba8565b50505050905090810190601f168015612bf05780820380516001836020036101000a031916815260200191505b5095505050505050600060405180830381600087803b158015612c1257600080fd5b505af1158015612c26573d6000803e3d6000fd5b505050506000612c3584613272565b905060008190508073ffffffffffffffffffffffffffffffffffffffff1663f49c845a6040518163ffffffff1660e01b8152600401600060405180830381600087803b158015612c8457600080fd5b505af1158015612c98573d6000803e3d6000fd5b505050505050505050565b600060608060606000809054906101000a900473ffffffffffffffffffffffffffffffffffffffff1673ffffffffffffffffffffffffffffffffffffffff1663986e791a8660405160200180807f6c61622e6e616d650000000000000000000000000000000000000000000000008152506008018273ffffffffffffffffffffffffffffffffffffffff1673ffffffffffffffffffffffffffffffffffffffff1660601b8152601401915050604051602081830303815290604052805190602001206040518263ffffffff1660e01b81526004018082815260200191505060006040518083038186803b158015612d9957600080fd5b505afa158015612dad573d6000803e3d6000fd5b505050506040513d6000823e3d601f19601f820116820180604052506020811015612dd757600080fd5b8101908080516040519392919084640100000000821115612df757600080fd5b83820191506020820185811115612e0d57600080fd5b8251866001820283011164010000000082111715612e2a57600080fd5b8083526020830192505050908051906020019080838360005b83811015612e5e578082015181840152602081019050612e43565b50505050905090810190601f168015612e8b5780820380516001836020036101000a031916815260200191505b5060405250505092506000809054906101000a900473ffffffffffffffffffffffffffffffffffffffff1673ffffffffffffffffffffffffffffffffffffffff1663986e791a8660405160200180807f6c61622e636f756e747279000000000000000000000000000000000000000000815250600b018273ffffffffffffffffffffffffffffffffffffffff1673ffffffffffffffffffffffffffffffffffffffff1660601b8152601401915050604051602081830303815290604052805190602001206040518263ffffffff1660e01b81526004018082815260200191505060006040518083038186803b158015612f8357600080fd5b505afa158015612f97573d6000803e3d6000fd5b505050506040513d6000823e3d601f19601f820116820180604052506020811015612fc157600080fd5b8101908080516040519392919084640100000000821115612fe157600080fd5b83820191506020820185811115612ff757600080fd5b825186600182028301116401000000008211171561301457600080fd5b8083526020830192505050908051906020019080838360005b8381101561304857808201518184015260208101905061302d565b50505050905090810190601f1680156130755780820380516001836020036101000a031916815260200191505b5060405250505091506000809054906101000a900473ffffffffffffffffffffffffffffffffffffffff1673ffffffffffffffffffffffffffffffffffffffff1663986e791a8660405160200180807f6c61622e636974790000000000000000000000000000000000000000000000008152506008018273ffffffffffffffffffffffffffffffffffffffff1673ffffffffffffffffffffffffffffffffffffffff1660601b8152601401915050604051602081830303815290604052805190602001206040518263ffffffff1660e01b81526004018082815260200191505060006040518083038186803b15801561316d57600080fd5b505afa158015613181573d6000803e3d6000fd5b505050506040513d6000823e3d601f19601f8201168201806040525060208110156131ab57600080fd5b81019080805160405193929190846401000000008211156131cb57600080fd5b838201915060208201858111156131e157600080fd5b82518660018202830111640100000000821117156131fe57600080fd5b8083526020830192505050908051906020019080838360005b83811015613232578082015181840152602081019050613217565b50505050905090810190601f16801561325f5780820380516001836020036101000a031916815260200191505b5060405250505090508493509193509193565b60008060009054906101000a900473ffffffffffffffffffffffffffffffffffffffff1673ffffffffffffffffffffffffffffffffffffffff166321f8a7218360405160200180807f53706563696d656e2e657363726f770000000000000000000000000000000000815250600f01828152602001915050604051602081830303815290604052805190602001206040518263ffffffff1660e01b81526004018082815260200191505060206040518083038186803b15801561333457600080fd5b505afa158015613348573d6000803e3d6000fd5b505050506040513d602081101561335e57600080fd5b81019080805190602001909291905050509050919050565b6000600360009054906101000a900473ffffffffffffffffffffffffffffffffffffffff1673ffffffffffffffffffffffffffffffffffffffff1663a250156c3385856040518463ffffffff1660e01b8152600401808473ffffffffffffffffffffffffffffffffffffffff1673ffffffffffffffffffffffffffffffffffffffff1681526020018373ffffffffffffffffffffffffffffffffffffffff1673ffffffffffffffffffffffffffffffffffffffff16815260200180602001828103825283818151815260200191508051906020019080838360005b8381101561346c578082015181840152602081019050613451565b50505050905090810190601f1680156134995780820380516001836020036101000a031916815260200191505b50945050505050602060405180830381600087803b1580156134ba57600080fd5b505af11580156134ce573d6000803e3d6000fd5b505050506040513d60208110156134e457600080fd5b81019080805190602001909291905050509050600061368033856000809054906101000a900473ffffffffffffffffffffffffffffffffffffffff1673ffffffffffffffffffffffffffffffffffffffff1663bd02d0f5888860405160200180807f6c61622e736572766963652e70726963650000000000000000000000000000008152506011018373ffffffffffffffffffffffffffffffffffffffff1673ffffffffffffffffffffffffffffffffffffffff1660601b815260140182805190602001908083835b602083106135d057805182526020820191506020810190506020830392506135ad565b6001836020036101000a03801982511681845116808217855250505050505090500192505050604051602081830303815290604052805190602001206040518263ffffffff1660e01b81526004018082815260200191505060206040518083038186803b15801561364057600080fd5b505afa158015613654573d6000803e3d6000fd5b505050506040513d602081101561366a57600080fd5b8101908080519060200190929190505050613866565b90506000809054906101000a900473ffffffffffffffffffffffffffffffffffffffff1673ffffffffffffffffffffffffffffffffffffffff1663ca446dd98360405160200180807f53706563696d656e2e657363726f770000000000000000000000000000000000815250600f0182815260200191505060405160208183030381529060405280519060200120836040518363ffffffff1660e01b8152600401808381526020018273ffffffffffffffffffffffffffffffffffffffff1673ffffffffffffffffffffffffffffffffffffffff16815260200192505050600060405180830381600087803b15801561377857600080fd5b505af115801561378c573d6000803e3d6000fd5b505050507f6f51c966b226abb2a973172a0489909f6e0729ae419cda220fb82e9bab7d43ca8484604051808373ffffffffffffffffffffffffffffffffffffffff1673ffffffffffffffffffffffffffffffffffffffff16815260200180602001828103825283818151815260200191508051906020019080838360005b8381101561382557808201518184015260208101905061380a565b50505050905090810190601f1680156138525780820380516001836020036101000a031916815260200191505b50935050505060405180910390a150505050565b6000806000809054906101000a900473ffffffffffffffffffffffffffffffffffffffff1673ffffffffffffffffffffffffffffffffffffffff166321f8a72160405160200180807f636f6e74726163742e6164647265737300000000000000000000000000000000815250601001807f457363726f77466163746f727900000000000000000000000000000000000000815250600d019050604051602081830303815290604052805190602001206040518263ffffffff1660e01b81526004018082815260200191505060206040518083038186803b15801561394957600080fd5b505afa15801561395d573d6000803e3d6000fd5b505050506040513d602081101561397357600080fd5b81019080805190602001909291905050509050600073ffffffffffffffffffffffffffffffffffffffff168173ffffffffffffffffffffffffffffffffffffffff1614613abe5760008190508073ffffffffffffffffffffffffffffffffffffffff1663c36176508787876040518463ffffffff1660e01b8152600401808473ffffffffffffffffffffffffffffffffffffffff1673ffffffffffffffffffffffffffffffffffffffff1681526020018373ffffffffffffffffffffffffffffffffffffffff1673ffffffffffffffffffffffffffffffffffffffff1681526020018281526020019350505050602060405180830381600087803b158015613a7a57600080fd5b505af1158015613a8e573d6000803e3d6000fd5b505050506040513d6020811015613aa457600080fd5b810190808051906020019092919050505092505050613ac0565b505b939250505056fea265627a7a72315820ba41d1ec498c1b21fdef4e8481f32d917810da9834252f276f8ad13255e3f74164736f6c63430005100032",
  "source": "pragma solidity ^0.5.16;\r\n\r\n\r\nimport \"./common/Base.sol\";\r\nimport \"./common/SafeMath.sol\";\r\nimport \"./common/Address.sol\";\r\n\r\nimport \"./Account.sol\";\r\nimport \"./Specimen.sol\";\r\nimport \"./Location.sol\";\r\nimport \"./EscrowFactory.sol\";\r\nimport \"./Escrow.sol\";\r\n\r\ncontract Degenics is Base {\r\n\r\n    Location location;\r\n    Account account;\r\n    Specimen specimen;\r\n\r\n\r\n    event NewLab(address account, string name, string country, string city);\r\n    event NewService(address labAccount, string name, string service);\r\n    event NewSpecimen(address labAccount, string Code);\r\n\r\n    \r\n    constructor(address _storage, address _account, address _specimen, address _location ) public Base(_storage) {\r\n        location = Location(_location);\r\n        account = Account(_account);\r\n        specimen = Specimen(_specimen);\r\n    }\r\n\r\n    \r\n\r\n    function labCount(string memory country, string memory city) public view returns(uint){\r\n        return  eternalStorage.getUint(keccak256(abi.encodePacked(\"lab.location\",country, city)));\r\n    }\r\n\r\n    function labByIndex(string memory _country, string memory _city, uint index) public view returns(address labAccount, string memory name, string memory country, string memory city){\r\n        labAccount = eternalStorage.getAddress(keccak256(abi.encodePacked(\"lab.location\", _country,_city, index)));\r\n        return labByAccount(labAccount);\r\n    }\r\n\r\n    function labByAccount(address _account) public view \r\n        returns(address labAccount, string memory name, string memory country, string memory city){\r\n           \r\n        name = eternalStorage.getString(keccak256(abi.encodePacked(\"lab.name\", _account)));\r\n        country = eternalStorage.getString(keccak256(abi.encodePacked(\"lab.country\", _account)));\r\n        city = eternalStorage.getString(keccak256(abi.encodePacked(\"lab.city\", _account))); \r\n        labAccount = _account;   \r\n    }\r\n\r\n    function serviceCount(address labAccount) public view returns(uint){\r\n        return eternalStorage.getUint(keccak256(abi.encodePacked(\"lab.service.count\", labAccount)));\r\n    }\r\n\r\n    function serviceByIndex(address labAccount, uint index) public view returns(string memory code, string memory serviceName, uint price){\r\n        code = eternalStorage.getString(keccak256(abi.encodePacked(\"lab.service.code\", labAccount, index )));\r\n        serviceName = eternalStorage.getString(keccak256(abi.encodePacked(\"lab.service.name\", labAccount, code)));\r\n        price = eternalStorage.getUint(keccak256(abi.encodePacked(\"lab.service.price\", labAccount, code)));\r\n        return(code, serviceName, price);\r\n    }\r\n\r\n    function registerSpecimen(address labAccount, string memory serviceCode) public {\r\n        \r\n        bytes32 number = specimen.registerSpecimen(msg.sender, labAccount, serviceCode);\r\n        address escrow = createEscrow(msg.sender, labAccount, eternalStorage.getUint(keccak256(abi.encodePacked(\"lab.service.price\", labAccount, serviceCode))));\r\n\r\n        eternalStorage.setAddress(keccak256(abi.encodePacked(\"Specimen.escrow\", number)),  escrow); \r\n        emit NewSpecimen(labAccount, serviceCode);\r\n    }\r\n\r\n    function getLastNumber() public view returns(bytes32){\r\n        return eternalStorage.getBytes32(keccak256(abi.encodePacked(\"Specimen.lastNumber\",msg.sender)));\r\n    }\r\n\r\n    function specimenCount() public view returns(uint){\r\n        return specimen.specimenCount(msg.sender);\r\n    }\r\n\r\n    function specimenByNumber(bytes32 number) public view returns(\r\n        address owner, address labAccount, string memory serviceCode, string memory status){  \r\n        return specimen.specimenByNumber(number) ;\r\n    }\r\n\r\n    function specimenByIndex(uint index) public view returns(\r\n        address owner, address labAccount, string memory serviceCode, string memory status){        \r\n        bytes32 number =  eternalStorage.getBytes32(keccak256(abi.encodePacked(\"Specimen\",msg.sender, index )));   \r\n        return specimenByNumber(number);\r\n    }\r\n\r\n    function getEscrow(bytes32  number) public view returns(address){\r\n        return eternalStorage.getAddress(keccak256(abi.encodePacked(\"Specimen.escrow\", number))); \r\n    }\r\n\r\n    function sendSpecimen(bytes32  number, string memory remark) public {        \r\n        specimen.sendSpecimen(number, remark);\r\n    }\r\n\r\n    function receiveSpecimen(bytes32  number, string memory remark) public {\r\n        specimen.receiveSpecimen(number, remark);\r\n    }\r\n\r\n    function analysisSucces(bytes32  number, string memory file, string memory remark) public {\r\n        specimen.analysisSucces(number, file, remark);\r\n        address payable escrowWallet = address(uint160(getEscrow(number)));\r\n        Escrow instance = Escrow(escrowWallet);\r\n        instance.forwardToSeller();\r\n    }\r\n\r\n    function analysisFail(bytes32  number, string memory remark) public {\r\n        specimen.analysisFail(number, remark);\r\n    }\r\n\r\n    function escrowBalance(bytes32 number) internal view returns(uint){\r\n        address escrow = eternalStorage.getAddress(keccak256(abi.encodePacked(\"Specimen.escrow\", number)));\r\n        return escrow.balance;\r\n    }\r\n\r\n    function createEscrow(address buyer, address seller, uint amount) internal returns(address){\r\n       address _address = eternalStorage.getAddress(keccak256(abi.encodePacked(\"contract.address\", \"EscrowFactory\")));\r\n       if(_address != address(0)){\r\n           EscrowFactory ef = EscrowFactory(_address);\r\n           return ef.createEscrow(buyer, seller, amount);\r\n       }\r\n    }\r\n\r\n    function emitNewLab(address _account, string memory name, string memory country, string memory city)public {\r\n        emit NewLab(_account, name, country, city);\r\n    }\r\n\r\n    function emitNewService(address labAccount, string memory name, string memory service)public {\r\n        emit NewService(labAccount, name, service);\r\n    }\r\n\r\n\r\n}\r\n\r\n//host guitar cool sick provide magic enhance attend faith woman method episode",
  "sourcePath": "D:\\projects\\degenics\\degenics-smart-contract\\contracts\\Degenics.sol",
  "compiler": {
    "name": "solc",
    "version": "0.5.16+commit.9c3226ce.Emscripten.clang"
  },
  "schemaVersion": "3.0.23",
  "updatedAt": "2020-12-29T13:01:00.879Z",
  "networkType": "ethereum",
  "devdoc": {
    "methods": {}
  },
  "userdoc": {
    "methods": {}
  }
}