{
  "contractName": "Degenics",
  "abi": [
    {
      "inputs": [
        {
          "internalType": "address",
          "name": "_storage",
          "type": "address"
        },
        {
          "internalType": "address",
          "name": "_account",
          "type": "address"
        },
        {
          "internalType": "address",
          "name": "_specimen",
          "type": "address"
        },
        {
          "internalType": "address",
          "name": "_location",
          "type": "address"
        }
      ],
      "payable": false,
      "stateMutability": "nonpayable",
      "type": "constructor"
    },
    {
      "anonymous": false,
      "inputs": [
        {
          "indexed": false,
          "internalType": "address",
          "name": "account",
          "type": "address"
        },
        {
          "indexed": false,
          "internalType": "string",
          "name": "name",
          "type": "string"
        },
        {
          "indexed": false,
          "internalType": "string",
          "name": "country",
          "type": "string"
        },
        {
          "indexed": false,
          "internalType": "string",
          "name": "city",
          "type": "string"
        }
      ],
      "name": "NewLab",
      "type": "event"
    },
    {
      "anonymous": false,
      "inputs": [
        {
          "indexed": false,
          "internalType": "address",
          "name": "labAccount",
          "type": "address"
        },
        {
          "indexed": false,
          "internalType": "string",
          "name": "name",
          "type": "string"
        },
        {
          "indexed": false,
          "internalType": "string",
          "name": "service",
          "type": "string"
        }
      ],
      "name": "NewService",
      "type": "event"
    },
    {
      "anonymous": false,
      "inputs": [
        {
          "indexed": false,
          "internalType": "address",
          "name": "labAccount",
          "type": "address"
        },
        {
          "indexed": false,
          "internalType": "string",
          "name": "Code",
          "type": "string"
        }
      ],
      "name": "NewSpecimen",
      "type": "event"
    },
    {
      "constant": true,
      "inputs": [],
      "name": "eternalStorage",
      "outputs": [
        {
          "internalType": "contract EternalStorageInterface",
          "name": "",
          "type": "address"
        }
      ],
      "payable": false,
      "stateMutability": "view",
      "type": "function"
    },
    {
      "constant": true,
      "inputs": [
        {
          "internalType": "string",
          "name": "country",
          "type": "string"
        },
        {
          "internalType": "string",
          "name": "city",
          "type": "string"
        }
      ],
      "name": "labCount",
      "outputs": [
        {
          "internalType": "uint256",
          "name": "",
          "type": "uint256"
        }
      ],
      "payable": false,
      "stateMutability": "view",
      "type": "function"
    },
    {
      "constant": true,
      "inputs": [
        {
          "internalType": "string",
          "name": "_country",
          "type": "string"
        },
        {
          "internalType": "string",
          "name": "_city",
          "type": "string"
        },
        {
          "internalType": "uint256",
          "name": "index",
          "type": "uint256"
        }
      ],
      "name": "labByIndex",
      "outputs": [
        {
          "internalType": "address",
          "name": "labAccount",
          "type": "address"
        },
        {
          "internalType": "string",
          "name": "name",
          "type": "string"
        },
        {
          "internalType": "string",
          "name": "country",
          "type": "string"
        },
        {
          "internalType": "string",
          "name": "city",
          "type": "string"
        },
        {
          "internalType": "string",
          "name": "additionalData",
          "type": "string"
        },
        {
          "internalType": "bool",
          "name": "active",
          "type": "bool"
        }
      ],
      "payable": false,
      "stateMutability": "view",
      "type": "function"
    },
    {
      "constant": true,
      "inputs": [
        {
          "internalType": "address",
          "name": "_account",
          "type": "address"
        }
      ],
      "name": "labByAccount",
      "outputs": [
        {
          "internalType": "address",
          "name": "labAccount",
          "type": "address"
        },
        {
          "internalType": "string",
          "name": "name",
          "type": "string"
        },
        {
          "internalType": "string",
          "name": "country",
          "type": "string"
        },
        {
          "internalType": "string",
          "name": "city",
          "type": "string"
        },
        {
          "internalType": "string",
          "name": "additionalData",
          "type": "string"
        },
        {
          "internalType": "bool",
          "name": "active",
          "type": "bool"
        }
      ],
      "payable": false,
      "stateMutability": "view",
      "type": "function"
    },
    {
      "constant": true,
      "inputs": [
        {
          "internalType": "address",
          "name": "labAccount",
          "type": "address"
        }
      ],
      "name": "serviceCount",
      "outputs": [
        {
          "internalType": "uint256",
          "name": "",
          "type": "uint256"
        }
      ],
      "payable": false,
      "stateMutability": "view",
      "type": "function"
    },
    {
      "constant": true,
      "inputs": [
        {
          "internalType": "address",
          "name": "labAccount",
          "type": "address"
        },
        {
          "internalType": "uint256",
          "name": "index",
          "type": "uint256"
        }
      ],
      "name": "serviceByIndex",
      "outputs": [
        {
          "internalType": "string",
          "name": "code",
          "type": "string"
        },
        {
          "internalType": "string",
          "name": "serviceName",
          "type": "string"
        },
        {
          "internalType": "string",
          "name": "description",
          "type": "string"
        },
        {
          "internalType": "uint256",
          "name": "price",
          "type": "uint256"
        },
        {
          "internalType": "string",
          "name": "additionalData",
          "type": "string"
        },
        {
          "internalType": "bool",
          "name": "active",
          "type": "bool"
        }
      ],
      "payable": false,
      "stateMutability": "view",
      "type": "function"
    },
    {
      "constant": false,
      "inputs": [
        {
          "internalType": "address",
          "name": "labAccount",
          "type": "address"
        },
        {
          "internalType": "string",
          "name": "serviceCode",
          "type": "string"
        }
      ],
      "name": "registerSpecimen",
      "outputs": [],
      "payable": false,
      "stateMutability": "nonpayable",
      "type": "function"
    },
    {
      "constant": true,
      "inputs": [],
      "name": "getLastNumber",
      "outputs": [
        {
          "internalType": "bytes32",
          "name": "",
          "type": "bytes32"
        }
      ],
      "payable": false,
      "stateMutability": "view",
      "type": "function"
    },
    {
      "constant": true,
      "inputs": [],
      "name": "specimenCount",
      "outputs": [
        {
          "internalType": "uint256",
          "name": "",
          "type": "uint256"
        }
      ],
      "payable": false,
      "stateMutability": "view",
      "type": "function"
    },
    {
      "constant": true,
      "inputs": [
        {
          "internalType": "bytes32",
          "name": "number",
          "type": "bytes32"
        }
      ],
      "name": "specimenByNumber",
      "outputs": [
        {
          "internalType": "address",
          "name": "owner",
          "type": "address"
        },
        {
          "internalType": "address",
          "name": "labAccount",
          "type": "address"
        },
        {
          "internalType": "string",
          "name": "serviceCode",
          "type": "string"
        },
        {
          "internalType": "string",
          "name": "status",
          "type": "string"
        }
      ],
      "payable": false,
      "stateMutability": "view",
      "type": "function"
    },
    {
      "constant": true,
      "inputs": [
        {
          "internalType": "uint256",
          "name": "index",
          "type": "uint256"
        }
      ],
      "name": "specimenByIndex",
      "outputs": [
        {
          "internalType": "address",
          "name": "owner",
          "type": "address"
        },
        {
          "internalType": "address",
          "name": "labAccount",
          "type": "address"
        },
        {
          "internalType": "string",
          "name": "serviceCode",
          "type": "string"
        },
        {
          "internalType": "string",
          "name": "status",
          "type": "string"
        }
      ],
      "payable": false,
      "stateMutability": "view",
      "type": "function"
    },
    {
      "constant": true,
      "inputs": [
        {
          "internalType": "bytes32",
          "name": "number",
          "type": "bytes32"
        }
      ],
      "name": "getEscrow",
      "outputs": [
        {
          "internalType": "address",
          "name": "",
          "type": "address"
        }
      ],
      "payable": false,
      "stateMutability": "view",
      "type": "function"
    },
    {
      "constant": false,
      "inputs": [
        {
          "internalType": "bytes32",
          "name": "number",
          "type": "bytes32"
        },
        {
          "internalType": "string",
          "name": "remark",
          "type": "string"
        }
      ],
      "name": "sendSpecimen",
      "outputs": [],
      "payable": false,
      "stateMutability": "nonpayable",
      "type": "function"
    },
    {
      "constant": false,
      "inputs": [
        {
          "internalType": "bytes32",
          "name": "number",
          "type": "bytes32"
        },
        {
          "internalType": "string",
          "name": "remark",
          "type": "string"
        }
      ],
      "name": "receiveSpecimen",
      "outputs": [],
      "payable": false,
      "stateMutability": "nonpayable",
      "type": "function"
    },
    {
      "constant": false,
      "inputs": [
        {
          "internalType": "bytes32",
          "name": "number",
          "type": "bytes32"
        },
        {
          "internalType": "string",
          "name": "remark",
          "type": "string"
        }
      ],
      "name": "rejectSpecimen",
      "outputs": [],
      "payable": false,
      "stateMutability": "nonpayable",
      "type": "function"
    },
    {
      "constant": false,
      "inputs": [
        {
          "internalType": "bytes32",
          "name": "number",
          "type": "bytes32"
        },
        {
          "internalType": "string",
          "name": "file",
          "type": "string"
        },
        {
          "internalType": "string",
          "name": "remark",
          "type": "string"
        }
      ],
      "name": "analysisSucces",
      "outputs": [],
      "payable": false,
      "stateMutability": "nonpayable",
      "type": "function"
    },
    {
      "constant": true,
      "inputs": [
        {
          "internalType": "bytes32",
          "name": "number",
          "type": "bytes32"
        }
      ],
      "name": "getFile",
      "outputs": [
        {
          "internalType": "string",
          "name": "file",
          "type": "string"
        }
      ],
      "payable": false,
      "stateMutability": "view",
      "type": "function"
    },
    {
      "constant": false,
      "inputs": [
        {
          "internalType": "bytes32",
          "name": "number",
          "type": "bytes32"
        },
        {
          "internalType": "string",
          "name": "remark",
          "type": "string"
        }
      ],
      "name": "analysisFail",
      "outputs": [],
      "payable": false,
      "stateMutability": "nonpayable",
      "type": "function"
    },
    {
      "constant": false,
      "inputs": [
        {
          "internalType": "address",
          "name": "_account",
          "type": "address"
        },
        {
          "internalType": "string",
          "name": "name",
          "type": "string"
        },
        {
          "internalType": "string",
          "name": "country",
          "type": "string"
        },
        {
          "internalType": "string",
          "name": "city",
          "type": "string"
        }
      ],
      "name": "emitNewLab",
      "outputs": [],
      "payable": false,
      "stateMutability": "nonpayable",
      "type": "function"
    },
    {
      "constant": false,
      "inputs": [
        {
          "internalType": "address",
          "name": "labAccount",
          "type": "address"
        },
        {
          "internalType": "string",
          "name": "name",
          "type": "string"
        },
        {
          "internalType": "string",
          "name": "service",
          "type": "string"
        }
      ],
      "name": "emitNewService",
      "outputs": [],
      "payable": false,
      "stateMutability": "nonpayable",
      "type": "function"
    }
  ],
  "bytecode": "0x608060405260008060006101000a81548173ffffffffffffffffffffffffffffffffffffffff021916908373ffffffffffffffffffffffffffffffffffffffff16021790555034801561005157600080fd5b5060405161404e38038061404e8339818101604052608081101561007457600080fd5b810190808051906020019092919080519060200190929190805190602001909291908051906020019092919050505083806000806101000a81548173ffffffffffffffffffffffffffffffffffffffff021916908373ffffffffffffffffffffffffffffffffffffffff1602179055505080600160006101000a81548173ffffffffffffffffffffffffffffffffffffffff021916908373ffffffffffffffffffffffffffffffffffffffff16021790555082600260006101000a81548173ffffffffffffffffffffffffffffffffffffffff021916908373ffffffffffffffffffffffffffffffffffffffff16021790555081600360006101000a81548173ffffffffffffffffffffffffffffffffffffffff021916908373ffffffffffffffffffffffffffffffffffffffff16021790555050505050613e93806101bb6000396000f3fe608060405234801561001057600080fd5b506004361061012c5760003560e01c8063996d5fc3116100ad578063d97b0d3f11610071578063d97b0d3f146112f3578063e77ebf4614611311578063ed01c6661461146d578063f023b811146116ac578063fe0215441461171a5761012c565b8063996d5fc3146109dc5780639c99c7c914610be5578063b1bc38f014610d5e578063ba3eb0e114610ed7578063d06a9cb71461122e5761012c565b806354c7763a116100f457806354c7763a1461063a578063682c0fc1146106ff578063905110d81461071d578063940c02881461093a57806398ff9c54146109925761012c565b806312af942e146101315780631e7dcb18146102a3578063424385231461036857806343034f961461042d578063473aa2a514610593575b600080fd5b6102a16004803603606081101561014757600080fd5b81019080803573ffffffffffffffffffffffffffffffffffffffff1690602001909291908035906020019064010000000081111561018457600080fd5b82018360208201111561019657600080fd5b803590602001918460018302840111640100000000831117156101b857600080fd5b91908080601f016020809104026020016040519081016040528093929190818152602001838380828437600081840152601f19601f8201169050808301925050505050505091929192908035906020019064010000000081111561021b57600080fd5b82018360208201111561022d57600080fd5b8035906020019184600183028401116401000000008311171561024f57600080fd5b91908080601f016020809104026020016040519081016040528093929190818152602001838380828437600081840152601f19601f8201169050808301925050505050505091929192905050506117f5565b005b610366600480360360408110156102b957600080fd5b8101908080359060200190929190803590602001906401000000008111156102e057600080fd5b8201836020820111156102f257600080fd5b8035906020019184600183028401116401000000008311171561031457600080fd5b91908080601f016020809104026020016040519081016040528093929190818152602001838380828437600081840152601f19601f820116905080830192505050505050509192919290505050611937565b005b61042b6004803603604081101561037e57600080fd5b8101908080359060200190929190803590602001906401000000008111156103a557600080fd5b8201836020820111156103b757600080fd5b803590602001918460018302840111640100000000831117156103d957600080fd5b91908080601f016020809104026020016040519081016040528093929190818152602001838380828437600081840152601f19601f820116905080830192505050505050509192919290505050611a9d565b005b61057d6004803603604081101561044357600080fd5b810190808035906020019064010000000081111561046057600080fd5b82018360208201111561047257600080fd5b8035906020019184600183028401116401000000008311171561049457600080fd5b91908080601f016020809104026020016040519081016040528093929190818152602001838380828437600081840152601f19601f820116905080830192505050505050509192919290803590602001906401000000008111156104f757600080fd5b82018360208201111561050957600080fd5b8035906020019184600183028401116401000000008311171561052b57600080fd5b91908080601f016020809104026020016040519081016040528093929190818152602001838380828437600081840152601f19601f820116905080830192505050505050509192919290505050611b9b565b6040518082815260200191505060405180910390f35b6105bf600480360360208110156105a957600080fd5b8101908080359060200190929190505050611d3e565b6040518080602001828103825283818151815260200191508051906020019080838360005b838110156105ff5780820151818401526020810190506105e4565b50505050905090810190601f16801561062c5780820380516001836020036101000a031916815260200191505b509250505060405180910390f35b6106fd6004803603604081101561065057600080fd5b81019080803590602001909291908035906020019064010000000081111561067757600080fd5b82018360208201111561068957600080fd5b803590602001918460018302840111640100000000831117156106ab57600080fd5b91908080601f016020809104026020016040519081016040528093929190818152602001838380828437600081840152601f19601f820116905080830192505050505050509192919290505050611eb2565b005b610707611fb0565b6040518082815260200191505060405180910390f35b6107696004803603604081101561073357600080fd5b81019080803573ffffffffffffffffffffffffffffffffffffffff169060200190929190803590602001909291905050506120e1565b60405180806020018060200180602001878152602001806020018615151515815260200185810385528b818151815260200191508051906020019080838360005b838110156107c55780820151818401526020810190506107aa565b50505050905090810190601f1680156107f25780820380516001836020036101000a031916815260200191505b5085810384528a818151815260200191508051906020019080838360005b8381101561082b578082015181840152602081019050610810565b50505050905090810190601f1680156108585780820380516001836020036101000a031916815260200191505b50858103835289818151815260200191508051906020019080838360005b83811015610891578082015181840152602081019050610876565b50505050905090810190601f1680156108be5780820380516001836020036101000a031916815260200191505b50858103825287818151815260200191508051906020019080838360005b838110156108f75780820151818401526020810190506108dc565b50505050905090810190601f1680156109245780820380516001836020036101000a031916815260200191505b509a505050505050505050505060405180910390f35b61097c6004803603602081101561095057600080fd5b81019080803573ffffffffffffffffffffffffffffffffffffffff1690602001909291905050506124c3565b6040518082815260200191505060405180910390f35b61099a6125f6565b604051808273ffffffffffffffffffffffffffffffffffffffff1673ffffffffffffffffffffffffffffffffffffffff16815260200191505060405180910390f35b610be3600480360360808110156109f257600080fd5b81019080803573ffffffffffffffffffffffffffffffffffffffff16906020019092919080359060200190640100000000811115610a2f57600080fd5b820183602082011115610a4157600080fd5b80359060200191846001830284011164010000000083111715610a6357600080fd5b91908080601f016020809104026020016040519081016040528093929190818152602001838380828437600081840152601f19601f82011690508083019250505050505050919291929080359060200190640100000000811115610ac657600080fd5b820183602082011115610ad857600080fd5b80359060200191846001830284011164010000000083111715610afa57600080fd5b91908080601f016020809104026020016040519081016040528093929190818152602001838380828437600081840152601f19601f82011690508083019250505050505050919291929080359060200190640100000000811115610b5d57600080fd5b820183602082011115610b6f57600080fd5b80359060200191846001830284011164010000000083111715610b9157600080fd5b91908080601f016020809104026020016040519081016040528093929190818152602001838380828437600081840152601f19601f82011690508083019250505050505050919291929050505061261b565b005b610c1160048036036020811015610bfb57600080fd5b81019080803590602001909291905050506127cb565b604051808573ffffffffffffffffffffffffffffffffffffffff1673ffffffffffffffffffffffffffffffffffffffff1681526020018473ffffffffffffffffffffffffffffffffffffffff1673ffffffffffffffffffffffffffffffffffffffff1681526020018060200180602001838103835285818151815260200191508051906020019080838360005b83811015610cb9578082015181840152602081019050610c9e565b50505050905090810190601f168015610ce65780820380516001836020036101000a031916815260200191505b50838103825284818151815260200191508051906020019080838360005b83811015610d1f578082015181840152602081019050610d04565b50505050905090810190601f168015610d4c5780820380516001836020036101000a031916815260200191505b50965050505050505060405180910390f35b610d8a60048036036020811015610d7457600080fd5b8101908080359060200190929190505050612920565b604051808573ffffffffffffffffffffffffffffffffffffffff1673ffffffffffffffffffffffffffffffffffffffff1681526020018473ffffffffffffffffffffffffffffffffffffffff1673ffffffffffffffffffffffffffffffffffffffff1681526020018060200180602001838103835285818151815260200191508051906020019080838360005b83811015610e32578082015181840152602081019050610e17565b50505050905090810190601f168015610e5f5780820380516001836020036101000a031916815260200191505b50838103825284818151815260200191508051906020019080838360005b83811015610e98578082015181840152602081019050610e7d565b50505050905090810190601f168015610ec55780820380516001836020036101000a031916815260200191505b50965050505050505060405180910390f35b61103160048036036060811015610eed57600080fd5b8101908080359060200190640100000000811115610f0a57600080fd5b820183602082011115610f1c57600080fd5b80359060200191846001830284011164010000000083111715610f3e57600080fd5b91908080601f016020809104026020016040519081016040528093929190818152602001838380828437600081840152601f19601f82011690508083019250505050505050919291929080359060200190640100000000811115610fa157600080fd5b820183602082011115610fb357600080fd5b80359060200191846001830284011164010000000083111715610fd557600080fd5b91908080601f016020809104026020016040519081016040528093929190818152602001838380828437600081840152601f19601f82011690508083019250505050505050919291929080359060200190929190505050612b6c565b604051808773ffffffffffffffffffffffffffffffffffffffff1673ffffffffffffffffffffffffffffffffffffffff168152602001806020018060200180602001806020018615151515815260200185810385528a818151815260200191508051906020019080838360005b838110156110b957808201518184015260208101905061109e565b50505050905090810190601f1680156110e65780820380516001836020036101000a031916815260200191505b50858103845289818151815260200191508051906020019080838360005b8381101561111f578082015181840152602081019050611104565b50505050905090810190601f16801561114c5780820380516001836020036101000a031916815260200191505b50858103835288818151815260200191508051906020019080838360005b8381101561118557808201518184015260208101905061116a565b50505050905090810190601f1680156111b25780820380516001836020036101000a031916815260200191505b50858103825287818151815260200191508051906020019080838360005b838110156111eb5780820151818401526020810190506111d0565b50505050905090810190601f1680156112185780820380516001836020036101000a031916815260200191505b509a505050505050505050505060405180910390f35b6112f16004803603604081101561124457600080fd5b81019080803590602001909291908035906020019064010000000081111561126b57600080fd5b82018360208201111561127d57600080fd5b8035906020019184600183028401116401000000008311171561129f57600080fd5b91908080601f016020809104026020016040519081016040528093929190818152602001838380828437600081840152601f19601f820116905080830192505050505050509192919290505050612d3a565b005b6112fb612e38565b6040518082815260200191505060405180910390f35b61146b6004803603606081101561132757600080fd5b81019080803590602001909291908035906020019064010000000081111561134e57600080fd5b82018360208201111561136057600080fd5b8035906020019184600183028401116401000000008311171561138257600080fd5b91908080601f016020809104026020016040519081016040528093929190818152602001838380828437600081840152601f19601f820116905080830192505050505050509192919290803590602001906401000000008111156113e557600080fd5b8201836020820111156113f757600080fd5b8035906020019184600183028401116401000000008311171561141957600080fd5b91908080601f016020809104026020016040519081016040528093929190818152602001838380828437600081840152601f19601f820116905080830192505050505050509192919290505050612f19565b005b6114af6004803603602081101561148357600080fd5b81019080803573ffffffffffffffffffffffffffffffffffffffff1690602001909291905050506130ed565b604051808773ffffffffffffffffffffffffffffffffffffffff1673ffffffffffffffffffffffffffffffffffffffff168152602001806020018060200180602001806020018615151515815260200185810385528a818151815260200191508051906020019080838360005b8381101561153757808201518184015260208101905061151c565b50505050905090810190601f1680156115645780820380516001836020036101000a031916815260200191505b50858103845289818151815260200191508051906020019080838360005b8381101561159d578082015181840152602081019050611582565b50505050905090810190601f1680156115ca5780820380516001836020036101000a031916815260200191505b50858103835288818151815260200191508051906020019080838360005b838110156116035780820151818401526020810190506115e8565b50505050905090810190601f1680156116305780820380516001836020036101000a031916815260200191505b50858103825287818151815260200191508051906020019080838360005b8381101561166957808201518184015260208101905061164e565b50505050905090810190601f1680156116965780820380516001836020036101000a031916815260200191505b509a505050505050505050505060405180910390f35b6116d8600480360360208110156116c257600080fd5b81019080803590602001909291905050506134c5565b604051808273ffffffffffffffffffffffffffffffffffffffff1673ffffffffffffffffffffffffffffffffffffffff16815260200191505060405180910390f35b6117f36004803603604081101561173057600080fd5b81019080803573ffffffffffffffffffffffffffffffffffffffff1690602001909291908035906020019064010000000081111561176d57600080fd5b82018360208201111561177f57600080fd5b803590602001918460018302840111640100000000831117156117a157600080fd5b91908080601f016020809104026020016040519081016040528093929190818152602001838380828437600081840152601f19601f8201169050808301925050505050505091929192905050506135c9565b005b7fd9491d9a8b6f9be10814b9a1d01c06052d9a61354c5b8c6d00c53e0839661362838383604051808473ffffffffffffffffffffffffffffffffffffffff1673ffffffffffffffffffffffffffffffffffffffff1681526020018060200180602001838103835285818151815260200191508051906020019080838360005b8381101561188f578082015181840152602081019050611874565b50505050905090810190601f1680156118bc5780820380516001836020036101000a031916815260200191505b50838103825284818151815260200191508051906020019080838360005b838110156118f55780820151818401526020810190506118da565b50505050905090810190601f1680156119225780820380516001836020036101000a031916815260200191505b509550505050505060405180910390a1505050565b600360009054906101000a900473ffffffffffffffffffffffffffffffffffffffff1673ffffffffffffffffffffffffffffffffffffffff16631e7dcb1883836040518363ffffffff1660e01b81526004018083815260200180602001828103825283818151815260200191508051906020019080838360005b838110156119cc5780820151818401526020810190506119b1565b50505050905090810190601f1680156119f95780820380516001836020036101000a031916815260200191505b509350505050600060405180830381600087803b158015611a1957600080fd5b505af1158015611a2d573d6000803e3d6000fd5b50505050611a3a82613ab9565b73ffffffffffffffffffffffffffffffffffffffff16634bd7d0816040518163ffffffff1660e01b8152600401600060405180830381600087803b158015611a8157600080fd5b505af1158015611a95573d6000803e3d6000fd5b505050505050565b600360009054906101000a900473ffffffffffffffffffffffffffffffffffffffff1673ffffffffffffffffffffffffffffffffffffffff16634243852383836040518363ffffffff1660e01b81526004018083815260200180602001828103825283818151815260200191508051906020019080838360005b83811015611b32578082015181840152602081019050611b17565b50505050905090810190601f168015611b5f5780820380516001836020036101000a031916815260200191505b509350505050600060405180830381600087803b158015611b7f57600080fd5b505af1158015611b93573d6000803e3d6000fd5b505050505050565b60008060009054906101000a900473ffffffffffffffffffffffffffffffffffffffff1673ffffffffffffffffffffffffffffffffffffffff1663bd02d0f5848460405160200180807f6c61622e6c6f636174696f6e0000000000000000000000000000000000000000815250600c0183805190602001908083835b60208310611c3a5780518252602082019150602081019050602083039250611c17565b6001836020036101000a03801982511681845116808217855250505050505090500182805190602001908083835b60208310611c8b5780518252602082019150602081019050602083039250611c68565b6001836020036101000a03801982511681845116808217855250505050505090500192505050604051602081830303815290604052805190602001206040518263ffffffff1660e01b81526004018082815260200191505060206040518083038186803b158015611cfb57600080fd5b505afa158015611d0f573d6000803e3d6000fd5b505050506040513d6020811015611d2557600080fd5b8101908080519060200190929190505050905092915050565b6060600360009054906101000a900473ffffffffffffffffffffffffffffffffffffffff1673ffffffffffffffffffffffffffffffffffffffff1663473aa2a5836040518263ffffffff1660e01b81526004018082815260200191505060006040518083038186803b158015611db357600080fd5b505afa158015611dc7573d6000803e3d6000fd5b505050506040513d6000823e3d601f19601f820116820180604052506020811015611df157600080fd5b8101908080516040519392919084640100000000821115611e1157600080fd5b83820191506020820185811115611e2757600080fd5b8251866001820283011164010000000082111715611e4457600080fd5b8083526020830192505050908051906020019080838360005b83811015611e78578082015181840152602081019050611e5d565b50505050905090810190601f168015611ea55780820380516001836020036101000a031916815260200191505b5060405250505050919050565b600360009054906101000a900473ffffffffffffffffffffffffffffffffffffffff1673ffffffffffffffffffffffffffffffffffffffff166354c7763a83836040518363ffffffff1660e01b81526004018083815260200180602001828103825283818151815260200191508051906020019080838360005b83811015611f47578082015181840152602081019050611f2c565b50505050905090810190601f168015611f745780820380516001836020036101000a031916815260200191505b509350505050600060405180830381600087803b158015611f9457600080fd5b505af1158015611fa8573d6000803e3d6000fd5b505050505050565b60008060009054906101000a900473ffffffffffffffffffffffffffffffffffffffff1673ffffffffffffffffffffffffffffffffffffffff1663a6ed563e3360405160200180807f53706563696d656e2e6c6173744e756d626572000000000000000000000000008152506013018273ffffffffffffffffffffffffffffffffffffffff1673ffffffffffffffffffffffffffffffffffffffff1660601b8152601401915050604051602081830303815290604052805190602001206040518263ffffffff1660e01b81526004018082815260200191505060206040518083038186803b1580156120a157600080fd5b505afa1580156120b5573d6000803e3d6000fd5b505050506040513d60208110156120cb57600080fd5b8101908080519060200190929190505050905090565b60608060606000606060006120f4613ad6565b73ffffffffffffffffffffffffffffffffffffffff1663905110d889896040518363ffffffff1660e01b8152600401808373ffffffffffffffffffffffffffffffffffffffff1673ffffffffffffffffffffffffffffffffffffffff1681526020018281526020019250505060006040518083038186803b15801561217857600080fd5b505afa15801561218c573d6000803e3d6000fd5b505050506040513d6000823e3d601f19601f8201168201806040525060c08110156121b657600080fd5b81019080805160405193929190846401000000008211156121d657600080fd5b838201915060208201858111156121ec57600080fd5b825186600182028301116401000000008211171561220957600080fd5b8083526020830192505050908051906020019080838360005b8381101561223d578082015181840152602081019050612222565b50505050905090810190601f16801561226a5780820380516001836020036101000a031916815260200191505b506040526020018051604051939291908464010000000082111561228d57600080fd5b838201915060208201858111156122a357600080fd5b82518660018202830111640100000000821117156122c057600080fd5b8083526020830192505050908051906020019080838360005b838110156122f45780820151818401526020810190506122d9565b50505050905090810190601f1680156123215780820380516001836020036101000a031916815260200191505b506040526020018051604051939291908464010000000082111561234457600080fd5b8382019150602082018581111561235a57600080fd5b825186600182028301116401000000008211171561237757600080fd5b8083526020830192505050908051906020019080838360005b838110156123ab578082015181840152602081019050612390565b50505050905090810190601f1680156123d85780820380516001836020036101000a031916815260200191505b50604052602001805190602001909291908051604051939291908464010000000082111561240557600080fd5b8382019150602082018581111561241b57600080fd5b825186600182028301116401000000008211171561243857600080fd5b8083526020830192505050908051906020019080838360005b8381101561246c578082015181840152602081019050612451565b50505050905090810190601f1680156124995780820380516001836020036101000a031916815260200191505b50604052602001805190602001909291905050509550955095509550955095509295509295509295565b60008060009054906101000a900473ffffffffffffffffffffffffffffffffffffffff1673ffffffffffffffffffffffffffffffffffffffff1663bd02d0f58360405160200180807f6c61622e736572766963652e636f756e740000000000000000000000000000008152506011018273ffffffffffffffffffffffffffffffffffffffff1673ffffffffffffffffffffffffffffffffffffffff1660601b8152601401915050604051602081830303815290604052805190602001206040518263ffffffff1660e01b81526004018082815260200191505060206040518083038186803b1580156125b457600080fd5b505afa1580156125c8573d6000803e3d6000fd5b505050506040513d60208110156125de57600080fd5b81019080805190602001909291905050509050919050565b6000809054906101000a900473ffffffffffffffffffffffffffffffffffffffff1681565b7f8ca5fb51ec76e0fba6b96a8e596d91cb678f7fef4fe4edb108915e409782107184848484604051808573ffffffffffffffffffffffffffffffffffffffff1673ffffffffffffffffffffffffffffffffffffffff168152602001806020018060200180602001848103845287818151815260200191508051906020019080838360005b838110156126ba57808201518184015260208101905061269f565b50505050905090810190601f1680156126e75780820380516001836020036101000a031916815260200191505b50848103835286818151815260200191508051906020019080838360005b83811015612720578082015181840152602081019050612705565b50505050905090810190601f16801561274d5780820380516001836020036101000a031916815260200191505b50848103825285818151815260200191508051906020019080838360005b8381101561278657808201518184015260208101905061276b565b50505050905090810190601f1680156127b35780820380516001836020036101000a031916815260200191505b5097505050505050505060405180910390a150505050565b60008060608060008060009054906101000a900473ffffffffffffffffffffffffffffffffffffffff1673ffffffffffffffffffffffffffffffffffffffff1663a6ed563e338860405160200180807f53706563696d656e0000000000000000000000000000000000000000000000008152506008018373ffffffffffffffffffffffffffffffffffffffff1673ffffffffffffffffffffffffffffffffffffffff1660601b815260140182815260200192505050604051602081830303815290604052805190602001206040518263ffffffff1660e01b81526004018082815260200191505060206040518083038186803b1580156128ca57600080fd5b505afa1580156128de573d6000803e3d6000fd5b505050506040513d60208110156128f457600080fd5b8101908080519060200190929190505050905061291081612920565b9450945094509450509193509193565b600080606080600360009054906101000a900473ffffffffffffffffffffffffffffffffffffffff1673ffffffffffffffffffffffffffffffffffffffff1663b1bc38f0866040518263ffffffff1660e01b81526004018082815260200191505060006040518083038186803b15801561299957600080fd5b505afa1580156129ad573d6000803e3d6000fd5b505050506040513d6000823e3d601f19601f8201168201806040525060808110156129d757600080fd5b81019080805190602001909291908051906020019092919080516040519392919084640100000000821115612a0b57600080fd5b83820191506020820185811115612a2157600080fd5b8251866001820283011164010000000082111715612a3e57600080fd5b8083526020830192505050908051906020019080838360005b83811015612a72578082015181840152602081019050612a57565b50505050905090810190601f168015612a9f5780820380516001836020036101000a031916815260200191505b5060405260200180516040519392919084640100000000821115612ac257600080fd5b83820191506020820185811115612ad857600080fd5b8251866001820283011164010000000082111715612af557600080fd5b8083526020830192505050908051906020019080838360005b83811015612b29578082015181840152602081019050612b0e565b50505050905090810190601f168015612b565780820380516001836020036101000a031916815260200191505b5060405250505093509350935093509193509193565b600060608060608060008060009054906101000a900473ffffffffffffffffffffffffffffffffffffffff1673ffffffffffffffffffffffffffffffffffffffff166321f8a7218a8a8a60405160200180807f6c61622e6c6f636174696f6e0000000000000000000000000000000000000000815250600c0184805190602001908083835b60208310612c145780518252602082019150602081019050602083039250612bf1565b6001836020036101000a03801982511681845116808217855250505050505090500183805190602001908083835b60208310612c655780518252602082019150602081019050602083039250612c42565b6001836020036101000a0380198251168184511680821785525050505050509050018281526020019350505050604051602081830303815290604052805190602001206040518263ffffffff1660e01b81526004018082815260200191505060206040518083038186803b158015612cdc57600080fd5b505afa158015612cf0573d6000803e3d6000fd5b505050506040513d6020811015612d0657600080fd5b81019080805190602001909291905050509550612d22866130ed565b95509550955095509550955093975093979195509350565b600360009054906101000a900473ffffffffffffffffffffffffffffffffffffffff1673ffffffffffffffffffffffffffffffffffffffff1663d06a9cb783836040518363ffffffff1660e01b81526004018083815260200180602001828103825283818151815260200191508051906020019080838360005b83811015612dcf578082015181840152602081019050612db4565b50505050905090810190601f168015612dfc5780820380516001836020036101000a031916815260200191505b509350505050600060405180830381600087803b158015612e1c57600080fd5b505af1158015612e30573d6000803e3d6000fd5b505050505050565b6000600360009054906101000a900473ffffffffffffffffffffffffffffffffffffffff1673ffffffffffffffffffffffffffffffffffffffff16635803d619336040518263ffffffff1660e01b8152600401808273ffffffffffffffffffffffffffffffffffffffff1673ffffffffffffffffffffffffffffffffffffffff16815260200191505060206040518083038186803b158015612ed957600080fd5b505afa158015612eed573d6000803e3d6000fd5b505050506040513d6020811015612f0357600080fd5b8101908080519060200190929190505050905090565b600360009054906101000a900473ffffffffffffffffffffffffffffffffffffffff1673ffffffffffffffffffffffffffffffffffffffff1663e77ebf468484846040518463ffffffff1660e01b8152600401808481526020018060200180602001838103835285818151815260200191508051906020019080838360005b83811015612fb3578082015181840152602081019050612f98565b50505050905090810190601f168015612fe05780820380516001836020036101000a031916815260200191505b50838103825284818151815260200191508051906020019080838360005b83811015613019578082015181840152602081019050612ffe565b50505050905090810190601f1680156130465780820380516001836020036101000a031916815260200191505b5095505050505050600060405180830381600087803b15801561306857600080fd5b505af115801561307c573d6000803e3d6000fd5b5050505061308983613ab9565b73ffffffffffffffffffffffffffffffffffffffff1663f49c845a6040518163ffffffff1660e01b8152600401600060405180830381600087803b1580156130d057600080fd5b505af11580156130e4573d6000803e3d6000fd5b50505050505050565b600060608060608060006130ff613ad6565b73ffffffffffffffffffffffffffffffffffffffff1663ed01c666886040518263ffffffff1660e01b8152600401808273ffffffffffffffffffffffffffffffffffffffff1673ffffffffffffffffffffffffffffffffffffffff16815260200191505060006040518083038186803b15801561317b57600080fd5b505afa15801561318f573d6000803e3d6000fd5b505050506040513d6000823e3d601f19601f8201168201806040525060c08110156131b957600080fd5b8101908080519060200190929190805160405193929190846401000000008211156131e357600080fd5b838201915060208201858111156131f957600080fd5b825186600182028301116401000000008211171561321657600080fd5b8083526020830192505050908051906020019080838360005b8381101561324a57808201518184015260208101905061322f565b50505050905090810190601f1680156132775780820380516001836020036101000a031916815260200191505b506040526020018051604051939291908464010000000082111561329a57600080fd5b838201915060208201858111156132b057600080fd5b82518660018202830111640100000000821117156132cd57600080fd5b8083526020830192505050908051906020019080838360005b838110156133015780820151818401526020810190506132e6565b50505050905090810190601f16801561332e5780820380516001836020036101000a031916815260200191505b506040526020018051604051939291908464010000000082111561335157600080fd5b8382019150602082018581111561336757600080fd5b825186600182028301116401000000008211171561338457600080fd5b8083526020830192505050908051906020019080838360005b838110156133b857808201518184015260208101905061339d565b50505050905090810190601f1680156133e55780820380516001836020036101000a031916815260200191505b506040526020018051604051939291908464010000000082111561340857600080fd5b8382019150602082018581111561341e57600080fd5b825186600182028301116401000000008211171561343b57600080fd5b8083526020830192505050908051906020019080838360005b8381101561346f578082015181840152602081019050613454565b50505050905090810190601f16801561349c5780820380516001836020036101000a031916815260200191505b506040526020018051906020019092919050505095509550955095509550955091939550919395565b60008060009054906101000a900473ffffffffffffffffffffffffffffffffffffffff1673ffffffffffffffffffffffffffffffffffffffff166321f8a7218360405160200180807f53706563696d656e2e657363726f770000000000000000000000000000000000815250600f01828152602001915050604051602081830303815290604052805190602001206040518263ffffffff1660e01b81526004018082815260200191505060206040518083038186803b15801561358757600080fd5b505afa15801561359b573d6000803e3d6000fd5b505050506040513d60208110156135b157600080fd5b81019080805190602001909291905050509050919050565b6000600360009054906101000a900473ffffffffffffffffffffffffffffffffffffffff1673ffffffffffffffffffffffffffffffffffffffff1663a250156c3385856040518463ffffffff1660e01b8152600401808473ffffffffffffffffffffffffffffffffffffffff1673ffffffffffffffffffffffffffffffffffffffff1681526020018373ffffffffffffffffffffffffffffffffffffffff1673ffffffffffffffffffffffffffffffffffffffff16815260200180602001828103825283818151815260200191508051906020019080838360005b838110156136bf5780820151818401526020810190506136a4565b50505050905090810190601f1680156136ec5780820380516001836020036101000a031916815260200191505b50945050505050602060405180830381600087803b15801561370d57600080fd5b505af1158015613721573d6000803e3d6000fd5b505050506040513d602081101561373757600080fd5b8101908080519060200190929190505050905060006138d333856000809054906101000a900473ffffffffffffffffffffffffffffffffffffffff1673ffffffffffffffffffffffffffffffffffffffff1663bd02d0f5888860405160200180807f6c61622e736572766963652e70726963650000000000000000000000000000008152506011018373ffffffffffffffffffffffffffffffffffffffff1673ffffffffffffffffffffffffffffffffffffffff1660601b815260140182805190602001908083835b602083106138235780518252602082019150602081019050602083039250613800565b6001836020036101000a03801982511681845116808217855250505050505090500192505050604051602081830303815290604052805190602001206040518263ffffffff1660e01b81526004018082815260200191505060206040518083038186803b15801561389357600080fd5b505afa1580156138a7573d6000803e3d6000fd5b505050506040513d60208110156138bd57600080fd5b8101908080519060200190929190505050613bfd565b90506000809054906101000a900473ffffffffffffffffffffffffffffffffffffffff1673ffffffffffffffffffffffffffffffffffffffff1663ca446dd98360405160200180807f53706563696d656e2e657363726f770000000000000000000000000000000000815250600f0182815260200191505060405160208183030381529060405280519060200120836040518363ffffffff1660e01b8152600401808381526020018273ffffffffffffffffffffffffffffffffffffffff1673ffffffffffffffffffffffffffffffffffffffff16815260200192505050600060405180830381600087803b1580156139cb57600080fd5b505af11580156139df573d6000803e3d6000fd5b505050507f6f51c966b226abb2a973172a0489909f6e0729ae419cda220fb82e9bab7d43ca8484604051808373ffffffffffffffffffffffffffffffffffffffff1673ffffffffffffffffffffffffffffffffffffffff16815260200180602001828103825283818151815260200191508051906020019080838360005b83811015613a78578082015181840152602081019050613a5d565b50505050905090810190601f168015613aa55780820380516001836020036101000a031916815260200191505b50935050505060405180910390a150505050565b600080613ac5836134c5565b905060008190508092505050919050565b6000806000809054906101000a900473ffffffffffffffffffffffffffffffffffffffff1673ffffffffffffffffffffffffffffffffffffffff166321f8a72160405160200180807f636f6e74726163742e6164647265737300000000000000000000000000000000815250601001807f4c616200000000000000000000000000000000000000000000000000000000008152506003019050604051602081830303815290604052805190602001206040518263ffffffff1660e01b81526004018082815260200191505060206040518083038186803b158015613bb957600080fd5b505afa158015613bcd573d6000803e3d6000fd5b505050506040513d6020811015613be357600080fd5b810190808051906020019092919050505090508091505090565b6000806000809054906101000a900473ffffffffffffffffffffffffffffffffffffffff1673ffffffffffffffffffffffffffffffffffffffff166321f8a72160405160200180807f636f6e74726163742e6164647265737300000000000000000000000000000000815250601001807f457363726f77466163746f727900000000000000000000000000000000000000815250600d019050604051602081830303815290604052805190602001206040518263ffffffff1660e01b81526004018082815260200191505060206040518083038186803b158015613ce057600080fd5b505afa158015613cf4573d6000803e3d6000fd5b505050506040513d6020811015613d0a57600080fd5b81019080805190602001909291905050509050600073ffffffffffffffffffffffffffffffffffffffff168173ffffffffffffffffffffffffffffffffffffffff1614613e555760008190508073ffffffffffffffffffffffffffffffffffffffff1663c36176508787876040518463ffffffff1660e01b8152600401808473ffffffffffffffffffffffffffffffffffffffff1673ffffffffffffffffffffffffffffffffffffffff1681526020018373ffffffffffffffffffffffffffffffffffffffff1673ffffffffffffffffffffffffffffffffffffffff1681526020018281526020019350505050602060405180830381600087803b158015613e1157600080fd5b505af1158015613e25573d6000803e3d6000fd5b505050506040513d6020811015613e3b57600080fd5b810190808051906020019092919050505092505050613e57565b505b939250505056fea265627a7a723158209f50e424066216b33b969b5fd3ed886d1b9da27b03dd1d0cfc040f76005e145664736f6c63430005100032",
  "source": "pragma solidity ^0.5.16;\r\n\r\n\r\nimport \"./common/Base.sol\";\r\nimport \"./common/SafeMath.sol\";\r\nimport \"./common/Address.sol\";\r\n\r\nimport \"./Account.sol\";\r\nimport \"./Specimen.sol\";\r\nimport \"./Location.sol\";\r\nimport \"./EscrowFactory.sol\";\r\nimport \"./Escrow.sol\";\r\nimport \"./Lab.sol\";\r\n\r\ncontract Degenics is Base {\r\n\r\n    Location location;\r\n    Account account;\r\n    Specimen specimen;\r\n\r\n\r\n    event NewLab(address account, string name, string country, string city);\r\n    event NewService(address labAccount, string name, string service);\r\n    event NewSpecimen(address labAccount, string Code);\r\n\r\n    \r\n    constructor(address _storage, address _account, address _specimen, address _location ) public Base(_storage) {\r\n        location = Location(_location);\r\n        account = Account(_account);\r\n        specimen = Specimen(_specimen);\r\n    }\r\n\r\n    \r\n\r\n    function labCount(string memory country, string memory city) public view returns(uint){\r\n        return  eternalStorage.getUint(keccak256(abi.encodePacked(\"lab.location\",country, city)));\r\n    }\r\n\r\n    function labByIndex(string memory _country, string memory _city, uint index) public view \r\n        returns(address labAccount, string memory name, string memory country, string memory city, \r\n        string memory additionalData, bool active){\r\n        \r\n        labAccount = eternalStorage.getAddress(keccak256(abi.encodePacked(\"lab.location\", _country,_city, index)));\r\n        return labByAccount(labAccount);\r\n    }\r\n\r\n    function labByAccount(address _account) public view \r\n        returns(address labAccount, string memory name, string memory country, string memory city,\r\n        string memory additionalData, bool active){\r\n        \r\n        return getLabInstance().labByAccount(_account);\r\n    }\r\n\r\n    function serviceCount(address labAccount) public view returns(uint){\r\n        return eternalStorage.getUint(keccak256(abi.encodePacked(\"lab.service.count\", labAccount)));\r\n    }\r\n\r\n    \r\n    function serviceByIndex(address labAccount, uint index) public view \r\n    returns(string memory code, string memory serviceName, string memory description, uint price, string memory additionalData, \r\n    bool active){\r\n        \r\n        return getLabInstance().serviceByIndex(labAccount, index);\r\n    }\r\n\r\n    function registerSpecimen(address labAccount, string memory serviceCode) public {\r\n        \r\n        bytes32 number = specimen.registerSpecimen(msg.sender, labAccount, serviceCode);\r\n        address escrow = createEscrow(msg.sender, labAccount, eternalStorage.getUint(keccak256(abi.encodePacked(\"lab.service.price\", labAccount, serviceCode))));\r\n\r\n        eternalStorage.setAddress(keccak256(abi.encodePacked(\"Specimen.escrow\", number)),  escrow); \r\n        emit NewSpecimen(labAccount, serviceCode);\r\n    }\r\n\r\n    function getLastNumber() public view returns(bytes32){\r\n        return eternalStorage.getBytes32(keccak256(abi.encodePacked(\"Specimen.lastNumber\",msg.sender)));\r\n    }\r\n\r\n    function specimenCount() public view returns(uint){\r\n        return specimen.specimenCount(msg.sender);\r\n    }\r\n\r\n    function specimenByNumber(bytes32 number) public view returns(\r\n        address owner, address labAccount, string memory serviceCode, string memory status){  \r\n        return specimen.specimenByNumber(number) ;\r\n    }\r\n\r\n    function specimenByIndex(uint index) public view returns(\r\n        address owner, address labAccount, string memory serviceCode, string memory status){        \r\n        bytes32 number =  eternalStorage.getBytes32(keccak256(abi.encodePacked(\"Specimen\",msg.sender, index )));   \r\n        return specimenByNumber(number);\r\n    }\r\n\r\n    function getEscrow(bytes32  number) public view returns(address){\r\n        return eternalStorage.getAddress(keccak256(abi.encodePacked(\"Specimen.escrow\", number))); \r\n    }\r\n\r\n    function sendSpecimen(bytes32  number, string memory remark) public {        \r\n        specimen.sendSpecimen(number, remark);\r\n    }\r\n\r\n    function receiveSpecimen(bytes32  number, string memory remark) public {\r\n        specimen.receiveSpecimen(number, remark);\r\n    }\r\n\r\n    function rejectSpecimen(bytes32  number, string memory remark) public {\r\n        specimen.rejectSpecimen(number, remark);\r\n    }\r\n\r\n    function analysisSucces(bytes32  number, string memory file, string memory remark) public {\r\n        specimen.analysisSucces(number, file, remark);\r\n        getEscrowInstance(number).forwardToSeller();\r\n    }\r\n\r\n    function getFile(bytes32 number) public view returns(string memory file){\r\n        specimen.getFile(number);\r\n    }\r\n\r\n    function analysisFail(bytes32  number, string memory remark) public {\r\n        specimen.analysisFail(number, remark);\r\n        getEscrowInstance(number).refundToBuyer();\r\n    }\r\n\r\n    function escrowBalance(bytes32 number) internal view returns(uint){\r\n        address escrow = eternalStorage.getAddress(keccak256(abi.encodePacked(\"Specimen.escrow\", number)));\r\n        return escrow.balance;\r\n    }\r\n\r\n    function createEscrow(address buyer, address seller, uint amount) internal returns(address){\r\n       address _address = eternalStorage.getAddress(keccak256(abi.encodePacked(\"contract.address\", \"EscrowFactory\")));\r\n       if(_address != address(0)){\r\n           EscrowFactory ef = EscrowFactory(_address);\r\n           return ef.createEscrow(buyer, seller, amount);\r\n       }\r\n    }\r\n\r\n    function emitNewLab(address _account, string memory name, string memory country, string memory city)public {\r\n        emit NewLab(_account, name, country, city);\r\n    }\r\n\r\n    function emitNewService(address labAccount, string memory name, string memory service)public {\r\n        emit NewService(labAccount, name, service);\r\n    }\r\n\r\n    function getEscrowInstance(bytes32 number) internal returns(Escrow){\r\n        address payable escrowWallet = address(uint160(getEscrow(number)));\r\n        Escrow instance = Escrow(escrowWallet);\r\n        return instance;\r\n    }\r\n\r\n    function getLabInstance()internal view returns (Lab){\r\n        Lab lab = Lab(eternalStorage.getAddress(keccak256(abi.encodePacked(\"contract.address\", \"Lab\"))));\r\n        return lab;\r\n    }\r\n\r\n\r\n}\r\n\r\n//host guitar cool sick provide magic enhance attend faith woman method episode",
  "sourcePath": "D:\\projects\\degenics\\degenics-smart-contract\\contracts\\Degenics.sol",
  "compiler": {
    "name": "solc",
    "version": "0.5.16+commit.9c3226ce.Emscripten.clang"
  },
  "schemaVersion": "3.0.23",
  "updatedAt": "2020-12-31T21:10:15.587Z",
  "networkType": "ethereum",
  "devdoc": {
    "methods": {}
  },
  "userdoc": {
    "methods": {}
  }
}