{
  "contractName": "Escrow",
  "abi": [
    {
      "inputs": [
        {
          "internalType": "address",
          "name": "_owner",
          "type": "address"
        },
        {
          "internalType": "address",
          "name": "_degenics",
          "type": "address"
        },
        {
          "internalType": "address",
          "name": "_buyer",
          "type": "address"
        },
        {
          "internalType": "address",
          "name": "_seller",
          "type": "address"
        },
        {
          "internalType": "uint256",
          "name": "_amount",
          "type": "uint256"
        }
      ],
      "payable": false,
      "stateMutability": "nonpayable",
      "type": "constructor"
    },
    {
      "payable": true,
      "stateMutability": "payable",
      "type": "fallback"
    },
    {
      "constant": false,
      "inputs": [],
      "name": "forwardToSeller",
      "outputs": [],
      "payable": false,
      "stateMutability": "nonpayable",
      "type": "function"
    },
    {
      "constant": false,
      "inputs": [],
      "name": "refundToBuyer",
      "outputs": [],
      "payable": false,
      "stateMutability": "nonpayable",
      "type": "function"
    }
  ],
  "bytecode": "0x608060405234801561001057600080fd5b50604051610704380380610704833981810160405260a081101561003357600080fd5b810190808051906020019092919080519060200190929190805190602001909291908051906020019092919080519060200190929190505050846000806101000a81548173ffffffffffffffffffffffffffffffffffffffff021916908373ffffffffffffffffffffffffffffffffffffffff16021790555082600160006101000a81548173ffffffffffffffffffffffffffffffffffffffff021916908373ffffffffffffffffffffffffffffffffffffffff16021790555081600260006101000a81548173ffffffffffffffffffffffffffffffffffffffff021916908373ffffffffffffffffffffffffffffffffffffffff1602179055508060058190555033600360006101000a81548173ffffffffffffffffffffffffffffffffffffffff021916908373ffffffffffffffffffffffffffffffffffffffff16021790555083600460006101000a81548173ffffffffffffffffffffffffffffffffffffffff021916908373ffffffffffffffffffffffffffffffffffffffff1602179055506040518060400160405280600481526020017f486f6c64000000000000000000000000000000000000000000000000000000008152506006908051906020019061020292919061020d565b5050505050506102b2565b828054600181600116156101000203166002900490600052602060002090601f016020900481019282601f1061024e57805160ff191683800117855561027c565b8280016001018555821561027c579182015b8281111561027b578251825591602001919060010190610260565b5b509050610289919061028d565b5090565b6102af91905b808211156102ab576000816000905550600101610293565b5090565b90565b610443806102c16000396000f3fe6080604052600436106100295760003560e01c80634bd7d0811461002b578063f49c845a14610042575b005b34801561003757600080fd5b50610040610059565b005b34801561004e57600080fd5b5061005761020b565b005b600360009054906101000a900473ffffffffffffffffffffffffffffffffffffffff1673ffffffffffffffffffffffffffffffffffffffff163373ffffffffffffffffffffffffffffffffffffffff16148061010157506000809054906101000a900473ffffffffffffffffffffffffffffffffffffffff1673ffffffffffffffffffffffffffffffffffffffff163273ffffffffffffffffffffffffffffffffffffffff16145b806101595750600460009054906101000a900473ffffffffffffffffffffffffffffffffffffffff1673ffffffffffffffffffffffffffffffffffffffff163373ffffffffffffffffffffffffffffffffffffffff16145b6101cb576040517f08c379a00000000000000000000000000000000000000000000000000000000081526004018080602001828103825260158152602001807f4f6e6c792063726561746f72206f72206f776e6572000000000000000000000081525060200191505060405180910390fd5b6000600160009054906101000a900473ffffffffffffffffffffffffffffffffffffffff1690508073ffffffffffffffffffffffffffffffffffffffff16ff5b600360009054906101000a900473ffffffffffffffffffffffffffffffffffffffff1673ffffffffffffffffffffffffffffffffffffffff163373ffffffffffffffffffffffffffffffffffffffff1614806102b357506000809054906101000a900473ffffffffffffffffffffffffffffffffffffffff1673ffffffffffffffffffffffffffffffffffffffff163273ffffffffffffffffffffffffffffffffffffffff16145b8061030b5750600460009054906101000a900473ffffffffffffffffffffffffffffffffffffffff1673ffffffffffffffffffffffffffffffffffffffff163373ffffffffffffffffffffffffffffffffffffffff16145b61037d576040517f08c379a00000000000000000000000000000000000000000000000000000000081526004018080602001828103825260158152602001807f4f6e6c792063726561746f72206f72206f776e6572000000000000000000000081525060200191505060405180910390fd5b6000600260009054906101000a900473ffffffffffffffffffffffffffffffffffffffff1690508073ffffffffffffffffffffffffffffffffffffffff16ff5b828111156103d85782518255916020019190600101906103bd565b5090506103e591906103e9565b5090565b61040b91905b808211156104075760008160009055506001016103ef565b5090565b9056fea265627a7a7231582046077d2d7efa3c31b05fd003222cb9283759ef0bf17f9381ca47ceb5d771e95764736f6c63430005100032",
  "source": "pragma solidity ^0.5.16;\r\n\r\n\r\ncontract Escrow {\r\n\r\n    address owner;\r\n    address buyer;\r\n    address seller;\r\n    address creator;\r\n    address degenics;\r\n    uint amount;\r\n\r\n    string status; \r\n\r\n    modifier canExecute(){\r\n        require(msg.sender == creator || tx.origin == owner || msg.sender == degenics, \"Only creator or owner\");\r\n        _;\r\n    }\r\n\r\n    constructor(address _owner, address _degenics, address  _buyer, address  _seller, uint _amount) public {        \r\n        owner = _owner;\r\n        buyer = _buyer;\r\n        seller = _seller;\r\n        amount = _amount;\r\n        creator = msg.sender;\r\n        degenics = _degenics;\r\n        status = \"Hold\";\r\n    }\r\n\r\n    function() external payable {}\r\n\r\n    function forwardToSeller() public canExecute  {\r\n        // require(tx.origin == seller, \"Only seller\");\r\n        address payable _seller = address(uint160(seller));\r\n        // _seller.transfer(address(this).balance);\r\n        selfdestruct(_seller);\r\n        status = \"Forward\";\r\n    }\r\n\r\n    function refundToBuyer()public canExecute{\r\n        // require(tx.origin == seller, \"Only seller\");\r\n        address payable _buyer = address(uint160(buyer));\r\n        // _buyer.transfer(address(this).balance);\r\n        selfdestruct(_buyer);\r\n        status = \"Refund\";\r\n    }\r\n\r\n\r\n}",
  "sourcePath": "D:\\projects\\degenics\\degenics-smart-contract\\contracts\\Escrow.sol",
  "compiler": {
    "name": "solc",
    "version": "0.5.16+commit.9c3226ce.Emscripten.clang"
  },
  "schemaVersion": "3.0.23",
  "updatedAt": "2020-12-31T21:09:54.404Z",
  "devdoc": {
    "methods": {}
  },
  "userdoc": {
    "methods": {}
  }
}