{
  "contractName": "EternalStorage",
  "abi": [
    {
      "inputs": [],
      "payable": false,
      "stateMutability": "nonpayable",
      "type": "constructor"
    },
    {
      "constant": true,
      "inputs": [
        {
          "internalType": "bytes32",
          "name": "_key",
          "type": "bytes32"
        }
      ],
      "name": "getAddress",
      "outputs": [
        {
          "internalType": "address",
          "name": "",
          "type": "address"
        }
      ],
      "payable": false,
      "stateMutability": "view",
      "type": "function"
    },
    {
      "constant": true,
      "inputs": [
        {
          "internalType": "bytes32",
          "name": "_key",
          "type": "bytes32"
        }
      ],
      "name": "getUint",
      "outputs": [
        {
          "internalType": "uint256",
          "name": "",
          "type": "uint256"
        }
      ],
      "payable": false,
      "stateMutability": "view",
      "type": "function"
    },
    {
      "constant": true,
      "inputs": [
        {
          "internalType": "bytes32",
          "name": "_key",
          "type": "bytes32"
        }
      ],
      "name": "getString",
      "outputs": [
        {
          "internalType": "string",
          "name": "",
          "type": "string"
        }
      ],
      "payable": false,
      "stateMutability": "view",
      "type": "function"
    },
    {
      "constant": true,
      "inputs": [
        {
          "internalType": "bytes32",
          "name": "_key",
          "type": "bytes32"
        }
      ],
      "name": "getBytes",
      "outputs": [
        {
          "internalType": "bytes",
          "name": "",
          "type": "bytes"
        }
      ],
      "payable": false,
      "stateMutability": "view",
      "type": "function"
    },
    {
      "constant": true,
      "inputs": [
        {
          "internalType": "bytes32",
          "name": "_key",
          "type": "bytes32"
        }
      ],
      "name": "getBytes32",
      "outputs": [
        {
          "internalType": "bytes32",
          "name": "",
          "type": "bytes32"
        }
      ],
      "payable": false,
      "stateMutability": "view",
      "type": "function"
    },
    {
      "constant": true,
      "inputs": [
        {
          "internalType": "bytes32",
          "name": "_key",
          "type": "bytes32"
        }
      ],
      "name": "getBool",
      "outputs": [
        {
          "internalType": "bool",
          "name": "",
          "type": "bool"
        }
      ],
      "payable": false,
      "stateMutability": "view",
      "type": "function"
    },
    {
      "constant": true,
      "inputs": [
        {
          "internalType": "bytes32",
          "name": "_key",
          "type": "bytes32"
        }
      ],
      "name": "getInt",
      "outputs": [
        {
          "internalType": "int256",
          "name": "",
          "type": "int256"
        }
      ],
      "payable": false,
      "stateMutability": "view",
      "type": "function"
    },
    {
      "constant": true,
      "inputs": [
        {
          "internalType": "bytes32",
          "name": "_key",
          "type": "bytes32"
        }
      ],
      "name": "getInt8Array",
      "outputs": [
        {
          "internalType": "uint8[100]",
          "name": "",
          "type": "uint8[100]"
        }
      ],
      "payable": false,
      "stateMutability": "view",
      "type": "function"
    },
    {
      "constant": false,
      "inputs": [
        {
          "internalType": "bytes32",
          "name": "_key",
          "type": "bytes32"
        },
        {
          "internalType": "address",
          "name": "_value",
          "type": "address"
        }
      ],
      "name": "setAddress",
      "outputs": [],
      "payable": false,
      "stateMutability": "nonpayable",
      "type": "function"
    },
    {
      "constant": false,
      "inputs": [
        {
          "internalType": "bytes32",
          "name": "_key",
          "type": "bytes32"
        },
        {
          "internalType": "uint256",
          "name": "_value",
          "type": "uint256"
        }
      ],
      "name": "setUint",
      "outputs": [],
      "payable": false,
      "stateMutability": "nonpayable",
      "type": "function"
    },
    {
      "constant": false,
      "inputs": [
        {
          "internalType": "bytes32",
          "name": "_key",
          "type": "bytes32"
        },
        {
          "internalType": "string",
          "name": "_value",
          "type": "string"
        }
      ],
      "name": "setString",
      "outputs": [],
      "payable": false,
      "stateMutability": "nonpayable",
      "type": "function"
    },
    {
      "constant": false,
      "inputs": [
        {
          "internalType": "bytes32",
          "name": "_key",
          "type": "bytes32"
        },
        {
          "internalType": "bytes",
          "name": "_value",
          "type": "bytes"
        }
      ],
      "name": "setBytes",
      "outputs": [],
      "payable": false,
      "stateMutability": "nonpayable",
      "type": "function"
    },
    {
      "constant": false,
      "inputs": [
        {
          "internalType": "bytes32",
          "name": "_key",
          "type": "bytes32"
        },
        {
          "internalType": "bytes32",
          "name": "_value",
          "type": "bytes32"
        }
      ],
      "name": "setBytes32",
      "outputs": [],
      "payable": false,
      "stateMutability": "nonpayable",
      "type": "function"
    },
    {
      "constant": false,
      "inputs": [
        {
          "internalType": "bytes32",
          "name": "_key",
          "type": "bytes32"
        },
        {
          "internalType": "bool",
          "name": "_value",
          "type": "bool"
        }
      ],
      "name": "setBool",
      "outputs": [],
      "payable": false,
      "stateMutability": "nonpayable",
      "type": "function"
    },
    {
      "constant": false,
      "inputs": [
        {
          "internalType": "bytes32",
          "name": "_key",
          "type": "bytes32"
        },
        {
          "internalType": "int256",
          "name": "_value",
          "type": "int256"
        }
      ],
      "name": "setInt",
      "outputs": [],
      "payable": false,
      "stateMutability": "nonpayable",
      "type": "function"
    },
    {
      "constant": false,
      "inputs": [
        {
          "internalType": "bytes32",
          "name": "_key",
          "type": "bytes32"
        },
        {
          "internalType": "uint8[100]",
          "name": "_values",
          "type": "uint8[100]"
        }
      ],
      "name": "setInt8Array",
      "outputs": [],
      "payable": false,
      "stateMutability": "nonpayable",
      "type": "function"
    },
    {
      "constant": false,
      "inputs": [
        {
          "internalType": "bytes32",
          "name": "_key",
          "type": "bytes32"
        }
      ],
      "name": "deleteAddress",
      "outputs": [],
      "payable": false,
      "stateMutability": "nonpayable",
      "type": "function"
    },
    {
      "constant": false,
      "inputs": [
        {
          "internalType": "bytes32",
          "name": "_key",
          "type": "bytes32"
        }
      ],
      "name": "deleteUint",
      "outputs": [],
      "payable": false,
      "stateMutability": "nonpayable",
      "type": "function"
    },
    {
      "constant": false,
      "inputs": [
        {
          "internalType": "bytes32",
          "name": "_key",
          "type": "bytes32"
        }
      ],
      "name": "deleteString",
      "outputs": [],
      "payable": false,
      "stateMutability": "nonpayable",
      "type": "function"
    },
    {
      "constant": false,
      "inputs": [
        {
          "internalType": "bytes32",
          "name": "_key",
          "type": "bytes32"
        }
      ],
      "name": "deleteBytes",
      "outputs": [],
      "payable": false,
      "stateMutability": "nonpayable",
      "type": "function"
    },
    {
      "constant": false,
      "inputs": [
        {
          "internalType": "bytes32",
          "name": "_key",
          "type": "bytes32"
        }
      ],
      "name": "deleteBytes32",
      "outputs": [],
      "payable": false,
      "stateMutability": "nonpayable",
      "type": "function"
    },
    {
      "constant": false,
      "inputs": [
        {
          "internalType": "bytes32",
          "name": "_key",
          "type": "bytes32"
        }
      ],
      "name": "deleteBool",
      "outputs": [],
      "payable": false,
      "stateMutability": "nonpayable",
      "type": "function"
    },
    {
      "constant": false,
      "inputs": [
        {
          "internalType": "bytes32",
          "name": "_key",
          "type": "bytes32"
        }
      ],
      "name": "deleteInt",
      "outputs": [],
      "payable": false,
      "stateMutability": "nonpayable",
      "type": "function"
    },
    {
      "constant": false,
      "inputs": [
        {
          "internalType": "bytes32",
          "name": "_key",
          "type": "bytes32"
        }
      ],
      "name": "deleteInt8Array",
      "outputs": [],
      "payable": false,
      "stateMutability": "nonpayable",
      "type": "function"
    },
    {
      "constant": false,
      "inputs": [
        {
          "internalType": "bytes32",
          "name": "_key",
          "type": "bytes32"
        },
        {
          "internalType": "uint256",
          "name": "_value",
          "type": "uint256"
        }
      ],
      "name": "addUint",
      "outputs": [
        {
          "internalType": "uint256",
          "name": "",
          "type": "uint256"
        }
      ],
      "payable": false,
      "stateMutability": "nonpayable",
      "type": "function"
    },
    {
      "constant": false,
      "inputs": [
        {
          "internalType": "bytes32",
          "name": "_key",
          "type": "bytes32"
        },
        {
          "internalType": "uint256",
          "name": "_value",
          "type": "uint256"
        }
      ],
      "name": "subUint",
      "outputs": [
        {
          "internalType": "uint256",
          "name": "",
          "type": "uint256"
        }
      ],
      "payable": false,
      "stateMutability": "nonpayable",
      "type": "function"
    },
    {
      "constant": false,
      "inputs": [
        {
          "internalType": "string",
          "name": "_name",
          "type": "string"
        },
        {
          "internalType": "address",
          "name": "_address",
          "type": "address"
        }
      ],
      "name": "registryContract",
      "outputs": [],
      "payable": false,
      "stateMutability": "nonpayable",
      "type": "function"
    },
    {
      "constant": false,
      "inputs": [
        {
          "internalType": "address",
          "name": "_newOwner",
          "type": "address"
        }
      ],
      "name": "changeOwner",
      "outputs": [],
      "payable": false,
      "stateMutability": "nonpayable",
      "type": "function"
    },
    {
      "constant": false,
      "inputs": [],
      "name": "finishInit",
      "outputs": [],
      "payable": false,
      "stateMutability": "nonpayable",
      "type": "function"
    }
  ],
  "bytecode": "0x60806040523480156200001157600080fd5b506001600360003360405160200180807f6163636573732e726f6c65000000000000000000000000000000000000000000815250600b01807f6f776e65720000000000000000000000000000000000000000000000000000008152506005018273ffffffffffffffffffffffffffffffffffffffff1673ffffffffffffffffffffffffffffffffffffffff1660601b815260140191505060405160208183030381529060405280519060200120815260200190815260200160002060006101000a81548160ff0219169083151502179055506001600360003360405160200180807f6163636f756e74000000000000000000000000000000000000000000000000008152506007018273ffffffffffffffffffffffffffffffffffffffff1673ffffffffffffffffffffffffffffffffffffffff1660601b815260140191505060405160208183030381529060405280519060200120815260200190815260200160002060006101000a81548160ff021916908315150217905550600060019050806005600060405160200180807f557365722e696e64657800000000000000000000000000000000000000000000815250600a0190506040516020818303038152906040528051906020012081526020019081526020016000208190555033600160008360405160200180807f557365722e616464726573730000000000000000000000000000000000000000815250600c0182815260200191505060405160208183030381529060405280519060200120815260200190815260200160002060006101000a81548173ffffffffffffffffffffffffffffffffffffffff021916908373ffffffffffffffffffffffffffffffffffffffff16021790555080600560003360405160200180807f557365722e696e64657800000000000000000000000000000000000000000000815250600a018273ffffffffffffffffffffffffffffffffffffffff1673ffffffffffffffffffffffffffffffffffffffff1660601b8152601401915050604051602081830303815290604052805190602001208152602001908152602001600020819055506040518060400160405280600581526020017f6f776e65720000000000000000000000000000000000000000000000000000008152506000803360405160200180807f557365722e726f6c6500000000000000000000000000000000000000000000008152506009018273ffffffffffffffffffffffffffffffffffffffff1673ffffffffffffffffffffffffffffffffffffffff1660601b81526014019150506040516020818303038152906040528051906020012081526020019081526020016000209080519060200190620003ff9291906200049f565b50336001600060405160200180807f6f776e6572000000000000000000000000000000000000000000000000000000815250600501905060405160208183030381529060405280519060200120815260200190815260200160002060006101000a81548173ffffffffffffffffffffffffffffffffffffffff021916908373ffffffffffffffffffffffffffffffffffffffff160217905550506200054e565b828054600181600116156101000203166002900490600052602060002090601f016020900481019282601f10620004e257805160ff191683800117855562000513565b8280016001018555821562000513579182015b8281111562000512578251825591602001919060010190620004f5565b5b50905062000522919062000526565b5090565b6200054b91905b80821115620005475760008160009055506001016200052d565b5090565b90565b61553d806200055e6000396000f3fe608060405234801561001057600080fd5b50600436106101cf5760003560e01c8063986e791a11610104578063c031a180116100a2578063e2b202bf11610071578063e2b202bf14610983578063ebb9d8c9146109b1578063f6bb3cc4146109fd578063f8d8b64214610a2b576101cf565b8063c031a18014610814578063ca446dd9146108bb578063dc97d96214610909578063e2a4853a1461094b576101cf565b8063a6f9dae1116100de578063a6f9dae114610708578063abfdcced1461074c578063adb353dc14610786578063bd02d0f5146107d2576101cf565b8063986e791a14610615578063a58277e4146106bc578063a6ed563e146106c6576101cf565b80633702220a11610171578063616b59f61161014b578063616b59f6146104f05780636e8995501461051e5780637ae1cfca146105a15780638c160095146105e7576101cf565b80633702220a146104525780633e49bed0146104805780634e91db08146104b8576101cf565b806321f8a721116101ad57806321f8a721146102c95780632c62ff2d146103375780632e28d08414610365578063308dcbd6146103e8576101cf565b80630a7c0ad8146101d45780630b9adc571461026d5780630e14a3761461029b575b600080fd5b61026b600480360360408110156101ea57600080fd5b810190808035906020019064010000000081111561020757600080fd5b82018360208201111561021957600080fd5b8035906020019184600183028401116401000000008311171561023b57600080fd5b9091929391929390803573ffffffffffffffffffffffffffffffffffffffff169060200190929190505050610a65565b005b6102996004803603602081101561028357600080fd5b8101908080359060200190929190505050611033565b005b6102c7600480360360208110156102b157600080fd5b8101908080359060200190929190505050611334565b005b6102f5600480360360208110156102df57600080fd5b8101908080359060200190929190505050611654565b604051808273ffffffffffffffffffffffffffffffffffffffff1673ffffffffffffffffffffffffffffffffffffffff16815260200191505060405180910390f35b6103636004803603602081101561034d57600080fd5b8101908080359060200190929190505050611691565b005b6103e66004803603604081101561037b57600080fd5b8101908080359060200190929190803590602001906401000000008111156103a257600080fd5b8201836020820111156103b457600080fd5b803590602001918460018302840111640100000000831117156103d657600080fd5b909192939192939050505061199e565b005b610414600480360360208110156103fe57600080fd5b8101908080359060200190929190505050611cad565b6040518082606460200280838360005b8381101561043f578082015181840152602081019050610424565b5050505090500191505060405180910390f35b61047e6004803603602081101561046857600080fd5b8101908080359060200190929190505050611d31565b005b6104b66004803603604081101561049657600080fd5b81019080803590602001909291908035906020019092919050505061203a565b005b6104ee600480360360408110156104ce57600080fd5b81019080803590602001909291908035906020019092919050505061233d565b005b61051c6004803603602081101561050657600080fd5b8101908080359060200190929190505050612640565b005b61059f6004803603604081101561053457600080fd5b81019080803590602001909291908035906020019064010000000081111561055b57600080fd5b82018360208201111561056d57600080fd5b8035906020019184600183028401116401000000008311171561058f57600080fd5b9091929391929390505050612949565b005b6105cd600480360360208110156105b757600080fd5b8101908080359060200190929190505050612c57565b604051808215151515815260200191505060405180910390f35b610613600480360360208110156105fd57600080fd5b8101908080359060200190929190505050612c81565b005b6106416004803603602081101561062b57600080fd5b8101908080359060200190929190505050612f82565b6040518080602001828103825283818151815260200191508051906020019080838360005b83811015610681578082015181840152602081019050610666565b50505050905090810190601f1680156106ae5780820380516001836020036101000a031916815260200191505b509250505060405180910390f35b6106c4613036565b005b6106f2600480360360208110156106dc57600080fd5b81019080803590602001909291905050506130f3565b6040518082815260200191505060405180910390f35b61074a6004803603602081101561071e57600080fd5b81019080803573ffffffffffffffffffffffffffffffffffffffff169060200190929190505050613110565b005b6107846004803603604081101561076257600080fd5b81019080803590602001909291908035151590602001909291905050506136d5565b005b6107bc6004803603604081101561079c57600080fd5b8101908080359060200190929190803590602001909291905050506139eb565b6040518082815260200191505060405180910390f35b6107fe600480360360208110156107e857600080fd5b8101908080359060200190929190505050613d2d565b6040518082815260200191505060405180910390f35b6108406004803603602081101561082a57600080fd5b8101908080359060200190929190505050613d4a565b6040518080602001828103825283818151815260200191508051906020019080838360005b83811015610880578082015181840152602081019050610865565b50505050905090810190601f1680156108ad5780820380516001836020036101000a031916815260200191505b509250505060405180910390f35b610907600480360360408110156108d157600080fd5b8101908080359060200190929190803573ffffffffffffffffffffffffffffffffffffffff169060200190929190505050613dff565b005b6109356004803603602081101561091f57600080fd5b810190808035906020019092919050505061413c565b6040518082815260200191505060405180910390f35b6109816004803603604081101561096157600080fd5b810190808035906020019092919080359060200190929190505050614159565b005b6109af6004803603602081101561099957600080fd5b810190808035906020019092919050505061445c565b005b6109e7600480360360408110156109c757600080fd5b81019080803590602001909291908035906020019092919050505061475d565b6040518082815260200191505060405180910390f35b610a2960048036036020811015610a1357600080fd5b8101908080359060200190929190505050614a9f565b005b610a636004803603610ca0811015610a4257600080fd5b810190808035906020019092919080610c8001909192919290505050614da7565b005b6003600060405160200180807f636f6e74726163742e73746f726167652e696e697469616c6973656400000000815250601c01905060405160208183030381529060405280519060200120815260200190815260200160002060009054906101000a900460ff161580610b255750600860009054906101000a900473ffffffffffffffffffffffffffffffffffffffff1673ffffffffffffffffffffffffffffffffffffffff163373ffffffffffffffffffffffffffffffffffffffff16145b610b97576040517f08c379a00000000000000000000000000000000000000000000000000000000081526004018080602001828103825260138152602001807f416c726561647920696e697469616c697365640000000000000000000000000081525060200191505060405180910390fd5b600360003360405160200180807f6163636573732e726f6c65000000000000000000000000000000000000000000815250600b01807f6f776e65720000000000000000000000000000000000000000000000000000008152506005018273ffffffffffffffffffffffffffffffffffffffff1673ffffffffffffffffffffffffffffffffffffffff1660601b815260140191505060405160208183030381529060405280519060200120815260200190815260200160002060009054906101000a900460ff16610ccf576040517f08c379a00000000000000000000000000000000000000000000000000000000081526004018080602001828103825260168152602001807f4f6e6c79206f776e65722063616e20657865637574650000000000000000000081525060200191505060405180910390fd5b600060016000858560405160200180807f636f6e74726163742e6e616d6500000000000000000000000000000000000000815250600d01838380828437808301925050509250505060405160208183030381529060405280519060200120815260200190815260200160002060009054906101000a900473ffffffffffffffffffffffffffffffffffffffff1690506001600360008460405160200180807f636f6e74726163742e76616c6964000000000000000000000000000000000000815250600e018273ffffffffffffffffffffffffffffffffffffffff1673ffffffffffffffffffffffffffffffffffffffff1660601b815260140191505060405160208183030381529060405280519060200120815260200190815260200160002060006101000a81548160ff0219169083151502179055508160016000868660405160200180807f636f6e74726163742e6164647265737300000000000000000000000000000000815250601001838380828437808301925050509250505060405160208183030381529060405280519060200120815260200190815260200160002060006101000a81548173ffffffffffffffffffffffffffffffffffffffff021916908373ffffffffffffffffffffffffffffffffffffffff16021790555083836000808560405160200180807f636f6e74726163742e6e616d6500000000000000000000000000000000000000815250600d018273ffffffffffffffffffffffffffffffffffffffff1673ffffffffffffffffffffffffffffffffffffffff1660601b81526014019150506040516020818303038152906040528051906020012081526020019081526020016000209190610f4e929190615247565b50600073ffffffffffffffffffffffffffffffffffffffff168173ffffffffffffffffffffffffffffffffffffffff161461102d576000600360008360405160200180807f636f6e74726163742e76616c6964000000000000000000000000000000000000815250600e018273ffffffffffffffffffffffffffffffffffffffff1673ffffffffffffffffffffffffffffffffffffffff1660601b815260140191505060405160208183030381529060405280519060200120815260200190815260200160002060006101000a81548160ff0219169083151502179055505b50505050565b600115156003600060405180807f636f6e74726163742e73746f726167652e696e697469616c6973656400000000815250601c0190506040518091039020815260200190815260200160002060009054906101000a900460ff16151514156111aa57600360003360405160200180807f636f6e74726163742e76616c6964000000000000000000000000000000000000815250600e018273ffffffffffffffffffffffffffffffffffffffff1673ffffffffffffffffffffffffffffffffffffffff1660601b815260140191505060405160208183030381529060405280519060200120815260200190815260200160002060009054906101000a900460ff166111a5576040517f08c379a00000000000000000000000000000000000000000000000000000000081526004018080602001828103825260188152602001807f4f6e6c79207265676973746572656420636f6e7472616374000000000000000081525060200191505060405180910390fd5b61131a565b3273ffffffffffffffffffffffffffffffffffffffff16600860009054906101000a900473ffffffffffffffffffffffffffffffffffffffff1673ffffffffffffffffffffffffffffffffffffffff1614806112a7575060011515600360003360405160200180807f636f6e74726163742e76616c6964000000000000000000000000000000000000815250600e018273ffffffffffffffffffffffffffffffffffffffff1673ffffffffffffffffffffffffffffffffffffffff1660601b815260140191505060405160208183030381529060405280519060200120815260200190815260200160002060009054906101000a900460ff161515145b611319576040517f08c379a00000000000000000000000000000000000000000000000000000000081526004018080602001828103825260188152602001807f4f6e6c79207265676973746572656420636f6e7472616374000000000000000081525060200191505060405180910390fd5b5b600760008281526020019081526020016000206000905550565b600115156003600060405180807f636f6e74726163742e73746f726167652e696e697469616c6973656400000000815250601c0190506040518091039020815260200190815260200160002060009054906101000a900460ff16151514156114ab57600360003360405160200180807f636f6e74726163742e76616c6964000000000000000000000000000000000000815250600e018273ffffffffffffffffffffffffffffffffffffffff1673ffffffffffffffffffffffffffffffffffffffff1660601b815260140191505060405160208183030381529060405280519060200120815260200190815260200160002060009054906101000a900460ff166114a6576040517f08c379a00000000000000000000000000000000000000000000000000000000081526004018080602001828103825260188152602001807f4f6e6c79207265676973746572656420636f6e7472616374000000000000000081525060200191505060405180910390fd5b61161b565b3273ffffffffffffffffffffffffffffffffffffffff16600860009054906101000a900473ffffffffffffffffffffffffffffffffffffffff1673ffffffffffffffffffffffffffffffffffffffff1614806115a8575060011515600360003360405160200180807f636f6e74726163742e76616c6964000000000000000000000000000000000000815250600e018273ffffffffffffffffffffffffffffffffffffffff1673ffffffffffffffffffffffffffffffffffffffff1660601b815260140191505060405160208183030381529060405280519060200120815260200190815260200160002060009054906101000a900460ff161515145b61161a576040517f08c379a00000000000000000000000000000000000000000000000000000000081526004018080602001828103825260188152602001807f4f6e6c79207265676973746572656420636f6e7472616374000000000000000081525060200191505060405180910390fd5b5b6001600082815260200190815260200160002060006101000a81549073ffffffffffffffffffffffffffffffffffffffff021916905550565b60006001600083815260200190815260200160002060009054906101000a900473ffffffffffffffffffffffffffffffffffffffff169050919050565b600115156003600060405180807f636f6e74726163742e73746f726167652e696e697469616c6973656400000000815250601c0190506040518091039020815260200190815260200160002060009054906101000a900460ff161515141561180857600360003360405160200180807f636f6e74726163742e76616c6964000000000000000000000000000000000000815250600e018273ffffffffffffffffffffffffffffffffffffffff1673ffffffffffffffffffffffffffffffffffffffff1660601b815260140191505060405160208183030381529060405280519060200120815260200190815260200160002060009054906101000a900460ff16611803576040517f08c379a00000000000000000000000000000000000000000000000000000000081526004018080602001828103825260188152602001807f4f6e6c79207265676973746572656420636f6e7472616374000000000000000081525060200191505060405180910390fd5b611978565b3273ffffffffffffffffffffffffffffffffffffffff16600860009054906101000a900473ffffffffffffffffffffffffffffffffffffffff1673ffffffffffffffffffffffffffffffffffffffff161480611905575060011515600360003360405160200180807f636f6e74726163742e76616c6964000000000000000000000000000000000000815250600e018273ffffffffffffffffffffffffffffffffffffffff1673ffffffffffffffffffffffffffffffffffffffff1660601b815260140191505060405160208183030381529060405280519060200120815260200190815260200160002060009054906101000a900460ff161515145b611977576040517f08c379a00000000000000000000000000000000000000000000000000000000081526004018080602001828103825260188152602001807f4f6e6c79207265676973746572656420636f6e7472616374000000000000000081525060200191505060405180910390fd5b5b6003600082815260200190815260200160002060006101000a81549060ff021916905550565b600115156003600060405180807f636f6e74726163742e73746f726167652e696e697469616c6973656400000000815250601c0190506040518091039020815260200190815260200160002060009054906101000a900460ff1615151415611b1557600360003360405160200180807f636f6e74726163742e76616c6964000000000000000000000000000000000000815250600e018273ffffffffffffffffffffffffffffffffffffffff1673ffffffffffffffffffffffffffffffffffffffff1660601b815260140191505060405160208183030381529060405280519060200120815260200190815260200160002060009054906101000a900460ff16611b10576040517f08c379a00000000000000000000000000000000000000000000000000000000081526004018080602001828103825260188152602001807f4f6e6c79207265676973746572656420636f6e7472616374000000000000000081525060200191505060405180910390fd5b611c85565b3273ffffffffffffffffffffffffffffffffffffffff16600860009054906101000a900473ffffffffffffffffffffffffffffffffffffffff1673ffffffffffffffffffffffffffffffffffffffff161480611c12575060011515600360003360405160200180807f636f6e74726163742e76616c6964000000000000000000000000000000000000815250600e018273ffffffffffffffffffffffffffffffffffffffff1673ffffffffffffffffffffffffffffffffffffffff1660601b815260140191505060405160208183030381529060405280519060200120815260200190815260200160002060009054906101000a900460ff161515145b611c84576040517f08c379a00000000000000000000000000000000000000000000000000000000081526004018080602001828103825260188152602001807f4f6e6c79207265676973746572656420636f6e7472616374000000000000000081525060200191505060405180910390fd5b5b8181600260008681526020019081526020016000209190611ca79291906152c7565b50505050565b611cb5615347565b60066000838152602001908152602001600020606480602002604051908101604052809291908260648015611d25576020028201916000905b82829054906101000a900460ff1660ff1681526020019060010190602082600001049283019260010382029150808411611cee5790505b50505050509050919050565b600115156003600060405180807f636f6e74726163742e73746f726167652e696e697469616c6973656400000000815250601c0190506040518091039020815260200190815260200160002060009054906101000a900460ff1615151415611ea857600360003360405160200180807f636f6e74726163742e76616c6964000000000000000000000000000000000000815250600e018273ffffffffffffffffffffffffffffffffffffffff1673ffffffffffffffffffffffffffffffffffffffff1660601b815260140191505060405160208183030381529060405280519060200120815260200190815260200160002060009054906101000a900460ff16611ea3576040517f08c379a00000000000000000000000000000000000000000000000000000000081526004018080602001828103825260188152602001807f4f6e6c79207265676973746572656420636f6e7472616374000000000000000081525060200191505060405180910390fd5b612018565b3273ffffffffffffffffffffffffffffffffffffffff16600860009054906101000a900473ffffffffffffffffffffffffffffffffffffffff1673ffffffffffffffffffffffffffffffffffffffff161480611fa5575060011515600360003360405160200180807f636f6e74726163742e76616c6964000000000000000000000000000000000000815250600e018273ffffffffffffffffffffffffffffffffffffffff1673ffffffffffffffffffffffffffffffffffffffff1660601b815260140191505060405160208183030381529060405280519060200120815260200190815260200160002060009054906101000a900460ff161515145b612017576040517f08c379a00000000000000000000000000000000000000000000000000000000081526004018080602001828103825260188152602001807f4f6e6c79207265676973746572656420636f6e7472616374000000000000000081525060200191505060405180910390fd5b5b600660008281526020019081526020016000206000612037919061536a565b50565b600115156003600060405180807f636f6e74726163742e73746f726167652e696e697469616c6973656400000000815250601c0190506040518091039020815260200190815260200160002060009054906101000a900460ff16151514156121b157600360003360405160200180807f636f6e74726163742e76616c6964000000000000000000000000000000000000815250600e018273ffffffffffffffffffffffffffffffffffffffff1673ffffffffffffffffffffffffffffffffffffffff1660601b815260140191505060405160208183030381529060405280519060200120815260200190815260200160002060009054906101000a900460ff166121ac576040517f08c379a00000000000000000000000000000000000000000000000000000000081526004018080602001828103825260188152602001807f4f6e6c79207265676973746572656420636f6e7472616374000000000000000081525060200191505060405180910390fd5b612321565b3273ffffffffffffffffffffffffffffffffffffffff16600860009054906101000a900473ffffffffffffffffffffffffffffffffffffffff1673ffffffffffffffffffffffffffffffffffffffff1614806122ae575060011515600360003360405160200180807f636f6e74726163742e76616c6964000000000000000000000000000000000000815250600e018273ffffffffffffffffffffffffffffffffffffffff1673ffffffffffffffffffffffffffffffffffffffff1660601b815260140191505060405160208183030381529060405280519060200120815260200190815260200160002060009054906101000a900460ff161515145b612320576040517f08c379a00000000000000000000000000000000000000000000000000000000081526004018080602001828103825260188152602001807f4f6e6c79207265676973746572656420636f6e7472616374000000000000000081525060200191505060405180910390fd5b5b8060046000848152602001908152602001600020819055505050565b600115156003600060405180807f636f6e74726163742e73746f726167652e696e697469616c6973656400000000815250601c0190506040518091039020815260200190815260200160002060009054906101000a900460ff16151514156124b457600360003360405160200180807f636f6e74726163742e76616c6964000000000000000000000000000000000000815250600e018273ffffffffffffffffffffffffffffffffffffffff1673ffffffffffffffffffffffffffffffffffffffff1660601b815260140191505060405160208183030381529060405280519060200120815260200190815260200160002060009054906101000a900460ff166124af576040517f08c379a00000000000000000000000000000000000000000000000000000000081526004018080602001828103825260188152602001807f4f6e6c79207265676973746572656420636f6e7472616374000000000000000081525060200191505060405180910390fd5b612624565b3273ffffffffffffffffffffffffffffffffffffffff16600860009054906101000a900473ffffffffffffffffffffffffffffffffffffffff1673ffffffffffffffffffffffffffffffffffffffff1614806125b1575060011515600360003360405160200180807f636f6e74726163742e76616c6964000000000000000000000000000000000000815250600e018273ffffffffffffffffffffffffffffffffffffffff1673ffffffffffffffffffffffffffffffffffffffff1660601b815260140191505060405160208183030381529060405280519060200120815260200190815260200160002060009054906101000a900460ff161515145b612623576040517f08c379a00000000000000000000000000000000000000000000000000000000081526004018080602001828103825260188152602001807f4f6e6c79207265676973746572656420636f6e7472616374000000000000000081525060200191505060405180910390fd5b5b8060076000848152602001908152602001600020819055505050565b600115156003600060405180807f636f6e74726163742e73746f726167652e696e697469616c6973656400000000815250601c0190506040518091039020815260200190815260200160002060009054906101000a900460ff16151514156127b757600360003360405160200180807f636f6e74726163742e76616c6964000000000000000000000000000000000000815250600e018273ffffffffffffffffffffffffffffffffffffffff1673ffffffffffffffffffffffffffffffffffffffff1660601b815260140191505060405160208183030381529060405280519060200120815260200190815260200160002060009054906101000a900460ff166127b2576040517f08c379a00000000000000000000000000000000000000000000000000000000081526004018080602001828103825260188152602001807f4f6e6c79207265676973746572656420636f6e7472616374000000000000000081525060200191505060405180910390fd5b612927565b3273ffffffffffffffffffffffffffffffffffffffff16600860009054906101000a900473ffffffffffffffffffffffffffffffffffffffff1673ffffffffffffffffffffffffffffffffffffffff1614806128b4575060011515600360003360405160200180807f636f6e74726163742e76616c6964000000000000000000000000000000000000815250600e018273ffffffffffffffffffffffffffffffffffffffff1673ffffffffffffffffffffffffffffffffffffffff1660601b815260140191505060405160208183030381529060405280519060200120815260200190815260200160002060009054906101000a900460ff161515145b612926576040517f08c379a00000000000000000000000000000000000000000000000000000000081526004018080602001828103825260188152602001807f4f6e6c79207265676973746572656420636f6e7472616374000000000000000081525060200191505060405180910390fd5b5b6002600082815260200190815260200160002060006129469190615386565b50565b600115156003600060405180807f636f6e74726163742e73746f726167652e696e697469616c6973656400000000815250601c0190506040518091039020815260200190815260200160002060009054906101000a900460ff1615151415612ac057600360003360405160200180807f636f6e74726163742e76616c6964000000000000000000000000000000000000815250600e018273ffffffffffffffffffffffffffffffffffffffff1673ffffffffffffffffffffffffffffffffffffffff1660601b815260140191505060405160208183030381529060405280519060200120815260200190815260200160002060009054906101000a900460ff16612abb576040517f08c379a00000000000000000000000000000000000000000000000000000000081526004018080602001828103825260188152602001807f4f6e6c79207265676973746572656420636f6e7472616374000000000000000081525060200191505060405180910390fd5b612c30565b3273ffffffffffffffffffffffffffffffffffffffff16600860009054906101000a900473ffffffffffffffffffffffffffffffffffffffff1673ffffffffffffffffffffffffffffffffffffffff161480612bbd575060011515600360003360405160200180807f636f6e74726163742e76616c6964000000000000000000000000000000000000815250600e018273ffffffffffffffffffffffffffffffffffffffff1673ffffffffffffffffffffffffffffffffffffffff1660601b815260140191505060405160208183030381529060405280519060200120815260200190815260200160002060009054906101000a900460ff161515145b612c2f576040517f08c379a00000000000000000000000000000000000000000000000000000000081526004018080602001828103825260188152602001807f4f6e6c79207265676973746572656420636f6e7472616374000000000000000081525060200191505060405180910390fd5b5b81816000808681526020019081526020016000209190612c51929190615247565b50505050565b60006003600083815260200190815260200160002060009054906101000a900460ff169050919050565b600115156003600060405180807f636f6e74726163742e73746f726167652e696e697469616c6973656400000000815250601c0190506040518091039020815260200190815260200160002060009054906101000a900460ff1615151415612df857600360003360405160200180807f636f6e74726163742e76616c6964000000000000000000000000000000000000815250600e018273ffffffffffffffffffffffffffffffffffffffff1673ffffffffffffffffffffffffffffffffffffffff1660601b815260140191505060405160208183030381529060405280519060200120815260200190815260200160002060009054906101000a900460ff16612df3576040517f08c379a00000000000000000000000000000000000000000000000000000000081526004018080602001828103825260188152602001807f4f6e6c79207265676973746572656420636f6e7472616374000000000000000081525060200191505060405180910390fd5b612f68565b3273ffffffffffffffffffffffffffffffffffffffff16600860009054906101000a900473ffffffffffffffffffffffffffffffffffffffff1673ffffffffffffffffffffffffffffffffffffffff161480612ef5575060011515600360003360405160200180807f636f6e74726163742e76616c6964000000000000000000000000000000000000815250600e018273ffffffffffffffffffffffffffffffffffffffff1673ffffffffffffffffffffffffffffffffffffffff1660601b815260140191505060405160208183030381529060405280519060200120815260200190815260200160002060009054906101000a900460ff161515145b612f67576040517f08c379a00000000000000000000000000000000000000000000000000000000081526004018080602001828103825260188152602001807f4f6e6c79207265676973746572656420636f6e7472616374000000000000000081525060200191505060405180910390fd5b5b600460008281526020019081526020016000206000905550565b60606000808381526020019081526020016000208054600181600116156101000203166002900480601f01602080910402602001604051908101604052809291908181526020018280546001816001161561010002031660029004801561302a5780601f10612fff5761010080835404028352916020019161302a565b820191906000526020600020905b81548152906001019060200180831161300d57829003601f168201915b50505050509050919050565b600860009054906101000a900473ffffffffffffffffffffffffffffffffffffffff1673ffffffffffffffffffffffffffffffffffffffff163373ffffffffffffffffffffffffffffffffffffffff161461309057600080fd5b60016003600060405180807f636f6e74726163742e73746f726167652e696e697469616c6973656400000000815250601c0190506040518091039020815260200190815260200160002060006101000a81548160ff021916908315150217905550565b600060076000838152602001908152602001600020549050919050565b600860009054906101000a900473ffffffffffffffffffffffffffffffffffffffff1673ffffffffffffffffffffffffffffffffffffffff163373ffffffffffffffffffffffffffffffffffffffff16146131d3576040517f08c379a000000000000000000000000000000000000000000000000000000000815260040180806020018281038252600a8152602001807f4f6e6c79206f776e65720000000000000000000000000000000000000000000081525060200191505060405180910390fd5b60011515600360008360405160200180807f6163636573732e726f6c65000000000000000000000000000000000000000000815250600b01807f6f776e65720000000000000000000000000000000000000000000000000000008152506005018273ffffffffffffffffffffffffffffffffffffffff1673ffffffffffffffffffffffffffffffffffffffff1660601b815260140191505060405160208183030381529060405280519060200120815260200190815260200160002060009054906101000a900460ff16151514156132aa57600080fd5b60011515600360008360405160200180807f6163636f756e74000000000000000000000000000000000000000000000000008152506007018273ffffffffffffffffffffffffffffffffffffffff1673ffffffffffffffffffffffffffffffffffffffff1660601b815260140191505060405160208183030381529060405280519060200120815260200190815260200160002060009054906101000a900460ff161515141561335957600080fd5b6001600360008360405160200180807f6163636573732e726f6c65000000000000000000000000000000000000000000815250600b01807f6f776e65720000000000000000000000000000000000000000000000000000008152506005018273ffffffffffffffffffffffffffffffffffffffff1673ffffffffffffffffffffffffffffffffffffffff1660601b815260140191505060405160208183030381529060405280519060200120815260200190815260200160002060006101000a81548160ff0219169083151502179055506001600360008360405160200180807f6163636f756e74000000000000000000000000000000000000000000000000008152506007018273ffffffffffffffffffffffffffffffffffffffff1673ffffffffffffffffffffffffffffffffffffffff1660601b815260140191505060405160208183030381529060405280519060200120815260200190815260200160002060006101000a81548160ff021916908315150217905550600060036000600860009054906101000a900473ffffffffffffffffffffffffffffffffffffffff1660405160200180807f6163636573732e726f6c65000000000000000000000000000000000000000000815250600b01807f6f776e65720000000000000000000000000000000000000000000000000000008152506005018273ffffffffffffffffffffffffffffffffffffffff1673ffffffffffffffffffffffffffffffffffffffff1660601b815260140191505060405160208183030381529060405280519060200120815260200190815260200160002060006101000a81548160ff021916908315150217905550600060036000600860009054906101000a900473ffffffffffffffffffffffffffffffffffffffff1660405160200180807f6163636f756e74000000000000000000000000000000000000000000000000008152506007018273ffffffffffffffffffffffffffffffffffffffff1673ffffffffffffffffffffffffffffffffffffffff1660601b815260140191505060405160208183030381529060405280519060200120815260200190815260200160002060006101000a81548160ff02191690831515021790555080600860006101000a81548173ffffffffffffffffffffffffffffffffffffffff021916908373ffffffffffffffffffffffffffffffffffffffff16021790555050565b600115156003600060405180807f636f6e74726163742e73746f726167652e696e697469616c6973656400000000815250601c0190506040518091039020815260200190815260200160002060009054906101000a900460ff161515141561384c57600360003360405160200180807f636f6e74726163742e76616c6964000000000000000000000000000000000000815250600e018273ffffffffffffffffffffffffffffffffffffffff1673ffffffffffffffffffffffffffffffffffffffff1660601b815260140191505060405160208183030381529060405280519060200120815260200190815260200160002060009054906101000a900460ff16613847576040517f08c379a00000000000000000000000000000000000000000000000000000000081526004018080602001828103825260188152602001807f4f6e6c79207265676973746572656420636f6e7472616374000000000000000081525060200191505060405180910390fd5b6139bc565b3273ffffffffffffffffffffffffffffffffffffffff16600860009054906101000a900473ffffffffffffffffffffffffffffffffffffffff1673ffffffffffffffffffffffffffffffffffffffff161480613949575060011515600360003360405160200180807f636f6e74726163742e76616c6964000000000000000000000000000000000000815250600e018273ffffffffffffffffffffffffffffffffffffffff1673ffffffffffffffffffffffffffffffffffffffff1660601b815260140191505060405160208183030381529060405280519060200120815260200190815260200160002060009054906101000a900460ff161515145b6139bb576040517f08c379a00000000000000000000000000000000000000000000000000000000081526004018080602001828103825260188152602001807f4f6e6c79207265676973746572656420636f6e7472616374000000000000000081525060200191505060405180910390fd5b5b806003600084815260200190815260200160002060006101000a81548160ff0219169083151502179055505050565b6000600115156003600060405180807f636f6e74726163742e73746f726167652e696e697469616c6973656400000000815250601c0190506040518091039020815260200190815260200160002060009054906101000a900460ff1615151415613b6457600360003360405160200180807f636f6e74726163742e76616c6964000000000000000000000000000000000000815250600e018273ffffffffffffffffffffffffffffffffffffffff1673ffffffffffffffffffffffffffffffffffffffff1660601b815260140191505060405160208183030381529060405280519060200120815260200190815260200160002060009054906101000a900460ff16613b5f576040517f08c379a00000000000000000000000000000000000000000000000000000000081526004018080602001828103825260188152602001807f4f6e6c79207265676973746572656420636f6e7472616374000000000000000081525060200191505060405180910390fd5b613cd4565b3273ffffffffffffffffffffffffffffffffffffffff16600860009054906101000a900473ffffffffffffffffffffffffffffffffffffffff1673ffffffffffffffffffffffffffffffffffffffff161480613c61575060011515600360003360405160200180807f636f6e74726163742e76616c6964000000000000000000000000000000000000815250600e018273ffffffffffffffffffffffffffffffffffffffff1673ffffffffffffffffffffffffffffffffffffffff1660601b815260140191505060405160208183030381529060405280519060200120815260200190815260200160002060009054906101000a900460ff161515145b613cd3576040517f08c379a00000000000000000000000000000000000000000000000000000000081526004018080602001828103825260188152602001807f4f6e6c79207265676973746572656420636f6e7472616374000000000000000081525060200191505060405180910390fd5b5b613cfa8260056000868152602001908152602001600020546150b590919063ffffffff16565b60056000858152602001908152602001600020819055506005600084815260200190815260200160002054905092915050565b600060056000838152602001908152602001600020549050919050565b6060600260008381526020019081526020016000208054600181600116156101000203166002900480601f016020809104026020016040519081016040528092919081815260200182805460018160011615610100020316600290048015613df35780601f10613dc857610100808354040283529160200191613df3565b820191906000526020600020905b815481529060010190602001808311613dd657829003601f168201915b50505050509050919050565b600115156003600060405180807f636f6e74726163742e73746f726167652e696e697469616c6973656400000000815250601c0190506040518091039020815260200190815260200160002060009054906101000a900460ff1615151415613f7657600360003360405160200180807f636f6e74726163742e76616c6964000000000000000000000000000000000000815250600e018273ffffffffffffffffffffffffffffffffffffffff1673ffffffffffffffffffffffffffffffffffffffff1660601b815260140191505060405160208183030381529060405280519060200120815260200190815260200160002060009054906101000a900460ff16613f71576040517f08c379a00000000000000000000000000000000000000000000000000000000081526004018080602001828103825260188152602001807f4f6e6c79207265676973746572656420636f6e7472616374000000000000000081525060200191505060405180910390fd5b6140e6565b3273ffffffffffffffffffffffffffffffffffffffff16600860009054906101000a900473ffffffffffffffffffffffffffffffffffffffff1673ffffffffffffffffffffffffffffffffffffffff161480614073575060011515600360003360405160200180807f636f6e74726163742e76616c6964000000000000000000000000000000000000815250600e018273ffffffffffffffffffffffffffffffffffffffff1673ffffffffffffffffffffffffffffffffffffffff1660601b815260140191505060405160208183030381529060405280519060200120815260200190815260200160002060009054906101000a900460ff161515145b6140e5576040517f08c379a00000000000000000000000000000000000000000000000000000000081526004018080602001828103825260188152602001807f4f6e6c79207265676973746572656420636f6e7472616374000000000000000081525060200191505060405180910390fd5b5b806001600084815260200190815260200160002060006101000a81548173ffffffffffffffffffffffffffffffffffffffff021916908373ffffffffffffffffffffffffffffffffffffffff1602179055505050565b600060046000838152602001908152602001600020549050919050565b600115156003600060405180807f636f6e74726163742e73746f726167652e696e697469616c6973656400000000815250601c0190506040518091039020815260200190815260200160002060009054906101000a900460ff16151514156142d057600360003360405160200180807f636f6e74726163742e76616c6964000000000000000000000000000000000000815250600e018273ffffffffffffffffffffffffffffffffffffffff1673ffffffffffffffffffffffffffffffffffffffff1660601b815260140191505060405160208183030381529060405280519060200120815260200190815260200160002060009054906101000a900460ff166142cb576040517f08c379a00000000000000000000000000000000000000000000000000000000081526004018080602001828103825260188152602001807f4f6e6c79207265676973746572656420636f6e7472616374000000000000000081525060200191505060405180910390fd5b614440565b3273ffffffffffffffffffffffffffffffffffffffff16600860009054906101000a900473ffffffffffffffffffffffffffffffffffffffff1673ffffffffffffffffffffffffffffffffffffffff1614806143cd575060011515600360003360405160200180807f636f6e74726163742e76616c6964000000000000000000000000000000000000815250600e018273ffffffffffffffffffffffffffffffffffffffff1673ffffffffffffffffffffffffffffffffffffffff1660601b815260140191505060405160208183030381529060405280519060200120815260200190815260200160002060009054906101000a900460ff161515145b61443f576040517f08c379a00000000000000000000000000000000000000000000000000000000081526004018080602001828103825260188152602001807f4f6e6c79207265676973746572656420636f6e7472616374000000000000000081525060200191505060405180910390fd5b5b8060056000848152602001908152602001600020819055505050565b600115156003600060405180807f636f6e74726163742e73746f726167652e696e697469616c6973656400000000815250601c0190506040518091039020815260200190815260200160002060009054906101000a900460ff16151514156145d357600360003360405160200180807f636f6e74726163742e76616c6964000000000000000000000000000000000000815250600e018273ffffffffffffffffffffffffffffffffffffffff1673ffffffffffffffffffffffffffffffffffffffff1660601b815260140191505060405160208183030381529060405280519060200120815260200190815260200160002060009054906101000a900460ff166145ce576040517f08c379a00000000000000000000000000000000000000000000000000000000081526004018080602001828103825260188152602001807f4f6e6c79207265676973746572656420636f6e7472616374000000000000000081525060200191505060405180910390fd5b614743565b3273ffffffffffffffffffffffffffffffffffffffff16600860009054906101000a900473ffffffffffffffffffffffffffffffffffffffff1673ffffffffffffffffffffffffffffffffffffffff1614806146d0575060011515600360003360405160200180807f636f6e74726163742e76616c6964000000000000000000000000000000000000815250600e018273ffffffffffffffffffffffffffffffffffffffff1673ffffffffffffffffffffffffffffffffffffffff1660601b815260140191505060405160208183030381529060405280519060200120815260200190815260200160002060009054906101000a900460ff161515145b614742576040517f08c379a00000000000000000000000000000000000000000000000000000000081526004018080602001828103825260188152602001807f4f6e6c79207265676973746572656420636f6e7472616374000000000000000081525060200191505060405180910390fd5b5b600560008281526020019081526020016000206000905550565b6000600115156003600060405180807f636f6e74726163742e73746f726167652e696e697469616c6973656400000000815250601c0190506040518091039020815260200190815260200160002060009054906101000a900460ff16151514156148d657600360003360405160200180807f636f6e74726163742e76616c6964000000000000000000000000000000000000815250600e018273ffffffffffffffffffffffffffffffffffffffff1673ffffffffffffffffffffffffffffffffffffffff1660601b815260140191505060405160208183030381529060405280519060200120815260200190815260200160002060009054906101000a900460ff166148d1576040517f08c379a00000000000000000000000000000000000000000000000000000000081526004018080602001828103825260188152602001807f4f6e6c79207265676973746572656420636f6e7472616374000000000000000081525060200191505060405180910390fd5b614a46565b3273ffffffffffffffffffffffffffffffffffffffff16600860009054906101000a900473ffffffffffffffffffffffffffffffffffffffff1673ffffffffffffffffffffffffffffffffffffffff1614806149d3575060011515600360003360405160200180807f636f6e74726163742e76616c6964000000000000000000000000000000000000815250600e018273ffffffffffffffffffffffffffffffffffffffff1673ffffffffffffffffffffffffffffffffffffffff1660601b815260140191505060405160208183030381529060405280519060200120815260200190815260200160002060009054906101000a900460ff161515145b614a45576040517f08c379a00000000000000000000000000000000000000000000000000000000081526004018080602001828103825260188152602001807f4f6e6c79207265676973746572656420636f6e7472616374000000000000000081525060200191505060405180910390fd5b5b614a6c82600560008681526020019081526020016000205461513d90919063ffffffff16565b60056000858152602001908152602001600020819055506005600084815260200190815260200160002054905092915050565b600115156003600060405180807f636f6e74726163742e73746f726167652e696e697469616c6973656400000000815250601c0190506040518091039020815260200190815260200160002060009054906101000a900460ff1615151415614c1657600360003360405160200180807f636f6e74726163742e76616c6964000000000000000000000000000000000000815250600e018273ffffffffffffffffffffffffffffffffffffffff1673ffffffffffffffffffffffffffffffffffffffff1660601b815260140191505060405160208183030381529060405280519060200120815260200190815260200160002060009054906101000a900460ff16614c11576040517f08c379a00000000000000000000000000000000000000000000000000000000081526004018080602001828103825260188152602001807f4f6e6c79207265676973746572656420636f6e7472616374000000000000000081525060200191505060405180910390fd5b614d86565b3273ffffffffffffffffffffffffffffffffffffffff16600860009054906101000a900473ffffffffffffffffffffffffffffffffffffffff1673ffffffffffffffffffffffffffffffffffffffff161480614d13575060011515600360003360405160200180807f636f6e74726163742e76616c6964000000000000000000000000000000000000815250600e018273ffffffffffffffffffffffffffffffffffffffff1673ffffffffffffffffffffffffffffffffffffffff1660601b815260140191505060405160208183030381529060405280519060200120815260200190815260200160002060009054906101000a900460ff161515145b614d85576040517f08c379a00000000000000000000000000000000000000000000000000000000081526004018080602001828103825260188152602001807f4f6e6c79207265676973746572656420636f6e7472616374000000000000000081525060200191505060405180910390fd5b5b6000808281526020019081526020016000206000614da491906153ce565b50565b600115156003600060405180807f636f6e74726163742e73746f726167652e696e697469616c6973656400000000815250601c0190506040518091039020815260200190815260200160002060009054906101000a900460ff1615151415614f1e57600360003360405160200180807f636f6e74726163742e76616c6964000000000000000000000000000000000000815250600e018273ffffffffffffffffffffffffffffffffffffffff1673ffffffffffffffffffffffffffffffffffffffff1660601b815260140191505060405160208183030381529060405280519060200120815260200190815260200160002060009054906101000a900460ff16614f19576040517f08c379a00000000000000000000000000000000000000000000000000000000081526004018080602001828103825260188152602001807f4f6e6c79207265676973746572656420636f6e7472616374000000000000000081525060200191505060405180910390fd5b61508e565b3273ffffffffffffffffffffffffffffffffffffffff16600860009054906101000a900473ffffffffffffffffffffffffffffffffffffffff1673ffffffffffffffffffffffffffffffffffffffff16148061501b575060011515600360003360405160200180807f636f6e74726163742e76616c6964000000000000000000000000000000000000815250600e018273ffffffffffffffffffffffffffffffffffffffff1673ffffffffffffffffffffffffffffffffffffffff1660601b815260140191505060405160208183030381529060405280519060200120815260200190815260200160002060009054906101000a900460ff161515145b61508d576040517f08c379a00000000000000000000000000000000000000000000000000000000081526004018080602001828103825260188152602001807f4f6e6c79207265676973746572656420636f6e7472616374000000000000000081525060200191505060405180910390fd5b5b80600660008481526020019081526020016000209060646150b0929190615416565b505050565b600080828401905083811015615133576040517f08c379a000000000000000000000000000000000000000000000000000000000815260040180806020018281038252601b8152602001807f536166654d6174683a206164646974696f6e206f766572666c6f77000000000081525060200191505060405180910390fd5b8091505092915050565b600061517f83836040518060400160405280601e81526020017f536166654d6174683a207375627472616374696f6e206f766572666c6f770000815250615187565b905092915050565b6000838311158290615234576040517f08c379a00000000000000000000000000000000000000000000000000000000081526004018080602001828103825283818151815260200191508051906020019080838360005b838110156151f95780820151818401526020810190506151de565b50505050905090810190601f1680156152265780820380516001836020036101000a031916815260200191505b509250505060405180910390fd5b5060008385039050809150509392505050565b828054600181600116156101000203166002900490600052602060002090601f016020900481019282601f1061528857803560ff19168380011785556152b6565b828001600101855582156152b6579182015b828111156152b557823582559160200191906001019061529a565b5b5090506152c391906154b3565b5090565b828054600181600116156101000203166002900490600052602060002090601f016020900481019282601f1061530857803560ff1916838001178555615336565b82800160010185558215615336579182015b8281111561533557823582559160200191906001019061531a565b5b50905061534391906154b3565b5090565b60405180610c800160405280606490602082028038833980820191505090505090565b5060008155600101600081556001016000815560010160009055565b50805460018160011615610100020316600290046000825580601f106153ac57506153cb565b601f0160209004906000526020600020908101906153ca91906154b3565b5b50565b50805460018160011615610100020316600290046000825580601f106153f45750615413565b601f01602090049060005260206000209081019061541291906154b3565b5b50565b826064601f016020900481019282156154a25791602002820160005b8382111561547357833560ff1683826101000a81548160ff021916908360ff1602179055509260200192600101602081600001049283019260010302615432565b80156154a05782816101000a81549060ff0219169055600101602081600001049283019260010302615473565b505b5090506154af91906154d8565b5090565b6154d591905b808211156154d15760008160009055506001016154b9565b5090565b90565b61550591905b8082111561550157600081816101000a81549060ff0219169055506001016154de565b5090565b9056fea265627a7a72315820aad4270ece40182542869c4aacb5238e978efe5fd0f3f73ca8ca70c0478f0b0964736f6c63430005100032",
  "source": "// pragma solidity ^0.4.14;\r\npragma solidity ^0.5.16;\r\n\r\n/*\r\n * @title Eternal Storage for Bit Brackets Contracts inspired by the awesome RocketPool project and Eternal Storage implementations.\r\n *\r\n * @author Douglas Molina <doug.molina@bitbrackets.io>\r\n * @author Guillermo Salazar <guillermo@bitbrackets.io>\r\n * @author Daniel Tutila <daniel@bitbrackets.io>\r\n */\r\n\r\nimport \"./SafeMath.sol\";\r\n\r\ncontract EternalStorage {\r\n\r\n    using SafeMath for uint256;\r\n\r\n    mapping(bytes32 => string)       private stringStorage;\r\n    mapping(bytes32 => address)      private addressStorage;\r\n    mapping(bytes32 => bytes)        private bytesStorage;\r\n    mapping(bytes32 => bool)         private boolStorage;\r\n    mapping(bytes32 => int256)       private intStorage;\r\n    mapping(bytes32 => uint)         private uIntStorage;\r\n    mapping(bytes32 => uint8[100])   private int8ArrayStorage;\r\n    mapping(bytes32 => bytes32)      private bytes32Storage;\r\n\r\n    address private _owner;\r\n\r\n\r\n    /*** Modifiers ************/\r\n\r\n    // @dev Only allow access from the Bit Brackets contracts\r\n    modifier onlyAllowedContract() {\r\n        // The owner and other contracts are only allowed to set the storage upon deployment to register the initial contracts/settings, afterwards their direct access is disabled\r\n        if (boolStorage[keccak256(\"contract.storage.initialised\")] == true) {\r\n            // Make sure the access is permitted to only contracts in our control\r\n            require(boolStorage[keccak256(abi.encodePacked(\"contract.valid\", msg.sender))], \"Only registered contract\");\r\n        } else {\r\n            require(_owner ==  tx.origin || boolStorage[keccak256(abi.encodePacked(\"contract.valid\", msg.sender))] == true, \"Only registered contract\" );\r\n        }\r\n        _;\r\n    }\r\n\r\n\r\n    /// @dev constructor\r\n    constructor() public {\r\n        // Set the main owner upon deployment\r\n        // TODO implement ownable using access.role to allow admins\r\n        boolStorage[keccak256(abi.encodePacked(\"access.role\", \"owner\", msg.sender))] = true;\r\n        boolStorage[keccak256(abi.encodePacked(\"account\", msg.sender))] = true;\r\n        uint index = 1;\r\n        uIntStorage[keccak256(abi.encodePacked(\"User.index\"))] = index;\r\n        addressStorage[keccak256(abi.encodePacked(\"User.address\", index))] = msg.sender;\r\n        uIntStorage[keccak256(abi.encodePacked(\"User.index\", msg.sender))] = index;\r\n        stringStorage[keccak256(abi.encodePacked(\"User.role\",msg.sender))] = \"owner\";\r\n        addressStorage[keccak256(abi.encodePacked(\"owner\"))] = msg.sender;\r\n    }\r\n\r\n    function getAddress(bytes32 _key) external view returns (address) {\r\n        return addressStorage[_key];\r\n    }\r\n\r\n    function getUint(bytes32 _key) external view returns (uint) {\r\n        return uIntStorage[_key];\r\n    }\r\n\r\n    /// @param _key The key for the record\r\n    function getString(bytes32 _key) external view returns (string memory) {\r\n        return stringStorage[_key];\r\n    }\r\n\r\n    /// @param _key The key for the record\r\n    function getBytes(bytes32 _key) external view returns (bytes memory) {\r\n        return bytesStorage[_key];\r\n    }\r\n\r\n    /// @param _key The key for the record\r\n    function getBytes32(bytes32 _key) external view returns (bytes32) {\r\n        return bytes32Storage[_key];\r\n    }\r\n\r\n    /// @param _key The key for the record\r\n    function getBool(bytes32 _key) external view returns (bool) {\r\n        return boolStorage[_key];\r\n    }\r\n\r\n    /// @param _key The key for the record\r\n    function getInt(bytes32 _key) external view returns (int) {\r\n        return intStorage[_key];\r\n    }\r\n\r\n\r\n    /// @param _key The key for the record\r\n    function getInt8Array(bytes32 _key) external view returns (uint8[100] memory) {\r\n        return int8ArrayStorage[_key];\r\n    }\r\n\r\n    /**** Set Methods ***********/\r\n\r\n    /// @param _key The key for the record\r\n    function setAddress(bytes32 _key, address _value) external onlyAllowedContract {\r\n        addressStorage[_key] = _value;\r\n    }\r\n\r\n    /// @param _key The key for the record\r\n    function setUint(bytes32 _key, uint _value) external onlyAllowedContract {\r\n        uIntStorage[_key] = _value;\r\n    }\r\n\r\n    \r\n\r\n    /// @param _key The key for the record\r\n    function setString(bytes32 _key, string calldata _value) external onlyAllowedContract {\r\n        stringStorage[_key] = _value;\r\n    }\r\n\r\n    /// @param _key The key for the record\r\n    function setBytes(bytes32 _key, bytes calldata _value) external onlyAllowedContract {\r\n        bytesStorage[_key] = _value;\r\n    }\r\n\r\n    /// @param _key The key for the record\r\n    function setBytes32(bytes32 _key, bytes32 _value) external onlyAllowedContract {\r\n        bytes32Storage[_key] = _value;\r\n    }\r\n    \r\n    /// @param _key The key for the record\r\n    function setBool(bytes32 _key, bool _value) external onlyAllowedContract {\r\n        boolStorage[_key] = _value;\r\n    }\r\n    \r\n    /// @param _key The key for the record\r\n    function setInt(bytes32 _key, int _value) external onlyAllowedContract {\r\n        intStorage[_key] = _value;\r\n    }\r\n    /// @param _key The key for the record\r\n    /// @param _values Array of Values\r\n    function setInt8Array(bytes32 _key, uint8[100] calldata _values) external onlyAllowedContract {\r\n        int8ArrayStorage[_key] = _values;\r\n    }\r\n\r\n    /**** Delete Methods ***********/\r\n    \r\n    /// @param _key The key for the record\r\n    function deleteAddress(bytes32 _key) external onlyAllowedContract {\r\n        delete addressStorage[_key];\r\n    }\r\n\r\n    /// @param _key The key for the record\r\n    function deleteUint(bytes32 _key) external onlyAllowedContract {\r\n        delete uIntStorage[_key];\r\n    }\r\n\r\n     \r\n    /// @param _key The key for the record\r\n    function deleteString(bytes32 _key) external onlyAllowedContract {\r\n        delete stringStorage[_key];\r\n    }\r\n\r\n    /// @param _key The key for the record\r\n    function deleteBytes(bytes32 _key) external onlyAllowedContract {\r\n        delete bytesStorage[_key];\r\n    }\r\n\r\n    /// @param _key The key for the record\r\n    function deleteBytes32(bytes32 _key) external onlyAllowedContract {\r\n        delete bytes32Storage[_key];\r\n    }\r\n    \r\n    /// @param _key The key for the record\r\n    function deleteBool(bytes32 _key) external onlyAllowedContract {\r\n        delete boolStorage[_key];\r\n    }\r\n    \r\n    /// @param _key The key for the record\r\n    function deleteInt(bytes32 _key) external onlyAllowedContract {\r\n        delete intStorage[_key];\r\n    }\r\n\r\n    /// @param _key The key for the record\r\n    function deleteInt8Array(bytes32 _key)  external onlyAllowedContract {\r\n        delete int8ArrayStorage[_key];\r\n    }\r\n\r\n    //math operation \r\n\r\n    function addUint(bytes32 _key, uint _value) external onlyAllowedContract returns(uint) {\r\n        uIntStorage[_key] = uIntStorage[_key].add(_value);\r\n        return uIntStorage[_key];\r\n    }\r\n\r\n    function subUint(bytes32 _key, uint _value) external onlyAllowedContract returns(uint)   {\r\n        uIntStorage[_key] = uIntStorage[_key].sub(_value);\r\n        return uIntStorage[_key];\r\n    }\r\n\r\n    function registryContract(string calldata _name, address _address) external   {\r\n        require(!boolStorage[keccak256(abi.encodePacked(\"contract.storage.initialised\"))] || \r\n            msg.sender == _owner, \"Already initialised\");\r\n        require(boolStorage[keccak256(abi.encodePacked(\"access.role\", \"owner\", msg.sender))], \"Only owner can execute\");\r\n        address oldAddress = addressStorage[keccak256(abi.encodePacked(\"contract.name\", _name))];\r\n        boolStorage[keccak256(abi.encodePacked(\"contract.valid\", _address))] = true;\r\n        addressStorage[keccak256(abi.encodePacked(\"contract.address\", _name))] = _address;\r\n        stringStorage[keccak256(abi.encodePacked(\"contract.name\", _address))] = _name;\r\n        if(oldAddress!= address(0)){\r\n            boolStorage[keccak256(abi.encodePacked(\"contract.valid\", oldAddress))] = false;\r\n        }\r\n    }\r\n\r\n    function changeOwner(address _newOwner) public {\r\n        require(msg.sender == _owner, \"Only owner\");        \r\n        require(boolStorage[keccak256(abi.encodePacked(\"access.role\", \"owner\", _newOwner))] != true);\r\n        require(boolStorage[keccak256(abi.encodePacked(\"account\", _newOwner))] != true);\r\n        boolStorage[keccak256(abi.encodePacked(\"access.role\", \"owner\", _newOwner))] = true;\r\n        boolStorage[keccak256(abi.encodePacked(\"account\", _newOwner))] = true;\r\n        boolStorage[keccak256(abi.encodePacked(\"access.role\", \"owner\", _owner))] =false;\r\n        boolStorage[keccak256(abi.encodePacked(\"account\", _owner))] = false;\r\n        _owner = _newOwner;\r\n    }\r\n\r\n    function finishInit() public {\r\n        require(msg.sender == _owner);\r\n        boolStorage[keccak256(\"contract.storage.initialised\")] = true;\r\n    }\r\n}",
  "sourcePath": "D:\\projects\\degenics\\degenics-smart-contract\\contracts\\common\\EternalStorage.sol",
  "compiler": {
    "name": "solc",
    "version": "0.5.16+commit.9c3226ce.Emscripten.clang"
  },
  "schemaVersion": "3.0.23",
  "updatedAt": "2020-12-31T21:10:15.561Z",
  "networkType": "ethereum",
  "devdoc": {
    "methods": {
      "constructor": {
        "details": "constructor"
      },
      "deleteAddress(bytes32)": {
        "params": {
          "_key": "The key for the record"
        }
      },
      "deleteBool(bytes32)": {
        "params": {
          "_key": "The key for the record"
        }
      },
      "deleteBytes(bytes32)": {
        "params": {
          "_key": "The key for the record"
        }
      },
      "deleteBytes32(bytes32)": {
        "params": {
          "_key": "The key for the record"
        }
      },
      "deleteInt(bytes32)": {
        "params": {
          "_key": "The key for the record"
        }
      },
      "deleteInt8Array(bytes32)": {
        "params": {
          "_key": "The key for the record"
        }
      },
      "deleteString(bytes32)": {
        "params": {
          "_key": "The key for the record"
        }
      },
      "deleteUint(bytes32)": {
        "params": {
          "_key": "The key for the record"
        }
      },
      "getBool(bytes32)": {
        "params": {
          "_key": "The key for the record"
        }
      },
      "getBytes(bytes32)": {
        "params": {
          "_key": "The key for the record"
        }
      },
      "getBytes32(bytes32)": {
        "params": {
          "_key": "The key for the record"
        }
      },
      "getInt(bytes32)": {
        "params": {
          "_key": "The key for the record"
        }
      },
      "getInt8Array(bytes32)": {
        "params": {
          "_key": "The key for the record"
        }
      },
      "getString(bytes32)": {
        "params": {
          "_key": "The key for the record"
        }
      },
      "setAddress(bytes32,address)": {
        "params": {
          "_key": "The key for the record"
        }
      },
      "setBool(bytes32,bool)": {
        "params": {
          "_key": "The key for the record"
        }
      },
      "setBytes(bytes32,bytes)": {
        "params": {
          "_key": "The key for the record"
        }
      },
      "setBytes32(bytes32,bytes32)": {
        "params": {
          "_key": "The key for the record"
        }
      },
      "setInt(bytes32,int256)": {
        "params": {
          "_key": "The key for the record"
        }
      },
      "setInt8Array(bytes32,uint8[100])": {
        "params": {
          "_key": "The key for the record",
          "_values": "Array of Values"
        }
      },
      "setString(bytes32,string)": {
        "params": {
          "_key": "The key for the record"
        }
      },
      "setUint(bytes32,uint256)": {
        "params": {
          "_key": "The key for the record"
        }
      }
    }
  },
  "userdoc": {
    "methods": {}
  }
}