{
  "contractName": "Lab",
  "abi": [
    {
      "inputs": [
        {
          "internalType": "address",
          "name": "_storage",
          "type": "address"
        }
      ],
      "payable": false,
      "stateMutability": "nonpayable",
      "type": "constructor"
    },
    {
      "constant": true,
      "inputs": [],
      "name": "eternalStorage",
      "outputs": [
        {
          "internalType": "contract EternalStorageInterface",
          "name": "",
          "type": "address"
        }
      ],
      "payable": false,
      "stateMutability": "view",
      "type": "function"
    },
    {
      "constant": false,
      "inputs": [
        {
          "internalType": "address",
          "name": "_account",
          "type": "address"
        },
        {
          "internalType": "string",
          "name": "name",
          "type": "string"
        },
        {
          "internalType": "string",
          "name": "country",
          "type": "string"
        },
        {
          "internalType": "string",
          "name": "city",
          "type": "string"
        }
      ],
      "name": "register",
      "outputs": [],
      "payable": false,
      "stateMutability": "nonpayable",
      "type": "function"
    },
    {
      "constant": false,
      "inputs": [
        {
          "internalType": "string",
          "name": "code",
          "type": "string"
        },
        {
          "internalType": "string",
          "name": "serviceName",
          "type": "string"
        },
        {
          "internalType": "uint256",
          "name": "price",
          "type": "uint256"
        }
      ],
      "name": "registerService",
      "outputs": [],
      "payable": false,
      "stateMutability": "nonpayable",
      "type": "function"
    },
    {
      "constant": false,
      "inputs": [
        {
          "internalType": "string",
          "name": "metadata",
          "type": "string"
        },
        {
          "internalType": "string",
          "name": "data",
          "type": "string"
        }
      ],
      "name": "addData",
      "outputs": [],
      "payable": false,
      "stateMutability": "nonpayable",
      "type": "function"
    },
    {
      "constant": false,
      "inputs": [
        {
          "internalType": "string",
          "name": "code",
          "type": "string"
        },
        {
          "internalType": "string",
          "name": "metadata",
          "type": "string"
        },
        {
          "internalType": "string",
          "name": "data",
          "type": "string"
        }
      ],
      "name": "addServiceData",
      "outputs": [],
      "payable": false,
      "stateMutability": "nonpayable",
      "type": "function"
    }
  ],
  "bytecode": "0x608060405260008060006101000a81548173ffffffffffffffffffffffffffffffffffffffff021916908373ffffffffffffffffffffffffffffffffffffffff16021790555034801561005157600080fd5b5060405161317c38038061317c8339818101604052602081101561007457600080fd5b810190808051906020019092919050505080806000806101000a81548173ffffffffffffffffffffffffffffffffffffffff021916908373ffffffffffffffffffffffffffffffffffffffff16021790555050506130a5806100d76000396000f3fe608060405234801561001057600080fd5b50600436106100575760003560e01c8063063d93d81461005c578063528407e51461026557806376b6e60e146103b757806398ff9c54146105a0578063bab1af70146105ea575b600080fd5b6102636004803603608081101561007257600080fd5b81019080803573ffffffffffffffffffffffffffffffffffffffff169060200190929190803590602001906401000000008111156100af57600080fd5b8201836020820111156100c157600080fd5b803590602001918460018302840111640100000000831117156100e357600080fd5b91908080601f016020809104026020016040519081016040528093929190818152602001838380828437600081840152601f19601f8201169050808301925050505050505091929192908035906020019064010000000081111561014657600080fd5b82018360208201111561015857600080fd5b8035906020019184600183028401116401000000008311171561017a57600080fd5b91908080601f016020809104026020016040519081016040528093929190818152602001838380828437600081840152601f19601f820116905080830192505050505050509192919290803590602001906401000000008111156101dd57600080fd5b8201836020820111156101ef57600080fd5b8035906020019184600183028401116401000000008311171561021157600080fd5b91908080601f016020809104026020016040519081016040528093929190818152602001838380828437600081840152601f19601f820116905080830192505050505050509192919290505050610746565b005b6103b56004803603604081101561027b57600080fd5b810190808035906020019064010000000081111561029857600080fd5b8201836020820111156102aa57600080fd5b803590602001918460018302840111640100000000831117156102cc57600080fd5b91908080601f016020809104026020016040519081016040528093929190818152602001838380828437600081840152601f19601f8201169050808301925050505050505091929192908035906020019064010000000081111561032f57600080fd5b82018360208201111561034157600080fd5b8035906020019184600183028401116401000000008311171561036357600080fd5b91908080601f016020809104026020016040519081016040528093929190818152602001838380828437600081840152601f19601f820116905080830192505050505050509192919290505050611b0b565b005b61059e600480360360608110156103cd57600080fd5b81019080803590602001906401000000008111156103ea57600080fd5b8201836020820111156103fc57600080fd5b8035906020019184600183028401116401000000008311171561041e57600080fd5b91908080601f016020809104026020016040519081016040528093929190818152602001838380828437600081840152601f19601f8201169050808301925050505050505091929192908035906020019064010000000081111561048157600080fd5b82018360208201111561049357600080fd5b803590602001918460018302840111640100000000831117156104b557600080fd5b91908080601f016020809104026020016040519081016040528093929190818152602001838380828437600081840152601f19601f8201169050808301925050505050505091929192908035906020019064010000000081111561051857600080fd5b82018360208201111561052a57600080fd5b8035906020019184600183028401116401000000008311171561054c57600080fd5b91908080601f016020809104026020016040519081016040528093929190818152602001838380828437600081840152601f19601f820116905080830192505050505050509192919290505050611d89565b005b6105a861205b565b604051808273ffffffffffffffffffffffffffffffffffffffff1673ffffffffffffffffffffffffffffffffffffffff16815260200191505060405180910390f35b6107446004803603606081101561060057600080fd5b810190808035906020019064010000000081111561061d57600080fd5b82018360208201111561062f57600080fd5b8035906020019184600183028401116401000000008311171561065157600080fd5b91908080601f016020809104026020016040519081016040528093929190818152602001838380828437600081840152601f19601f820116905080830192505050505050509192919290803590602001906401000000008111156106b457600080fd5b8201836020820111156106c657600080fd5b803590602001918460018302840111640100000000831117156106e857600080fd5b91908080601f016020809104026020016040519081016040528093929190818152602001838380828437600081840152601f19601f82011690508083019250505050505050919291929080359060200190929190505050612080565b005b600115156107896040518060400160405280600581526020017f6f776e657200000000000000000000000000000000000000000000000000000081525033612ee9565b151514806107d95750600115156107d56040518060400160405280600581526020017f61646d696e00000000000000000000000000000000000000000000000000000081525033612ee9565b1515145b61084b576040517f08c379a000000000000000000000000000000000000000000000000000000000815260040180806020018281038252600f8152602001807f4f6e6c792073757065722055736572000000000000000000000000000000000081525060200191505060405180910390fd5b60008060009054906101000a900473ffffffffffffffffffffffffffffffffffffffff1673ffffffffffffffffffffffffffffffffffffffff1663bd02d0f58660405160200180807f6c61622e696e64657800000000000000000000000000000000000000000000008152506009018273ffffffffffffffffffffffffffffffffffffffff1673ffffffffffffffffffffffffffffffffffffffff1660601b8152601401915050604051602081830303815290604052805190602001206040518263ffffffff1660e01b81526004018082815260200191505060206040518083038186803b15801561093c57600080fd5b505afa158015610950573d6000803e3d6000fd5b505050506040513d602081101561096657600080fd5b8101908080519060200190929190505050146109ea576040517f08c379a00000000000000000000000000000000000000000000000000000000081526004018080602001828103825260108152602001807f416c72656164792072656769737465720000000000000000000000000000000081525060200191505060405180910390fd5b60008060009054906101000a900473ffffffffffffffffffffffffffffffffffffffff1673ffffffffffffffffffffffffffffffffffffffff166321f8a72160405160200180807f636f6e74726163742e6164647265737300000000000000000000000000000000815250601001807f446567656e6963730000000000000000000000000000000000000000000000008152506008019050604051602081830303815290604052805190602001206040518263ffffffff1660e01b81526004018082815260200191505060206040518083038186803b158015610acc57600080fd5b505afa158015610ae0573d6000803e3d6000fd5b505050506040513d6020811015610af657600080fd5b8101908080519060200190929190505050905060008060009054906101000a900473ffffffffffffffffffffffffffffffffffffffff1673ffffffffffffffffffffffffffffffffffffffff166321f8a72160405160200180807f636f6e74726163742e6164647265737300000000000000000000000000000000815250601001807f4163636f756e74000000000000000000000000000000000000000000000000008152506007019050604051602081830303815290604052805190602001206040518263ffffffff1660e01b81526004018082815260200191505060206040518083038186803b158015610beb57600080fd5b505afa158015610bff573d6000803e3d6000fd5b505050506040513d6020811015610c1557600080fd5b8101908080519060200190929190505050905060008060009054906101000a900473ffffffffffffffffffffffffffffffffffffffff1673ffffffffffffffffffffffffffffffffffffffff166321f8a72160405160200180807f636f6e74726163742e6164647265737300000000000000000000000000000000815250601001807f4c6f636174696f6e0000000000000000000000000000000000000000000000008152506008019050604051602081830303815290604052805190602001206040518263ffffffff1660e01b81526004018082815260200191505060206040518083038186803b158015610d0a57600080fd5b505afa158015610d1e573d6000803e3d6000fd5b505050506040513d6020811015610d3457600080fd5b810190808051906020019092919050505090508173ffffffffffffffffffffffffffffffffffffffff166332434a2e886040518263ffffffff1660e01b8152600401808273ffffffffffffffffffffffffffffffffffffffff1673ffffffffffffffffffffffffffffffffffffffff16815260200180602001828103825260038152602001807f6c6162000000000000000000000000000000000000000000000000000000000081525060200192505050600060405180830381600087803b158015610dff57600080fd5b505af1158015610e13573d6000803e3d6000fd5b505050508073ffffffffffffffffffffffffffffffffffffffff16633ffbd47f86866040518363ffffffff1660e01b8152600401808060200180602001838103835285818151815260200191508051906020019080838360005b83811015610e88578082015181840152602081019050610e6d565b50505050905090810190601f168015610eb55780820380516001836020036101000a031916815260200191505b50838103825284818151815260200191508051906020019080838360005b83811015610eee578082015181840152602081019050610ed3565b50505050905090810190601f168015610f1b5780820380516001836020036101000a031916815260200191505b50945050505050600060405180830381600087803b158015610f3c57600080fd5b505af1158015610f50573d6000803e3d6000fd5b5050505060008060009054906101000a900473ffffffffffffffffffffffffffffffffffffffff1673ffffffffffffffffffffffffffffffffffffffff1663adb353dc60405160200180807f6c61622e636f756e74000000000000000000000000000000000000000000000081525060090190506040516020818303038152906040528051906020012060016040518363ffffffff1660e01b81526004018083815260200182815260200192505050602060405180830381600087803b15801561101957600080fd5b505af115801561102d573d6000803e3d6000fd5b505050506040513d602081101561104357600080fd5b810190808051906020019092919050505090506000809054906101000a900473ffffffffffffffffffffffffffffffffffffffff1673ffffffffffffffffffffffffffffffffffffffff1663e2a4853a8960405160200180807f6c61622e696e64657800000000000000000000000000000000000000000000008152506009018273ffffffffffffffffffffffffffffffffffffffff1673ffffffffffffffffffffffffffffffffffffffff1660601b815260140191505060405160208183030381529060405280519060200120836040518363ffffffff1660e01b81526004018083815260200182815260200192505050600060405180830381600087803b15801561114f57600080fd5b505af1158015611163573d6000803e3d6000fd5b505050506000809054906101000a900473ffffffffffffffffffffffffffffffffffffffff1673ffffffffffffffffffffffffffffffffffffffff1663adb353dc878760405160200180807f6c61622e6c6f636174696f6e0000000000000000000000000000000000000000815250600c0183805190602001908083835b6020831061120457805182526020820191506020810190506020830392506111e1565b6001836020036101000a03801982511681845116808217855250505050505090500182805190602001908083835b602083106112555780518252602082019150602081019050602083039250611232565b6001836020036101000a038019825116818451168082178552505050505050905001925050506040516020818303038152906040528051906020012060016040518363ffffffff1660e01b81526004018083815260200182815260200192505050602060405180830381600087803b1580156112d057600080fd5b505af11580156112e4573d6000803e3d6000fd5b505050506040513d60208110156112fa57600080fd5b810190808051906020019092919050505090506000809054906101000a900473ffffffffffffffffffffffffffffffffffffffff1673ffffffffffffffffffffffffffffffffffffffff1663ca446dd987878460405160200180807f6c61622e6c6f636174696f6e0000000000000000000000000000000000000000815250600c0184805190602001908083835b602083106113ab5780518252602082019150602081019050602083039250611388565b6001836020036101000a03801982511681845116808217855250505050505090500183805190602001908083835b602083106113fc57805182526020820191506020810190506020830392506113d9565b6001836020036101000a0380198251168184511680821785525050505050509050018281526020019350505050604051602081830303815290604052805190602001208a6040518363ffffffff1660e01b8152600401808381526020018273ffffffffffffffffffffffffffffffffffffffff1673ffffffffffffffffffffffffffffffffffffffff16815260200192505050600060405180830381600087803b1580156114a957600080fd5b505af11580156114bd573d6000803e3d6000fd5b505050506000809054906101000a900473ffffffffffffffffffffffffffffffffffffffff1673ffffffffffffffffffffffffffffffffffffffff16636e8995508960405160200180807f6c61622e6e616d650000000000000000000000000000000000000000000000008152506008018273ffffffffffffffffffffffffffffffffffffffff1673ffffffffffffffffffffffffffffffffffffffff1660601b815260140191505060405160208183030381529060405280519060200120896040518363ffffffff1660e01b81526004018083815260200180602001828103825283818151815260200191508051906020019080838360005b838110156115d25780820151818401526020810190506115b7565b50505050905090810190601f1680156115ff5780820380516001836020036101000a031916815260200191505b509350505050600060405180830381600087803b15801561161f57600080fd5b505af1158015611633573d6000803e3d6000fd5b505050506000809054906101000a900473ffffffffffffffffffffffffffffffffffffffff1673ffffffffffffffffffffffffffffffffffffffff16636e8995508960405160200180807f6c61622e636f756e747279000000000000000000000000000000000000000000815250600b018273ffffffffffffffffffffffffffffffffffffffff1673ffffffffffffffffffffffffffffffffffffffff1660601b815260140191505060405160208183030381529060405280519060200120886040518363ffffffff1660e01b81526004018083815260200180602001828103825283818151815260200191508051906020019080838360005b8381101561174857808201518184015260208101905061172d565b50505050905090810190601f1680156117755780820380516001836020036101000a031916815260200191505b509350505050600060405180830381600087803b15801561179557600080fd5b505af11580156117a9573d6000803e3d6000fd5b505050506000809054906101000a900473ffffffffffffffffffffffffffffffffffffffff1673ffffffffffffffffffffffffffffffffffffffff16636e8995508960405160200180807f6c61622e636974790000000000000000000000000000000000000000000000008152506008018273ffffffffffffffffffffffffffffffffffffffff1673ffffffffffffffffffffffffffffffffffffffff1660601b815260140191505060405160208183030381529060405280519060200120876040518363ffffffff1660e01b81526004018083815260200180602001828103825283818151815260200191508051906020019080838360005b838110156118be5780820151818401526020810190506118a3565b50505050905090810190601f1680156118eb5780820380516001836020036101000a031916815260200191505b509350505050600060405180830381600087803b15801561190b57600080fd5b505af115801561191f573d6000803e3d6000fd5b505050508373ffffffffffffffffffffffffffffffffffffffff1663996d5fc3898989896040518563ffffffff1660e01b8152600401808573ffffffffffffffffffffffffffffffffffffffff1673ffffffffffffffffffffffffffffffffffffffff168152602001806020018060200180602001848103845287818151815260200191508051906020019080838360005b838110156119cc5780820151818401526020810190506119b1565b50505050905090810190601f1680156119f95780820380516001836020036101000a031916815260200191505b50848103835286818151815260200191508051906020019080838360005b83811015611a32578082015181840152602081019050611a17565b50505050905090810190601f168015611a5f5780820380516001836020036101000a031916815260200191505b50848103825285818151815260200191508051906020019080838360005b83811015611a98578082015181840152602081019050611a7d565b50505050905090810190601f168015611ac55780820380516001836020036101000a031916815260200191505b50975050505050505050600060405180830381600087803b158015611ae957600080fd5b505af1158015611afd573d6000803e3d6000fd5b505050505050505050505050565b611b4a6040518060400160405280600381526020017f6c6162000000000000000000000000000000000000000000000000000000000081525033612ee9565b611bbc576040517f08c379a00000000000000000000000000000000000000000000000000000000081526004018080602001828103825260088152602001807f4f6e6c79204c616200000000000000000000000000000000000000000000000081525060200191505060405180910390fd5b6000809054906101000a900473ffffffffffffffffffffffffffffffffffffffff1673ffffffffffffffffffffffffffffffffffffffff16636e899550338460405160200180807f6c61622e6d657461646174610000000000000000000000000000000000000000815250600c018373ffffffffffffffffffffffffffffffffffffffff1673ffffffffffffffffffffffffffffffffffffffff1660601b815260140182805190602001908083835b60208310611c8e5780518252602082019150602081019050602083039250611c6b565b6001836020036101000a0380198251168184511680821785525050505050509050019250505060405160208183030381529060405280519060200120836040518363ffffffff1660e01b81526004018083815260200180602001828103825283818151815260200191508051906020019080838360005b83811015611d20578082015181840152602081019050611d05565b50505050905090810190601f168015611d4d5780820380516001836020036101000a031916815260200191505b509350505050600060405180830381600087803b158015611d6d57600080fd5b505af1158015611d81573d6000803e3d6000fd5b505050505050565b611dc86040518060400160405280600381526020017f6c6162000000000000000000000000000000000000000000000000000000000081525033612ee9565b611e3a576040517f08c379a00000000000000000000000000000000000000000000000000000000081526004018080602001828103825260088152602001807f4f6e6c79204c616200000000000000000000000000000000000000000000000081525060200191505060405180910390fd5b6000809054906101000a900473ffffffffffffffffffffffffffffffffffffffff1673ffffffffffffffffffffffffffffffffffffffff16636e89955033858560405160200180807f6c61622e736572766963652e6d657461646174610000000000000000000000008152506014018473ffffffffffffffffffffffffffffffffffffffff1673ffffffffffffffffffffffffffffffffffffffff1660601b815260140183805190602001908083835b60208310611f0d5780518252602082019150602081019050602083039250611eea565b6001836020036101000a03801982511681845116808217855250505050505090500182805190602001908083835b60208310611f5e5780518252602082019150602081019050602083039250611f3b565b6001836020036101000a038019825116818451168082178552505050505050905001935050505060405160208183030381529060405280519060200120836040518363ffffffff1660e01b81526004018083815260200180602001828103825283818151815260200191508051906020019080838360005b83811015611ff1578082015181840152602081019050611fd6565b50505050905090810190601f16801561201e5780820380516001836020036101000a031916815260200191505b509350505050600060405180830381600087803b15801561203e57600080fd5b505af1158015612052573d6000803e3d6000fd5b50505050505050565b6000809054906101000a900473ffffffffffffffffffffffffffffffffffffffff1681565b6120bf6040518060400160405280600381526020017f6c6162000000000000000000000000000000000000000000000000000000000081525033612ee9565b612131576040517f08c379a00000000000000000000000000000000000000000000000000000000081526004018080602001828103825260088152602001807f4f6e6c79204c616200000000000000000000000000000000000000000000000081525060200191505060405180910390fd5b60008060009054906101000a900473ffffffffffffffffffffffffffffffffffffffff1673ffffffffffffffffffffffffffffffffffffffff1663bd02d0f5338660405160200180807f6c61622e736572766963652e636f6465000000000000000000000000000000008152506010018373ffffffffffffffffffffffffffffffffffffffff1673ffffffffffffffffffffffffffffffffffffffff1660601b815260140182805190602001908083835b6020831061220557805182526020820191506020810190506020830392506121e2565b6001836020036101000a03801982511681845116808217855250505050505090500192505050604051602081830303815290604052805190602001206040518263ffffffff1660e01b81526004018082815260200191505060206040518083038186803b15801561227557600080fd5b505afa158015612289573d6000803e3d6000fd5b505050506040513d602081101561229f57600080fd5b810190808051906020019092919050505014612323576040517f08c379a00000000000000000000000000000000000000000000000000000000081526004018080602001828103825260158152602001807f436f646520616c7265616479207265676973746572000000000000000000000081525060200191505060405180910390fd5b60008060009054906101000a900473ffffffffffffffffffffffffffffffffffffffff1673ffffffffffffffffffffffffffffffffffffffff166321f8a72160405160200180807f636f6e74726163742e6164647265737300000000000000000000000000000000815250601001807f446567656e6963730000000000000000000000000000000000000000000000008152506008019050604051602081830303815290604052805190602001206040518263ffffffff1660e01b81526004018082815260200191505060206040518083038186803b15801561240557600080fd5b505afa158015612419573d6000803e3d6000fd5b505050506040513d602081101561242f57600080fd5b8101908080519060200190929190505050905060008060009054906101000a900473ffffffffffffffffffffffffffffffffffffffff1673ffffffffffffffffffffffffffffffffffffffff1663adb353dc3360405160200180807f6c61622e736572766963652e636f756e740000000000000000000000000000008152506011018273ffffffffffffffffffffffffffffffffffffffff1673ffffffffffffffffffffffffffffffffffffffff1660601b81526014019150506040516020818303038152906040528051906020012060016040518363ffffffff1660e01b81526004018083815260200182815260200192505050602060405180830381600087803b15801561253e57600080fd5b505af1158015612552573d6000803e3d6000fd5b505050506040513d602081101561256857600080fd5b810190808051906020019092919050505090506000809054906101000a900473ffffffffffffffffffffffffffffffffffffffff1673ffffffffffffffffffffffffffffffffffffffff1663e2a4853a338760405160200180807f6c61622e736572766963652e636f6465000000000000000000000000000000008152506010018373ffffffffffffffffffffffffffffffffffffffff1673ffffffffffffffffffffffffffffffffffffffff1660601b815260140182805190602001908083835b6020831061264d578051825260208201915060208101905060208303925061262a565b6001836020036101000a0380198251168184511680821785525050505050509050019250505060405160208183030381529060405280519060200120836040518363ffffffff1660e01b81526004018083815260200182815260200192505050600060405180830381600087803b1580156126c757600080fd5b505af11580156126db573d6000803e3d6000fd5b505050506000809054906101000a900473ffffffffffffffffffffffffffffffffffffffff1673ffffffffffffffffffffffffffffffffffffffff16636e899550338360405160200180807f6c61622e736572766963652e636f6465000000000000000000000000000000008152506010018373ffffffffffffffffffffffffffffffffffffffff1673ffffffffffffffffffffffffffffffffffffffff1660601b81526014018281526020019250505060405160208183030381529060405280519060200120876040518363ffffffff1660e01b81526004018083815260200180602001828103825283818151815260200191508051906020019080838360005b838110156127f85780820151818401526020810190506127dd565b50505050905090810190601f1680156128255780820380516001836020036101000a031916815260200191505b509350505050600060405180830381600087803b15801561284557600080fd5b505af1158015612859573d6000803e3d6000fd5b505050506000809054906101000a900473ffffffffffffffffffffffffffffffffffffffff1673ffffffffffffffffffffffffffffffffffffffff16636e899550338760405160200180807f6c61622e736572766963652e6e616d65000000000000000000000000000000008152506010018373ffffffffffffffffffffffffffffffffffffffff1673ffffffffffffffffffffffffffffffffffffffff1660601b815260140182805190602001908083835b6020831061292f578051825260208201915060208101905060208303925061290c565b6001836020036101000a0380198251168184511680821785525050505050509050019250505060405160208183030381529060405280519060200120866040518363ffffffff1660e01b81526004018083815260200180602001828103825283818151815260200191508051906020019080838360005b838110156129c15780820151818401526020810190506129a6565b50505050905090810190601f1680156129ee5780820380516001836020036101000a031916815260200191505b509350505050600060405180830381600087803b158015612a0e57600080fd5b505af1158015612a22573d6000803e3d6000fd5b505050506000809054906101000a900473ffffffffffffffffffffffffffffffffffffffff1673ffffffffffffffffffffffffffffffffffffffff1663e2a4853a338760405160200180807f6c61622e736572766963652e70726963650000000000000000000000000000008152506011018373ffffffffffffffffffffffffffffffffffffffff1673ffffffffffffffffffffffffffffffffffffffff1660601b815260140182805190602001908083835b60208310612af85780518252602082019150602081019050602083039250612ad5565b6001836020036101000a0380198251168184511680821785525050505050509050019250505060405160208183030381529060405280519060200120856040518363ffffffff1660e01b81526004018083815260200182815260200192505050600060405180830381600087803b158015612b7257600080fd5b505af1158015612b86573d6000803e3d6000fd5b505050508173ffffffffffffffffffffffffffffffffffffffff166312af942e336000809054906101000a900473ffffffffffffffffffffffffffffffffffffffff1673ffffffffffffffffffffffffffffffffffffffff1663986e791a3360405160200180807f6c61622e6e616d650000000000000000000000000000000000000000000000008152506008018273ffffffffffffffffffffffffffffffffffffffff1673ffffffffffffffffffffffffffffffffffffffff1660601b8152601401915050604051602081830303815290604052805190602001206040518263ffffffff1660e01b81526004018082815260200191505060006040518083038186803b158015612c9657600080fd5b505afa158015612caa573d6000803e3d6000fd5b505050506040513d6000823e3d601f19601f820116820180604052506020811015612cd457600080fd5b8101908080516040519392919084640100000000821115612cf457600080fd5b83820191506020820185811115612d0a57600080fd5b8251866001820283011164010000000082111715612d2757600080fd5b8083526020830192505050908051906020019080838360005b83811015612d5b578082015181840152602081019050612d40565b50505050905090810190601f168015612d885780820380516001836020036101000a031916815260200191505b50604052505050876040518463ffffffff1660e01b8152600401808473ffffffffffffffffffffffffffffffffffffffff1673ffffffffffffffffffffffffffffffffffffffff1681526020018060200180602001838103835285818151815260200191508051906020019080838360005b83811015612e15578082015181840152602081019050612dfa565b50505050905090810190601f168015612e425780820380516001836020036101000a031916815260200191505b50838103825284818151815260200191508051906020019080838360005b83811015612e7b578082015181840152602081019050612e60565b50505050905090810190601f168015612ea85780820380516001836020036101000a031916815260200191505b5095505050505050600060405180830381600087803b158015612eca57600080fd5b505af1158015612ede573d6000803e3d6000fd5b505050505050505050565b60008060009054906101000a900473ffffffffffffffffffffffffffffffffffffffff1673ffffffffffffffffffffffffffffffffffffffff16637ae1cfca848460405160200180807f6163636573732e726f6c65000000000000000000000000000000000000000000815250600b0183805190602001908083835b60208310612f885780518252602082019150602081019050602083039250612f65565b6001836020036101000a0380198251168184511680821785525050505050509050018273ffffffffffffffffffffffffffffffffffffffff1673ffffffffffffffffffffffffffffffffffffffff1660601b815260140192505050604051602081830303815290604052805190602001206040518263ffffffff1660e01b81526004018082815260200191505060206040518083038186803b15801561302d57600080fd5b505afa158015613041573d6000803e3d6000fd5b505050506040513d602081101561305757600080fd5b810190808051906020019092919050505090509291505056fea265627a7a7231582080cb6526c502ef69611b96d3347472f13568aa31078052896076f72ac215aef064736f6c63430005100032",
  "source": "pragma solidity ^0.5.16;\r\n\r\n\r\nimport \"./common/Base.sol\";\r\nimport \"./common/SafeMath.sol\";\r\nimport \"./common/Address.sol\";\r\nimport \"./Degenics.sol\";\r\nimport \"./Location.sol\";\r\nimport \"./Account.sol\";\r\n\r\n\r\ncontract Lab is Base {\r\n\r\n    modifier onlyLab() {\r\n        require(roleHas(\"lab\",msg.sender),\r\n         \"Only Lab\" );\r\n        _;\r\n    }\r\n\r\n    constructor(address _storage ) public Base(_storage) {\r\n    \r\n    }\r\n\r\n    function register(address _account, string memory name, \r\n        string memory country, string memory city) public onlySuperUser{\r\n\r\n        require( eternalStorage.getUint(keccak256(abi.encodePacked(\"lab.index\", _account))) ==0, \"Already register\" );\r\n\r\n        Degenics degenics = Degenics(eternalStorage.getAddress(keccak256(abi.encodePacked(\"contract.address\", \"Degenics\"))));\r\n        Account account = Account(eternalStorage.getAddress(keccak256(abi.encodePacked(\"contract.address\", \"Account\"))));\r\n        Location location = Location(eternalStorage.getAddress(keccak256(abi.encodePacked(\"contract.address\", \"Location\"))));\r\n\r\n        account.register(_account, \"lab\");\r\n        location.register(country, city);\r\n\r\n        uint index = eternalStorage.addUint(keccak256(abi.encodePacked(\"lab.count\")), 1);\r\n        eternalStorage.setUint(keccak256(abi.encodePacked(\"lab.index\", _account)), index);\r\n\r\n        index = eternalStorage.addUint(keccak256(abi.encodePacked(\"lab.location\",country, city)), 1);\r\n        eternalStorage.setAddress(keccak256(abi.encodePacked(\"lab.location\",country, city, index)), _account);\r\n        eternalStorage.setString(keccak256(abi.encodePacked(\"lab.name\", _account)), name);\r\n        eternalStorage.setString(keccak256(abi.encodePacked(\"lab.country\", _account)), country);\r\n        eternalStorage.setString(keccak256(abi.encodePacked(\"lab.city\", _account)), city);\r\n        degenics.emitNewLab(_account, name, country, city);\r\n    }\r\n    \r\n    function registerService(string memory code, string memory serviceName, uint price) public onlyLab{\r\n        require(eternalStorage.getUint(keccak256(abi.encodePacked(\"lab.service.code\", msg.sender, code))) == 0, \"Code already register\");\r\n        Degenics degenics = Degenics(eternalStorage.getAddress(keccak256(abi.encodePacked(\"contract.address\", \"Degenics\"))));\r\n        uint index = eternalStorage.addUint(keccak256(abi.encodePacked(\"lab.service.count\", msg.sender)), 1);\r\n        eternalStorage.setUint(keccak256(abi.encodePacked(\"lab.service.code\", msg.sender, code)), index);\r\n        eternalStorage.setString(keccak256(abi.encodePacked(\"lab.service.code\", msg.sender, index )), code);\r\n        eternalStorage.setString(keccak256(abi.encodePacked(\"lab.service.name\", msg.sender, code)), serviceName );\r\n        eternalStorage.setUint(keccak256(abi.encodePacked(\"lab.service.price\", msg.sender, code)), price );\r\n        \r\n        degenics.emitNewService(msg.sender, eternalStorage.getString(keccak256(abi.encodePacked(\"lab.name\", msg.sender))),serviceName);\r\n        // emit NewService(msg.sender, code, serviceName);\r\n    }\r\n\r\n    function addData(string memory metadata, string memory data) public onlyLab{\r\n        eternalStorage.setString(keccak256(abi.encodePacked(\"lab.metadata\", msg.sender, metadata)), data );\r\n    }\r\n\r\n    function addServiceData(string memory code, string memory metadata, string memory data) public onlyLab{\r\n        eternalStorage.setString(keccak256(abi.encodePacked(\"lab.service.metadata\", msg.sender, code, metadata)), data);\r\n    }\r\n\r\n}",
  "sourcePath": "D:\\projects\\degenics\\degenics-smart-contract\\contracts\\Lab.sol",
  "compiler": {
    "name": "solc",
    "version": "0.5.16+commit.9c3226ce.Emscripten.clang"
  },
  "schemaVersion": "3.0.23",
  "updatedAt": "2020-12-29T13:01:00.903Z",
  "networkType": "ethereum",
  "devdoc": {
    "methods": {}
  },
  "userdoc": {
    "methods": {}
  }
}