{
  "contractName": "Specimen",
  "abi": [
    {
      "inputs": [
        {
          "internalType": "address",
          "name": "_storage",
          "type": "address"
        },
        {
          "internalType": "address",
          "name": "_degenicsLog",
          "type": "address"
        }
      ],
      "payable": false,
      "stateMutability": "nonpayable",
      "type": "constructor"
    },
    {
      "constant": true,
      "inputs": [],
      "name": "eternalStorage",
      "outputs": [
        {
          "internalType": "contract EternalStorageInterface",
          "name": "",
          "type": "address"
        }
      ],
      "payable": false,
      "stateMutability": "view",
      "type": "function"
    },
    {
      "constant": false,
      "inputs": [
        {
          "internalType": "address",
          "name": "ownerSpecimen",
          "type": "address"
        },
        {
          "internalType": "address",
          "name": "labAccount",
          "type": "address"
        },
        {
          "internalType": "string",
          "name": "serviceCode",
          "type": "string"
        }
      ],
      "name": "registerSpecimen",
      "outputs": [
        {
          "internalType": "bytes32",
          "name": "",
          "type": "bytes32"
        }
      ],
      "payable": false,
      "stateMutability": "nonpayable",
      "type": "function"
    },
    {
      "constant": true,
      "inputs": [
        {
          "internalType": "address",
          "name": "sender",
          "type": "address"
        }
      ],
      "name": "specimenCount",
      "outputs": [
        {
          "internalType": "uint256",
          "name": "",
          "type": "uint256"
        }
      ],
      "payable": false,
      "stateMutability": "view",
      "type": "function"
    },
    {
      "constant": true,
      "inputs": [
        {
          "internalType": "bytes32",
          "name": "number",
          "type": "bytes32"
        }
      ],
      "name": "specimenByNumber",
      "outputs": [
        {
          "internalType": "address",
          "name": "owner",
          "type": "address"
        },
        {
          "internalType": "address",
          "name": "labAccount",
          "type": "address"
        },
        {
          "internalType": "string",
          "name": "serviceCode",
          "type": "string"
        },
        {
          "internalType": "string",
          "name": "status",
          "type": "string"
        }
      ],
      "payable": false,
      "stateMutability": "view",
      "type": "function"
    },
    {
      "constant": true,
      "inputs": [
        {
          "internalType": "address",
          "name": "sender",
          "type": "address"
        },
        {
          "internalType": "uint256",
          "name": "index",
          "type": "uint256"
        }
      ],
      "name": "specimenByIndex",
      "outputs": [
        {
          "internalType": "address",
          "name": "owner",
          "type": "address"
        },
        {
          "internalType": "address",
          "name": "labAccount",
          "type": "address"
        },
        {
          "internalType": "string",
          "name": "serviceCode",
          "type": "string"
        },
        {
          "internalType": "string",
          "name": "status",
          "type": "string"
        }
      ],
      "payable": false,
      "stateMutability": "view",
      "type": "function"
    },
    {
      "constant": false,
      "inputs": [
        {
          "internalType": "bytes32",
          "name": "number",
          "type": "bytes32"
        },
        {
          "internalType": "string",
          "name": "remark",
          "type": "string"
        }
      ],
      "name": "sendSpecimen",
      "outputs": [],
      "payable": false,
      "stateMutability": "nonpayable",
      "type": "function"
    },
    {
      "constant": false,
      "inputs": [
        {
          "internalType": "bytes32",
          "name": "number",
          "type": "bytes32"
        },
        {
          "internalType": "string",
          "name": "remark",
          "type": "string"
        }
      ],
      "name": "receiveSpecimen",
      "outputs": [],
      "payable": false,
      "stateMutability": "nonpayable",
      "type": "function"
    },
    {
      "constant": false,
      "inputs": [
        {
          "internalType": "bytes32",
          "name": "number",
          "type": "bytes32"
        },
        {
          "internalType": "string",
          "name": "remark",
          "type": "string"
        }
      ],
      "name": "rejectSpecimen",
      "outputs": [],
      "payable": false,
      "stateMutability": "nonpayable",
      "type": "function"
    },
    {
      "constant": false,
      "inputs": [
        {
          "internalType": "bytes32",
          "name": "number",
          "type": "bytes32"
        },
        {
          "internalType": "string",
          "name": "file",
          "type": "string"
        },
        {
          "internalType": "string",
          "name": "remark",
          "type": "string"
        }
      ],
      "name": "analysisSucces",
      "outputs": [],
      "payable": false,
      "stateMutability": "nonpayable",
      "type": "function"
    },
    {
      "constant": false,
      "inputs": [
        {
          "internalType": "bytes32",
          "name": "number",
          "type": "bytes32"
        },
        {
          "internalType": "string",
          "name": "remark",
          "type": "string"
        }
      ],
      "name": "analysisFail",
      "outputs": [],
      "payable": false,
      "stateMutability": "nonpayable",
      "type": "function"
    },
    {
      "constant": false,
      "inputs": [
        {
          "internalType": "bytes32",
          "name": "number",
          "type": "bytes32"
        },
        {
          "internalType": "uint256",
          "name": "_index",
          "type": "uint256"
        }
      ],
      "name": "logByIndex",
      "outputs": [
        {
          "internalType": "uint256",
          "name": "index",
          "type": "uint256"
        },
        {
          "internalType": "uint256",
          "name": "time",
          "type": "uint256"
        },
        {
          "internalType": "string",
          "name": "logType",
          "type": "string"
        },
        {
          "internalType": "string",
          "name": "log",
          "type": "string"
        }
      ],
      "payable": false,
      "stateMutability": "nonpayable",
      "type": "function"
    },
    {
      "constant": true,
      "inputs": [
        {
          "internalType": "bytes32",
          "name": "number",
          "type": "bytes32"
        }
      ],
      "name": "getFile",
      "outputs": [
        {
          "internalType": "string",
          "name": "file",
          "type": "string"
        }
      ],
      "payable": false,
      "stateMutability": "view",
      "type": "function"
    }
  ],
  "bytecode": "0x608060405260008060006101000a81548173ffffffffffffffffffffffffffffffffffffffff021916908373ffffffffffffffffffffffffffffffffffffffff1602179055503480156200005257600080fd5b5060405162005e5e38038062005e5e833981810160405260408110156200007857600080fd5b81019080805190602001909291908051906020019092919050505081806000806101000a81548173ffffffffffffffffffffffffffffffffffffffff021916908373ffffffffffffffffffffffffffffffffffffffff1602179055505080600160006101000a81548173ffffffffffffffffffffffffffffffffffffffff021916908373ffffffffffffffffffffffffffffffffffffffff1602179055505050615d3680620001286000396000f3fe608060405234801561001057600080fd5b50600436106100b45760003560e01c80635803d619116100715780635803d6191461067357806398ff9c54146106cb578063a250156c14610715578063b1bc38f014610824578063d06a9cb71461099d578063e77ebf4614610a62576100b4565b80631e7dcb18146100b95780632b6db6111461017e57806342438523146102a9578063473aa2a51461036e5780634fcbb7231461041557806354c7763a146105ae575b600080fd5b61017c600480360360408110156100cf57600080fd5b8101908080359060200190929190803590602001906401000000008111156100f657600080fd5b82018360208201111561010857600080fd5b8035906020019184600183028401116401000000008311171561012a57600080fd5b91908080601f016020809104026020016040519081016040528093929190818152602001838380828437600081840152601f19601f820116905080830192505050505050509192919290505050610bbe565b005b6101b46004803603604081101561019457600080fd5b8101908080359060200190929190803590602001909291905050506111b7565b604051808581526020018481526020018060200180602001838103835285818151815260200191508051906020019080838360005b838110156102045780820151818401526020810190506101e9565b50505050905090810190601f1680156102315780820380516001836020036101000a031916815260200191505b50838103825284818151815260200191508051906020019080838360005b8381101561026a57808201518184015260208101905061024f565b50505050905090810190601f1680156102975780820380516001836020036101000a031916815260200191505b50965050505050505060405180910390f35b61036c600480360360408110156102bf57600080fd5b8101908080359060200190929190803590602001906401000000008111156102e657600080fd5b8201836020820111156102f857600080fd5b8035906020019184600183028401116401000000008311171561031a57600080fd5b91908080601f016020809104026020016040519081016040528093929190818152602001838380828437600081840152601f19601f8201169050808301925050505050505091929192905050506115ca565b005b61039a6004803603602081101561038457600080fd5b8101908080359060200190929190505050611c5c565b6040518080602001828103825283818151815260200191508051906020019080838360005b838110156103da5780820151818401526020810190506103bf565b50505050905090810190601f1680156104075780820380516001836020036101000a031916815260200191505b509250505060405180910390f35b6104616004803603604081101561042b57600080fd5b81019080803573ffffffffffffffffffffffffffffffffffffffff16906020019092919080359060200190929190505050612176565b604051808573ffffffffffffffffffffffffffffffffffffffff1673ffffffffffffffffffffffffffffffffffffffff1681526020018473ffffffffffffffffffffffffffffffffffffffff1673ffffffffffffffffffffffffffffffffffffffff1681526020018060200180602001838103835285818151815260200191508051906020019080838360005b838110156105095780820151818401526020810190506104ee565b50505050905090810190601f1680156105365780820380516001836020036101000a031916815260200191505b50838103825284818151815260200191508051906020019080838360005b8381101561056f578082015181840152602081019050610554565b50505050905090810190601f16801561059c5780820380516001836020036101000a031916815260200191505b50965050505050505060405180910390f35b610671600480360360408110156105c457600080fd5b8101908080359060200190929190803590602001906401000000008111156105eb57600080fd5b8201836020820111156105fd57600080fd5b8035906020019184600183028401116401000000008311171561061f57600080fd5b91908080601f016020809104026020016040519081016040528093929190818152602001838380828437600081840152601f19601f820116905080830192505050505050509192919290505050612482565b005b6106b56004803603602081101561068957600080fd5b81019080803573ffffffffffffffffffffffffffffffffffffffff169060200190929190505050612b14565b6040518082815260200191505060405180910390f35b6106d3612e02565b604051808273ffffffffffffffffffffffffffffffffffffffff1673ffffffffffffffffffffffffffffffffffffffff16815260200191505060405180910390f35b61080e6004803603606081101561072b57600080fd5b81019080803573ffffffffffffffffffffffffffffffffffffffff169060200190929190803573ffffffffffffffffffffffffffffffffffffffff1690602001909291908035906020019064010000000081111561078857600080fd5b82018360208201111561079a57600080fd5b803590602001918460018302840111640100000000831117156107bc57600080fd5b91908080601f016020809104026020016040519081016040528093929190818152602001838380828437600081840152601f19601f820116905080830192505050505050509192919290505050612e27565b6040518082815260200191505060405180910390f35b6108506004803603602081101561083a57600080fd5b8101908080359060200190929190505050613d0e565b604051808573ffffffffffffffffffffffffffffffffffffffff1673ffffffffffffffffffffffffffffffffffffffff1681526020018473ffffffffffffffffffffffffffffffffffffffff1673ffffffffffffffffffffffffffffffffffffffff1681526020018060200180602001838103835285818151815260200191508051906020019080838360005b838110156108f85780820151818401526020810190506108dd565b50505050905090810190601f1680156109255780820380516001836020036101000a031916815260200191505b50838103825284818151815260200191508051906020019080838360005b8381101561095e578082015181840152602081019050610943565b50505050905090810190601f16801561098b5780820380516001836020036101000a031916815260200191505b50965050505050505060405180910390f35b610a60600480360360408110156109b357600080fd5b8101908080359060200190929190803590602001906401000000008111156109da57600080fd5b8201836020820111156109ec57600080fd5b80359060200191846001830284011164010000000083111715610a0e57600080fd5b91908080601f016020809104026020016040519081016040528093929190818152602001838380828437600081840152601f19601f8201169050808301925050505050505091929192905050506144af565b005b610bbc60048036036060811015610a7857600080fd5b810190808035906020019092919080359060200190640100000000811115610a9f57600080fd5b820183602082011115610ab157600080fd5b80359060200191846001830284011164010000000083111715610ad357600080fd5b91908080601f016020809104026020016040519081016040528093929190818152602001838380828437600081840152601f19601f82011690508083019250505050505050919291929080359060200190640100000000811115610b3657600080fd5b820183602082011115610b4857600080fd5b80359060200191846001830284011164010000000083111715610b6a57600080fd5b91908080601f016020809104026020016040519081016040528093929190818152602001838380828437600081840152601f19601f820116905080830192505050505050509192919290505050614a4a565b005b3373ffffffffffffffffffffffffffffffffffffffff166000809054906101000a900473ffffffffffffffffffffffffffffffffffffffff1673ffffffffffffffffffffffffffffffffffffffff166321f8a72160405160200180807f636f6e74726163742e6164647265737300000000000000000000000000000000815250601001807f446567656e6963730000000000000000000000000000000000000000000000008152506008019050604051602081830303815290604052805190602001206040518263ffffffff1660e01b81526004018082815260200191505060206040518083038186803b158015610cb557600080fd5b505afa158015610cc9573d6000803e3d6000fd5b505050506040513d6020811015610cdf57600080fd5b810190808051906020019092919050505073ffffffffffffffffffffffffffffffffffffffff1614610d79576040517f08c379a00000000000000000000000000000000000000000000000000000000081526004018080602001828103825260178152602001807f4f6e6c792072656769737472656420636f6e747261637400000000000000000081525060200191505060405180910390fd5b81610db96040518060400160405280600381526020017f6c61620000000000000000000000000000000000000000000000000000000000815250326151c2565b610e2b576040517f08c379a00000000000000000000000000000000000000000000000000000000081526004018080602001828103825260088152602001807f4f6e6c79206c616200000000000000000000000000000000000000000000000081525060200191505060405180910390fd5b3273ffffffffffffffffffffffffffffffffffffffff166000809054906101000a900473ffffffffffffffffffffffffffffffffffffffff1673ffffffffffffffffffffffffffffffffffffffff166321f8a7218360405160200180807f53706563696d656e2e6c61620000000000000000000000000000000000000000815250600c01828152602001915050604051602081830303815290604052805190602001206040518263ffffffff1660e01b81526004018082815260200191505060206040518083038186803b158015610f0257600080fd5b505afa158015610f16573d6000803e3d6000fd5b505050506040513d6020811015610f2c57600080fd5b810190808051906020019092919050505073ffffffffffffffffffffffffffffffffffffffff1614610fc6576040517f08c379a00000000000000000000000000000000000000000000000000000000081526004018080602001828103825260088152602001807f4f6e6c79204c616200000000000000000000000000000000000000000000000081525060200191505060405180910390fd5b61100d610fd284615349565b6040518060400160405280600881526020017f526563656976656400000000000000000000000000000000000000000000000081525061550b565b61107f576040517f08c379a00000000000000000000000000000000000000000000000000000000081526004018080602001828103825260168152602001807f4f6e6c792052656365697665642073706563696d656e0000000000000000000081525060200191505060405180910390fd5b600160009054906101000a900473ffffffffffffffffffffffffffffffffffffffff1673ffffffffffffffffffffffffffffffffffffffff166372b01cc084846040518363ffffffff1660e01b8152600401808381526020018060200180602001838103835260048152602001807f6661696c00000000000000000000000000000000000000000000000000000000815250602001838103825284818151815260200191508051906020019080838360005b8381101561114c578082015181840152602081019050611131565b50505050905090810190601f1680156111795780820380516001836020036101000a031916815260200191505b50945050505050600060405180830381600087803b15801561119a57600080fd5b505af11580156111ae573d6000803e3d6000fd5b50505050505050565b6000806060803373ffffffffffffffffffffffffffffffffffffffff166000809054906101000a900473ffffffffffffffffffffffffffffffffffffffff1673ffffffffffffffffffffffffffffffffffffffff166321f8a72160405160200180807f636f6e74726163742e6164647265737300000000000000000000000000000000815250601001807f446567656e6963730000000000000000000000000000000000000000000000008152506008019050604051602081830303815290604052805190602001206040518263ffffffff1660e01b81526004018082815260200191505060206040518083038186803b1580156112b457600080fd5b505afa1580156112c8573d6000803e3d6000fd5b505050506040513d60208110156112de57600080fd5b810190808051906020019092919050505073ffffffffffffffffffffffffffffffffffffffff1614611378576040517f08c379a00000000000000000000000000000000000000000000000000000000081526004018080602001828103825260178152602001807f4f6e6c792072656769737472656420636f6e747261637400000000000000000081525060200191505060405180910390fd5b600160009054906101000a900473ffffffffffffffffffffffffffffffffffffffff1673ffffffffffffffffffffffffffffffffffffffff16631080c14887876040518363ffffffff1660e01b81526004018083815260200182815260200192505050600060405180830381600087803b1580156113f557600080fd5b505af1158015611409573d6000803e3d6000fd5b505050506040513d6000823e3d601f19601f82011682018060405250608081101561143357600080fd5b8101908080519060200190929190805190602001909291908051604051939291908464010000000082111561146757600080fd5b8382019150602082018581111561147d57600080fd5b825186600182028301116401000000008211171561149a57600080fd5b8083526020830192505050908051906020019080838360005b838110156114ce5780820151818401526020810190506114b3565b50505050905090810190601f1680156114fb5780820380516001836020036101000a031916815260200191505b506040526020018051604051939291908464010000000082111561151e57600080fd5b8382019150602082018581111561153457600080fd5b825186600182028301116401000000008211171561155157600080fd5b8083526020830192505050908051906020019080838360005b8381101561158557808201518184015260208101905061156a565b50505050905090810190601f1680156115b25780820380516001836020036101000a031916815260200191505b50604052505050935093509350935092959194509250565b3373ffffffffffffffffffffffffffffffffffffffff166000809054906101000a900473ffffffffffffffffffffffffffffffffffffffff1673ffffffffffffffffffffffffffffffffffffffff166321f8a72160405160200180807f636f6e74726163742e6164647265737300000000000000000000000000000000815250601001807f446567656e6963730000000000000000000000000000000000000000000000008152506008019050604051602081830303815290604052805190602001206040518263ffffffff1660e01b81526004018082815260200191505060206040518083038186803b1580156116c157600080fd5b505afa1580156116d5573d6000803e3d6000fd5b505050506040513d60208110156116eb57600080fd5b810190808051906020019092919050505073ffffffffffffffffffffffffffffffffffffffff1614611785576040517f08c379a00000000000000000000000000000000000000000000000000000000081526004018080602001828103825260178152602001807f4f6e6c792072656769737472656420636f6e747261637400000000000000000081525060200191505060405180910390fd5b816117c56040518060400160405280600381526020017f6c61620000000000000000000000000000000000000000000000000000000000815250326151c2565b611837576040517f08c379a00000000000000000000000000000000000000000000000000000000081526004018080602001828103825260088152602001807f4f6e6c79206c616200000000000000000000000000000000000000000000000081525060200191505060405180910390fd5b3273ffffffffffffffffffffffffffffffffffffffff166000809054906101000a900473ffffffffffffffffffffffffffffffffffffffff1673ffffffffffffffffffffffffffffffffffffffff166321f8a7218360405160200180807f53706563696d656e2e6c61620000000000000000000000000000000000000000815250600c01828152602001915050604051602081830303815290604052805190602001206040518263ffffffff1660e01b81526004018082815260200191505060206040518083038186803b15801561190e57600080fd5b505afa158015611922573d6000803e3d6000fd5b505050506040513d602081101561193857600080fd5b810190808051906020019092919050505073ffffffffffffffffffffffffffffffffffffffff16146119d2576040517f08c379a00000000000000000000000000000000000000000000000000000000081526004018080602001828103825260088152602001807f4f6e6c79204c616200000000000000000000000000000000000000000000000081525060200191505060405180910390fd5b611a11836040518060400160405280600781526020017f53656e64696e670000000000000000000000000000000000000000000000000081525061560d565b80611a735750611a56836040518060400160405280600381526020017f4e6577000000000000000000000000000000000000000000000000000000000081525061560d565b8015611a725750611a668361565e565b611a6f84615a96565b10155b5b611ae5576040517f08c379a00000000000000000000000000000000000000000000000000000000081526004018080602001828103825260158152602001807f4f6e6c792073656e64696e672073706563696d656e000000000000000000000081525060200191505060405180910390fd5b611b24836040518060400160405280600681526020017f52656a6563740000000000000000000000000000000000000000000000000000815250615bb6565b600160009054906101000a900473ffffffffffffffffffffffffffffffffffffffff1673ffffffffffffffffffffffffffffffffffffffff166372b01cc084846040518363ffffffff1660e01b8152600401808381526020018060200180602001838103835260068152602001807f72656a6563740000000000000000000000000000000000000000000000000000815250602001838103825284818151815260200191508051906020019080838360005b83811015611bf1578082015181840152602081019050611bd6565b50505050905090810190601f168015611c1e5780820380516001836020036101000a031916815260200191505b50945050505050600060405180830381600087803b158015611c3f57600080fd5b505af1158015611c53573d6000803e3d6000fd5b50505050505050565b60603373ffffffffffffffffffffffffffffffffffffffff166000809054906101000a900473ffffffffffffffffffffffffffffffffffffffff1673ffffffffffffffffffffffffffffffffffffffff166321f8a72160405160200180807f636f6e74726163742e6164647265737300000000000000000000000000000000815250601001807f446567656e6963730000000000000000000000000000000000000000000000008152506008019050604051602081830303815290604052805190602001206040518263ffffffff1660e01b81526004018082815260200191505060206040518083038186803b158015611d5557600080fd5b505afa158015611d69573d6000803e3d6000fd5b505050506040513d6020811015611d7f57600080fd5b810190808051906020019092919050505073ffffffffffffffffffffffffffffffffffffffff1614611e19576040517f08c379a00000000000000000000000000000000000000000000000000000000081526004018080602001828103825260178152602001807f4f6e6c792072656769737472656420636f6e747261637400000000000000000081525060200191505060405180910390fd5b813273ffffffffffffffffffffffffffffffffffffffff166000809054906101000a900473ffffffffffffffffffffffffffffffffffffffff1673ffffffffffffffffffffffffffffffffffffffff166321f8a7218360405160200180807f53706563696d656e2e6f776e6572000000000000000000000000000000000000815250600e01828152602001915050604051602081830303815290604052805190602001206040518263ffffffff1660e01b81526004018082815260200191505060206040518083038186803b158015611ef157600080fd5b505afa158015611f05573d6000803e3d6000fd5b505050506040513d6020811015611f1b57600080fd5b810190808051906020019092919050505073ffffffffffffffffffffffffffffffffffffffff1614611fb5576040517f08c379a00000000000000000000000000000000000000000000000000000000081526004018080602001828103825260138152602001807f4f6e6c79204f776e65722073706563696d656e0000000000000000000000000081525060200191505060405180910390fd5b6000809054906101000a900473ffffffffffffffffffffffffffffffffffffffff1673ffffffffffffffffffffffffffffffffffffffff1663986e791a8460405160200180807f53706563696d656e2e66696c6500000000000000000000000000000000000000815250600d01828152602001915050604051602081830303815290604052805190602001206040518263ffffffff1660e01b81526004018082815260200191505060006040518083038186803b15801561207557600080fd5b505afa158015612089573d6000803e3d6000fd5b505050506040513d6000823e3d601f19601f8201168201806040525060208110156120b357600080fd5b81019080805160405193929190846401000000008211156120d357600080fd5b838201915060208201858111156120e957600080fd5b825186600182028301116401000000008211171561210657600080fd5b8083526020830192505050908051906020019080838360005b8381101561213a57808201518184015260208101905061211f565b50505050905090810190601f1680156121675780820380516001836020036101000a031916815260200191505b50604052505050915050919050565b6000806060803373ffffffffffffffffffffffffffffffffffffffff166000809054906101000a900473ffffffffffffffffffffffffffffffffffffffff1673ffffffffffffffffffffffffffffffffffffffff166321f8a72160405160200180807f636f6e74726163742e6164647265737300000000000000000000000000000000815250601001807f446567656e6963730000000000000000000000000000000000000000000000008152506008019050604051602081830303815290604052805190602001206040518263ffffffff1660e01b81526004018082815260200191505060206040518083038186803b15801561227357600080fd5b505afa158015612287573d6000803e3d6000fd5b505050506040513d602081101561229d57600080fd5b810190808051906020019092919050505073ffffffffffffffffffffffffffffffffffffffff1614612337576040517f08c379a00000000000000000000000000000000000000000000000000000000081526004018080602001828103825260178152602001807f4f6e6c792072656769737472656420636f6e747261637400000000000000000081525060200191505060405180910390fd5b6124716000809054906101000a900473ffffffffffffffffffffffffffffffffffffffff1673ffffffffffffffffffffffffffffffffffffffff1663a6ed563e888860405160200180807f53706563696d656e0000000000000000000000000000000000000000000000008152506008018373ffffffffffffffffffffffffffffffffffffffff1673ffffffffffffffffffffffffffffffffffffffff1660601b815260140182815260200192505050604051602081830303815290604052805190602001206040518263ffffffff1660e01b81526004018082815260200191505060206040518083038186803b15801561243157600080fd5b505afa158015612445573d6000803e3d6000fd5b505050506040513d602081101561245b57600080fd5b8101908080519060200190929190505050613d0e565b935093509350935092959194509250565b3373ffffffffffffffffffffffffffffffffffffffff166000809054906101000a900473ffffffffffffffffffffffffffffffffffffffff1673ffffffffffffffffffffffffffffffffffffffff166321f8a72160405160200180807f636f6e74726163742e6164647265737300000000000000000000000000000000815250601001807f446567656e6963730000000000000000000000000000000000000000000000008152506008019050604051602081830303815290604052805190602001206040518263ffffffff1660e01b81526004018082815260200191505060206040518083038186803b15801561257957600080fd5b505afa15801561258d573d6000803e3d6000fd5b505050506040513d60208110156125a357600080fd5b810190808051906020019092919050505073ffffffffffffffffffffffffffffffffffffffff161461263d576040517f08c379a00000000000000000000000000000000000000000000000000000000081526004018080602001828103825260178152602001807f4f6e6c792072656769737472656420636f6e747261637400000000000000000081525060200191505060405180910390fd5b8161267d6040518060400160405280600381526020017f6c61620000000000000000000000000000000000000000000000000000000000815250326151c2565b6126ef576040517f08c379a00000000000000000000000000000000000000000000000000000000081526004018080602001828103825260088152602001807f4f6e6c79206c616200000000000000000000000000000000000000000000000081525060200191505060405180910390fd5b3273ffffffffffffffffffffffffffffffffffffffff166000809054906101000a900473ffffffffffffffffffffffffffffffffffffffff1673ffffffffffffffffffffffffffffffffffffffff166321f8a7218360405160200180807f53706563696d656e2e6c61620000000000000000000000000000000000000000815250600c01828152602001915050604051602081830303815290604052805190602001206040518263ffffffff1660e01b81526004018082815260200191505060206040518083038186803b1580156127c657600080fd5b505afa1580156127da573d6000803e3d6000fd5b505050506040513d60208110156127f057600080fd5b810190808051906020019092919050505073ffffffffffffffffffffffffffffffffffffffff161461288a576040517f08c379a00000000000000000000000000000000000000000000000000000000081526004018080602001828103825260088152602001807f4f6e6c79204c616200000000000000000000000000000000000000000000000081525060200191505060405180910390fd5b6128c9836040518060400160405280600781526020017f53656e64696e670000000000000000000000000000000000000000000000000081525061560d565b8061292b575061290e836040518060400160405280600381526020017f4e6577000000000000000000000000000000000000000000000000000000000081525061560d565b801561292a575061291e8361565e565b61292784615a96565b10155b5b61299d576040517f08c379a00000000000000000000000000000000000000000000000000000000081526004018080602001828103825260158152602001807f4f6e6c792073656e64696e672073706563696d656e000000000000000000000081525060200191505060405180910390fd5b6129dc836040518060400160405280600881526020017f5265636569766564000000000000000000000000000000000000000000000000815250615bb6565b600160009054906101000a900473ffffffffffffffffffffffffffffffffffffffff1673ffffffffffffffffffffffffffffffffffffffff166372b01cc084846040518363ffffffff1660e01b8152600401808381526020018060200180602001838103835260078152602001807f7265636569766500000000000000000000000000000000000000000000000000815250602001838103825284818151815260200191508051906020019080838360005b83811015612aa9578082015181840152602081019050612a8e565b50505050905090810190601f168015612ad65780820380516001836020036101000a031916815260200191505b50945050505050600060405180830381600087803b158015612af757600080fd5b505af1158015612b0b573d6000803e3d6000fd5b50505050505050565b60003373ffffffffffffffffffffffffffffffffffffffff166000809054906101000a900473ffffffffffffffffffffffffffffffffffffffff1673ffffffffffffffffffffffffffffffffffffffff166321f8a72160405160200180807f636f6e74726163742e6164647265737300000000000000000000000000000000815250601001807f446567656e6963730000000000000000000000000000000000000000000000008152506008019050604051602081830303815290604052805190602001206040518263ffffffff1660e01b81526004018082815260200191505060206040518083038186803b158015612c0d57600080fd5b505afa158015612c21573d6000803e3d6000fd5b505050506040513d6020811015612c3757600080fd5b810190808051906020019092919050505073ffffffffffffffffffffffffffffffffffffffff1614612cd1576040517f08c379a00000000000000000000000000000000000000000000000000000000081526004018080602001828103825260178152602001807f4f6e6c792072656769737472656420636f6e747261637400000000000000000081525060200191505060405180910390fd5b6000809054906101000a900473ffffffffffffffffffffffffffffffffffffffff1673ffffffffffffffffffffffffffffffffffffffff1663bd02d0f58360405160200180807f53706563696d656e2e636f756e74000000000000000000000000000000000000815250600e018273ffffffffffffffffffffffffffffffffffffffff1673ffffffffffffffffffffffffffffffffffffffff1660601b8152601401915050604051602081830303815290604052805190602001206040518263ffffffff1660e01b81526004018082815260200191505060206040518083038186803b158015612dc057600080fd5b505afa158015612dd4573d6000803e3d6000fd5b505050506040513d6020811015612dea57600080fd5b81019080805190602001909291905050509050919050565b6000809054906101000a900473ffffffffffffffffffffffffffffffffffffffff1681565b60003373ffffffffffffffffffffffffffffffffffffffff166000809054906101000a900473ffffffffffffffffffffffffffffffffffffffff1673ffffffffffffffffffffffffffffffffffffffff166321f8a72160405160200180807f636f6e74726163742e6164647265737300000000000000000000000000000000815250601001807f446567656e6963730000000000000000000000000000000000000000000000008152506008019050604051602081830303815290604052805190602001206040518263ffffffff1660e01b81526004018082815260200191505060206040518083038186803b158015612f2057600080fd5b505afa158015612f34573d6000803e3d6000fd5b505050506040513d6020811015612f4a57600080fd5b810190808051906020019092919050505073ffffffffffffffffffffffffffffffffffffffff1614612fe4576040517f08c379a00000000000000000000000000000000000000000000000000000000081526004018080602001828103825260178152602001807f4f6e6c792072656769737472656420636f6e747261637400000000000000000081525060200191505060405180910390fd5b60008484844260405160200180807f53706563696d656e0000000000000000000000000000000000000000000000008152506008018573ffffffffffffffffffffffffffffffffffffffff1673ffffffffffffffffffffffffffffffffffffffff1660601b81526014018473ffffffffffffffffffffffffffffffffffffffff1673ffffffffffffffffffffffffffffffffffffffff1660601b815260140183805190602001908083835b602083106130b2578051825260208201915060208101905060208303925061308f565b6001836020036101000a0380198251168184511680821785525050505050509050018281526020019450505050506040516020818303038152906040528051906020012090506000809054906101000a900473ffffffffffffffffffffffffffffffffffffffff1673ffffffffffffffffffffffffffffffffffffffff1663e2a4853a8260405160200180807f53706563696d656e2e726567697374657265640000000000000000000000000081525060130182815260200191505060405160208183030381529060405280519060200120426040518363ffffffff1660e01b81526004018083815260200182815260200192505050600060405180830381600087803b1580156131c257600080fd5b505af11580156131d6573d6000803e3d6000fd5b505050506000809054906101000a900473ffffffffffffffffffffffffffffffffffffffff1673ffffffffffffffffffffffffffffffffffffffff1663ca446dd98260405160200180807f53706563696d656e2e6f776e6572000000000000000000000000000000000000815250600e0182815260200191505060405160208183030381529060405280519060200120876040518363ffffffff1660e01b8152600401808381526020018273ffffffffffffffffffffffffffffffffffffffff1673ffffffffffffffffffffffffffffffffffffffff16815260200192505050600060405180830381600087803b1580156132d057600080fd5b505af11580156132e4573d6000803e3d6000fd5b505050506000809054906101000a900473ffffffffffffffffffffffffffffffffffffffff1673ffffffffffffffffffffffffffffffffffffffff1663ca446dd98260405160200180807f53706563696d656e2e6c61620000000000000000000000000000000000000000815250600c0182815260200191505060405160208183030381529060405280519060200120866040518363ffffffff1660e01b8152600401808381526020018273ffffffffffffffffffffffffffffffffffffffff1673ffffffffffffffffffffffffffffffffffffffff16815260200192505050600060405180830381600087803b1580156133de57600080fd5b505af11580156133f2573d6000803e3d6000fd5b505050506000809054906101000a900473ffffffffffffffffffffffffffffffffffffffff1673ffffffffffffffffffffffffffffffffffffffff16636e8995508260405160200180807f53706563696d656e2e73657276696365436f646500000000000000000000000081525060140182815260200191505060405160208183030381529060405280519060200120856040518363ffffffff1660e01b81526004018083815260200180602001828103825283818151815260200191508051906020019080838360005b838110156134d85780820151818401526020810190506134bd565b50505050905090810190601f1680156135055780820380516001836020036101000a031916815260200191505b509350505050600060405180830381600087803b15801561352557600080fd5b505af1158015613539573d6000803e3d6000fd5b505050506000809054906101000a900473ffffffffffffffffffffffffffffffffffffffff1673ffffffffffffffffffffffffffffffffffffffff16636e8995508260405160200180807f53706563696d656e2e7374617475730000000000000000000000000000000000815250600f01828152602001915050604051602081830303815290604052805190602001206040518263ffffffff1660e01b81526004018082815260200180602001828103825260038152602001807f4e6577000000000000000000000000000000000000000000000000000000000081525060200192505050600060405180830381600087803b15801561363857600080fd5b505af115801561364c573d6000803e3d6000fd5b5050505060008060009054906101000a900473ffffffffffffffffffffffffffffffffffffffff1673ffffffffffffffffffffffffffffffffffffffff1663adb353dc8760405160200180807f53706563696d656e2e636f756e74000000000000000000000000000000000000815250600e018273ffffffffffffffffffffffffffffffffffffffff1673ffffffffffffffffffffffffffffffffffffffff1660601b81526014019150506040516020818303038152906040528051906020012060016040518363ffffffff1660e01b81526004018083815260200182815260200192505050602060405180830381600087803b15801561374c57600080fd5b505af1158015613760573d6000803e3d6000fd5b505050506040513d602081101561377657600080fd5b810190808051906020019092919050505090506000809054906101000a900473ffffffffffffffffffffffffffffffffffffffff1673ffffffffffffffffffffffffffffffffffffffff16634e91db08878360405160200180807f53706563696d656e0000000000000000000000000000000000000000000000008152506008018373ffffffffffffffffffffffffffffffffffffffff1673ffffffffffffffffffffffffffffffffffffffff1660601b81526014018281526020019250505060405160208183030381529060405280519060200120846040518363ffffffff1660e01b81526004018083815260200182815260200192505050600060405180830381600087803b15801561388a57600080fd5b505af115801561389e573d6000803e3d6000fd5b505050506000809054906101000a900473ffffffffffffffffffffffffffffffffffffffff1673ffffffffffffffffffffffffffffffffffffffff1663adb353dc8660405160200180807f53706563696d656e2e636f756e74000000000000000000000000000000000000815250600e018273ffffffffffffffffffffffffffffffffffffffff1673ffffffffffffffffffffffffffffffffffffffff1660601b81526014019150506040516020818303038152906040528051906020012060016040518363ffffffff1660e01b81526004018083815260200182815260200192505050602060405180830381600087803b15801561399c57600080fd5b505af11580156139b0573d6000803e3d6000fd5b505050506040513d60208110156139c657600080fd5b810190808051906020019092919050505090506000809054906101000a900473ffffffffffffffffffffffffffffffffffffffff1673ffffffffffffffffffffffffffffffffffffffff16634e91db08868360405160200180807f53706563696d656e0000000000000000000000000000000000000000000000008152506008018373ffffffffffffffffffffffffffffffffffffffff1673ffffffffffffffffffffffffffffffffffffffff1660601b81526014018281526020019250505060405160208183030381529060405280519060200120846040518363ffffffff1660e01b81526004018083815260200182815260200192505050600060405180830381600087803b158015613ada57600080fd5b505af1158015613aee573d6000803e3d6000fd5b505050506000809054906101000a900473ffffffffffffffffffffffffffffffffffffffff1673ffffffffffffffffffffffffffffffffffffffff16634e91db088760405160200180807f53706563696d656e2e6c6173744e756d626572000000000000000000000000008152506013018273ffffffffffffffffffffffffffffffffffffffff1673ffffffffffffffffffffffffffffffffffffffff1660601b815260140191505060405160208183030381529060405280519060200120846040518363ffffffff1660e01b81526004018083815260200182815260200192505050600060405180830381600087803b158015613beb57600080fd5b505af1158015613bff573d6000803e3d6000fd5b50505050600160009054906101000a900473ffffffffffffffffffffffffffffffffffffffff1673ffffffffffffffffffffffffffffffffffffffff166372b01cc0836040518263ffffffff1660e01b8152600401808281526020018060200180602001838103835260078152602001807f6372656174656400000000000000000000000000000000000000000000000000815250602001838103825260018152602001807f2d000000000000000000000000000000000000000000000000000000000000008152506020019350505050600060405180830381600087803b158015613cea57600080fd5b505af1158015613cfe573d6000803e3d6000fd5b5050505081925050509392505050565b6000806060803373ffffffffffffffffffffffffffffffffffffffff166000809054906101000a900473ffffffffffffffffffffffffffffffffffffffff1673ffffffffffffffffffffffffffffffffffffffff166321f8a72160405160200180807f636f6e74726163742e6164647265737300000000000000000000000000000000815250601001807f446567656e6963730000000000000000000000000000000000000000000000008152506008019050604051602081830303815290604052805190602001206040518263ffffffff1660e01b81526004018082815260200191505060206040518083038186803b158015613e0b57600080fd5b505afa158015613e1f573d6000803e3d6000fd5b505050506040513d6020811015613e3557600080fd5b810190808051906020019092919050505073ffffffffffffffffffffffffffffffffffffffff1614613ecf576040517f08c379a00000000000000000000000000000000000000000000000000000000081526004018080602001828103825260178152602001807f4f6e6c792072656769737472656420636f6e747261637400000000000000000081525060200191505060405180910390fd5b6000809054906101000a900473ffffffffffffffffffffffffffffffffffffffff1673ffffffffffffffffffffffffffffffffffffffff166321f8a7218660405160200180807f53706563696d656e2e6f776e6572000000000000000000000000000000000000815250600e01828152602001915050604051602081830303815290604052805190602001206040518263ffffffff1660e01b81526004018082815260200191505060206040518083038186803b158015613f8f57600080fd5b505afa158015613fa3573d6000803e3d6000fd5b505050506040513d6020811015613fb957600080fd5b810190808051906020019092919050505093506000809054906101000a900473ffffffffffffffffffffffffffffffffffffffff1673ffffffffffffffffffffffffffffffffffffffff166321f8a7218660405160200180807f53706563696d656e2e6c61620000000000000000000000000000000000000000815250600c01828152602001915050604051602081830303815290604052805190602001206040518263ffffffff1660e01b81526004018082815260200191505060206040518083038186803b15801561408c57600080fd5b505afa1580156140a0573d6000803e3d6000fd5b505050506040513d60208110156140b657600080fd5b810190808051906020019092919050505092506000809054906101000a900473ffffffffffffffffffffffffffffffffffffffff1673ffffffffffffffffffffffffffffffffffffffff1663986e791a8660405160200180807f53706563696d656e2e73657276696365436f6465000000000000000000000000815250601401828152602001915050604051602081830303815290604052805190602001206040518263ffffffff1660e01b81526004018082815260200191505060006040518083038186803b15801561418957600080fd5b505afa15801561419d573d6000803e3d6000fd5b505050506040513d6000823e3d601f19601f8201168201806040525060208110156141c757600080fd5b81019080805160405193929190846401000000008211156141e757600080fd5b838201915060208201858111156141fd57600080fd5b825186600182028301116401000000008211171561421a57600080fd5b8083526020830192505050908051906020019080838360005b8381101561424e578082015181840152602081019050614233565b50505050905090810190601f16801561427b5780820380516001836020036101000a031916815260200191505b50604052505050915061428d85615349565b90506142ce816040518060400160405280600381526020017f4e6577000000000000000000000000000000000000000000000000000000000081525061550b565b801561445e57506000809054906101000a900473ffffffffffffffffffffffffffffffffffffffff1673ffffffffffffffffffffffffffffffffffffffff1663bd02d0f5848460405160200180807f6c61622e736572766963652e70726963650000000000000000000000000000008152506011018373ffffffffffffffffffffffffffffffffffffffff1673ffffffffffffffffffffffffffffffffffffffff1660601b815260140182805190602001908083835b602083106143a75780518252602082019150602081019050602083039250614384565b6001836020036101000a03801982511681845116808217855250505050505090500192505050604051602081830303815290604052805190602001206040518263ffffffff1660e01b81526004018082815260200191505060206040518083038186803b15801561441757600080fd5b505afa15801561442b573d6000803e3d6000fd5b505050506040513d602081101561444157600080fd5b810190808051906020019092919050505061445b86615a96565b10155b1561449c576040518060400160405280600481526020017f506169640000000000000000000000000000000000000000000000000000000081525090505b8383838393509350935093509193509193565b3373ffffffffffffffffffffffffffffffffffffffff166000809054906101000a900473ffffffffffffffffffffffffffffffffffffffff1673ffffffffffffffffffffffffffffffffffffffff166321f8a72160405160200180807f636f6e74726163742e6164647265737300000000000000000000000000000000815250601001807f446567656e6963730000000000000000000000000000000000000000000000008152506008019050604051602081830303815290604052805190602001206040518263ffffffff1660e01b81526004018082815260200191505060206040518083038186803b1580156145a657600080fd5b505afa1580156145ba573d6000803e3d6000fd5b505050506040513d60208110156145d057600080fd5b810190808051906020019092919050505073ffffffffffffffffffffffffffffffffffffffff161461466a576040517f08c379a00000000000000000000000000000000000000000000000000000000081526004018080602001828103825260178152602001807f4f6e6c792072656769737472656420636f6e747261637400000000000000000081525060200191505060405180910390fd5b813273ffffffffffffffffffffffffffffffffffffffff166000809054906101000a900473ffffffffffffffffffffffffffffffffffffffff1673ffffffffffffffffffffffffffffffffffffffff166321f8a7218360405160200180807f53706563696d656e2e6f776e6572000000000000000000000000000000000000815250600e01828152602001915050604051602081830303815290604052805190602001206040518263ffffffff1660e01b81526004018082815260200191505060206040518083038186803b15801561474257600080fd5b505afa158015614756573d6000803e3d6000fd5b505050506040513d602081101561476c57600080fd5b810190808051906020019092919050505073ffffffffffffffffffffffffffffffffffffffff1614614806576040517f08c379a00000000000000000000000000000000000000000000000000000000081526004018080602001828103825260138152602001807f4f6e6c79204f776e65722073706563696d656e0000000000000000000000000081525060200191505060405180910390fd5b614845836040518060400160405280600381526020017f4e6577000000000000000000000000000000000000000000000000000000000081525061560d565b801561486157506148558361565e565b61485e84615a96565b10155b6148d3576040517f08c379a000000000000000000000000000000000000000000000000000000000815260040180806020018281038252600e8152602001807f4f6e6c792070616964207465737400000000000000000000000000000000000081525060200191505060405180910390fd5b614912836040518060400160405280600781526020017f53656e64696e6700000000000000000000000000000000000000000000000000815250615bb6565b600160009054906101000a900473ffffffffffffffffffffffffffffffffffffffff1673ffffffffffffffffffffffffffffffffffffffff166372b01cc084846040518363ffffffff1660e01b8152600401808381526020018060200180602001838103835260048152602001807f73656e6400000000000000000000000000000000000000000000000000000000815250602001838103825284818151815260200191508051906020019080838360005b838110156149df5780820151818401526020810190506149c4565b50505050905090810190601f168015614a0c5780820380516001836020036101000a031916815260200191505b50945050505050600060405180830381600087803b158015614a2d57600080fd5b505af1158015614a41573d6000803e3d6000fd5b50505050505050565b3373ffffffffffffffffffffffffffffffffffffffff166000809054906101000a900473ffffffffffffffffffffffffffffffffffffffff1673ffffffffffffffffffffffffffffffffffffffff166321f8a72160405160200180807f636f6e74726163742e6164647265737300000000000000000000000000000000815250601001807f446567656e6963730000000000000000000000000000000000000000000000008152506008019050604051602081830303815290604052805190602001206040518263ffffffff1660e01b81526004018082815260200191505060206040518083038186803b158015614b4157600080fd5b505afa158015614b55573d6000803e3d6000fd5b505050506040513d6020811015614b6b57600080fd5b810190808051906020019092919050505073ffffffffffffffffffffffffffffffffffffffff1614614c05576040517f08c379a00000000000000000000000000000000000000000000000000000000081526004018080602001828103825260178152602001807f4f6e6c792072656769737472656420636f6e747261637400000000000000000081525060200191505060405180910390fd5b82614c456040518060400160405280600381526020017f6c61620000000000000000000000000000000000000000000000000000000000815250326151c2565b614cb7576040517f08c379a00000000000000000000000000000000000000000000000000000000081526004018080602001828103825260088152602001807f4f6e6c79206c616200000000000000000000000000000000000000000000000081525060200191505060405180910390fd5b3273ffffffffffffffffffffffffffffffffffffffff166000809054906101000a900473ffffffffffffffffffffffffffffffffffffffff1673ffffffffffffffffffffffffffffffffffffffff166321f8a7218360405160200180807f53706563696d656e2e6c61620000000000000000000000000000000000000000815250600c01828152602001915050604051602081830303815290604052805190602001206040518263ffffffff1660e01b81526004018082815260200191505060206040518083038186803b158015614d8e57600080fd5b505afa158015614da2573d6000803e3d6000fd5b505050506040513d6020811015614db857600080fd5b810190808051906020019092919050505073ffffffffffffffffffffffffffffffffffffffff1614614e52576040517f08c379a00000000000000000000000000000000000000000000000000000000081526004018080602001828103825260088152602001807f4f6e6c79204c616200000000000000000000000000000000000000000000000081525060200191505060405180910390fd5b614e91846040518060400160405280600881526020017f526563656976656400000000000000000000000000000000000000000000000081525061560d565b614f03576040517f08c379a00000000000000000000000000000000000000000000000000000000081526004018080602001828103825260168152602001807f4f6e6c792052656365697665642073706563696d656e0000000000000000000081525060200191505060405180910390fd5b614f42846040518060400160405280600681526020017f5375636365730000000000000000000000000000000000000000000000000000815250615bb6565b600160009054906101000a900473ffffffffffffffffffffffffffffffffffffffff1673ffffffffffffffffffffffffffffffffffffffff166372b01cc085846040518363ffffffff1660e01b8152600401808381526020018060200180602001838103835260068152602001807f7375636365730000000000000000000000000000000000000000000000000000815250602001838103825284818151815260200191508051906020019080838360005b8381101561500f578082015181840152602081019050614ff4565b50505050905090810190601f16801561503c5780820380516001836020036101000a031916815260200191505b50945050505050600060405180830381600087803b15801561505d57600080fd5b505af1158015615071573d6000803e3d6000fd5b505050506000809054906101000a900473ffffffffffffffffffffffffffffffffffffffff1673ffffffffffffffffffffffffffffffffffffffff16636e8995508560405160200180807f53706563696d656e2e66696c6500000000000000000000000000000000000000815250600d0182815260200191505060405160208183030381529060405280519060200120856040518363ffffffff1660e01b81526004018083815260200180602001828103825283818151815260200191508051906020019080838360005b8381101561515757808201518184015260208101905061513c565b50505050905090810190601f1680156151845780820380516001836020036101000a031916815260200191505b509350505050600060405180830381600087803b1580156151a457600080fd5b505af11580156151b8573d6000803e3d6000fd5b5050505050505050565b60008060009054906101000a900473ffffffffffffffffffffffffffffffffffffffff1673ffffffffffffffffffffffffffffffffffffffff16637ae1cfca848460405160200180807f6163636573732e726f6c65000000000000000000000000000000000000000000815250600b0183805190602001908083835b60208310615261578051825260208201915060208101905060208303925061523e565b6001836020036101000a0380198251168184511680821785525050505050509050018273ffffffffffffffffffffffffffffffffffffffff1673ffffffffffffffffffffffffffffffffffffffff1660601b815260140192505050604051602081830303815290604052805190602001206040518263ffffffff1660e01b81526004018082815260200191505060206040518083038186803b15801561530657600080fd5b505afa15801561531a573d6000803e3d6000fd5b505050506040513d602081101561533057600080fd5b8101908080519060200190929190505050905092915050565b60606000809054906101000a900473ffffffffffffffffffffffffffffffffffffffff1673ffffffffffffffffffffffffffffffffffffffff1663986e791a8360405160200180807f53706563696d656e2e7374617475730000000000000000000000000000000000815250600f01828152602001915050604051602081830303815290604052805190602001206040518263ffffffff1660e01b81526004018082815260200191505060006040518083038186803b15801561540b57600080fd5b505afa15801561541f573d6000803e3d6000fd5b505050506040513d6000823e3d601f19601f82011682018060405250602081101561544957600080fd5b810190808051604051939291908464010000000082111561546957600080fd5b8382019150602082018581111561547f57600080fd5b825186600182028301116401000000008211171561549c57600080fd5b8083526020830192505050908051906020019080838360005b838110156154d05780820151818401526020810190506154b5565b50505050905090810190601f1680156154fd5780820380516001836020036101000a031916815260200191505b506040525050509050919050565b6000815183511461551f5760009050615607565b816040516020018082805190602001908083835b602083106155565780518252602082019150602081019050602083039250615533565b6001836020036101000a03801982511681845116808217855250505050505090500191505060405160208183030381529060405280519060200120836040516020018082805190602001908083835b602083106155c857805182526020820191506020810190506020830392506155a5565b6001836020036101000a038019825116818451168082178552505050505050905001915050604051602081830303815290604052805190602001201490505b92915050565b600061565661561b84615349565b6040518060400160405280600781526020017f53656e64696e670000000000000000000000000000000000000000000000000081525061550b565b905092915050565b60008060009054906101000a900473ffffffffffffffffffffffffffffffffffffffff1673ffffffffffffffffffffffffffffffffffffffff1663bd02d0f56000809054906101000a900473ffffffffffffffffffffffffffffffffffffffff1673ffffffffffffffffffffffffffffffffffffffff166321f8a7218560405160200180807f53706563696d656e2e6c61620000000000000000000000000000000000000000815250600c01828152602001915050604051602081830303815290604052805190602001206040518263ffffffff1660e01b81526004018082815260200191505060206040518083038186803b15801561575d57600080fd5b505afa158015615771573d6000803e3d6000fd5b505050506040513d602081101561578757600080fd5b81019080805190602001909291905050506000809054906101000a900473ffffffffffffffffffffffffffffffffffffffff1673ffffffffffffffffffffffffffffffffffffffff1663986e791a8660405160200180807f53706563696d656e2e73657276696365436f6465000000000000000000000000815250601401828152602001915050604051602081830303815290604052805190602001206040518263ffffffff1660e01b81526004018082815260200191505060006040518083038186803b15801561585857600080fd5b505afa15801561586c573d6000803e3d6000fd5b505050506040513d6000823e3d601f19601f82011682018060405250602081101561589657600080fd5b81019080805160405193929190846401000000008211156158b657600080fd5b838201915060208201858111156158cc57600080fd5b82518660018202830111640100000000821117156158e957600080fd5b8083526020830192505050908051906020019080838360005b8381101561591d578082015181840152602081019050615902565b50505050905090810190601f16801561594a5780820380516001836020036101000a031916815260200191505b5060405250505060405160200180807f6c61622e736572766963652e70726963650000000000000000000000000000008152506011018373ffffffffffffffffffffffffffffffffffffffff1673ffffffffffffffffffffffffffffffffffffffff1660601b815260140182805190602001908083835b602083106159e457805182526020820191506020810190506020830392506159c1565b6001836020036101000a03801982511681845116808217855250505050505090500192505050604051602081830303815290604052805190602001206040518263ffffffff1660e01b81526004018082815260200191505060206040518083038186803b158015615a5457600080fd5b505afa158015615a68573d6000803e3d6000fd5b505050506040513d6020811015615a7e57600080fd5b81019080805190602001909291905050509050919050565b6000806000809054906101000a900473ffffffffffffffffffffffffffffffffffffffff1673ffffffffffffffffffffffffffffffffffffffff166321f8a7218460405160200180807f53706563696d656e2e657363726f770000000000000000000000000000000000815250600f01828152602001915050604051602081830303815290604052805190602001206040518263ffffffff1660e01b81526004018082815260200191505060206040518083038186803b158015615b5957600080fd5b505afa158015615b6d573d6000803e3d6000fd5b505050506040513d6020811015615b8357600080fd5b810190808051906020019092919050505090508073ffffffffffffffffffffffffffffffffffffffff1631915050919050565b6000809054906101000a900473ffffffffffffffffffffffffffffffffffffffff1673ffffffffffffffffffffffffffffffffffffffff16636e8995508360405160200180807f53706563696d656e2e7374617475730000000000000000000000000000000000815250600f0182815260200191505060405160208183030381529060405280519060200120836040518363ffffffff1660e01b81526004018083815260200180602001828103825283818151815260200191508051906020019080838360005b83811015615c98578082015181840152602081019050615c7d565b50505050905090810190601f168015615cc55780820380516001836020036101000a031916815260200191505b509350505050600060405180830381600087803b158015615ce557600080fd5b505af1158015615cf9573d6000803e3d6000fd5b50505050505056fea265627a7a72315820b5a15550257340f6c29581a06c01e4070d0408c2cb175708e6f8f5157fdfc27564736f6c63430005100032",
  "source": "pragma solidity ^0.5.16;\r\n\r\n\r\nimport \"./common/Base.sol\";\r\nimport \"./DegenicsLog.sol\";\r\n\r\ncontract Specimen is Base {\r\n\r\n    DegenicsLog degenicsLog;\r\n\r\n     modifier onlyDegenicsContract() {\r\n        require(eternalStorage.getAddress(keccak256(abi.encodePacked(\"contract.address\", \"Degenics\"))) == msg.sender, \"Only registred contract\" );\r\n        _;\r\n    }\r\n\r\n    modifier onlyLab(bytes32 number){\r\n        require(roleHas(\"lab\", tx.origin), \"Only lab\");\r\n        require(eternalStorage.getAddress(keccak256(abi.encodePacked( \"Specimen.lab\",number ))) == tx.origin, \"Only Lab\");\r\n        _;\r\n    }\r\n\r\n    modifier onlySpecimenOwner(bytes32 number){\r\n        require(eternalStorage.getAddress(keccak256(abi.encodePacked( \"Specimen.owner\",number ))) == tx.origin, \"Only Owner specimen\");\r\n        _;\r\n    }    \r\n    \r\n    constructor(address _storage, address _degenicsLog ) public Base(_storage) {\r\n        degenicsLog = DegenicsLog(_degenicsLog);\r\n    }   \r\n\r\n\r\n    function registerSpecimen(address ownerSpecimen, address labAccount, string memory serviceCode) public onlyDegenicsContract returns(bytes32){\r\n        bytes32 number = keccak256(abi.encodePacked(\"Specimen\", ownerSpecimen, labAccount, serviceCode, block.timestamp ));\r\n        eternalStorage.setUint(keccak256(abi.encodePacked( \"Specimen.registered\",number )),block.timestamp );\r\n        eternalStorage.setAddress(keccak256(abi.encodePacked( \"Specimen.owner\",number )),ownerSpecimen);\r\n        eternalStorage.setAddress(keccak256(abi.encodePacked( \"Specimen.lab\",number )),labAccount);\r\n        eternalStorage.setString(keccak256(abi.encodePacked( \"Specimen.serviceCode\",number )),serviceCode);\r\n        eternalStorage.setString(keccak256(abi.encodePacked( \"Specimen.status\",number )),\"New\");\r\n        \r\n        uint index = eternalStorage.addUint(keccak256(abi.encodePacked(\"Specimen.count\", ownerSpecimen)), 1);\r\n        eternalStorage.setBytes32(keccak256(abi.encodePacked(\"Specimen\",ownerSpecimen, index )), number);\r\n        index = eternalStorage.addUint(keccak256(abi.encodePacked(\"Specimen.count\",labAccount)), 1);\r\n        eternalStorage.setBytes32(keccak256(abi.encodePacked(\"Specimen\",labAccount, index )), number);\r\n\r\n        eternalStorage.setBytes32(keccak256(abi.encodePacked(\"Specimen.lastNumber\",ownerSpecimen)), number);\r\n        degenicsLog.addSpecimenLog(number, \"created\", \"-\");\r\n        return number;  \r\n    }\r\n\r\n    function specimenCount(address sender) public view onlyDegenicsContract returns(uint){\r\n        return eternalStorage.getUint(keccak256(abi.encodePacked(\"Specimen.count\",sender)));\r\n    }\r\n\r\n    function specimenByNumber(bytes32 number) public view onlyDegenicsContract returns(\r\n        address owner, address labAccount, string memory serviceCode, string memory status){        \r\n        owner = eternalStorage.getAddress(keccak256(abi.encodePacked( \"Specimen.owner\",number )));\r\n        labAccount = eternalStorage.getAddress(keccak256(abi.encodePacked( \"Specimen.lab\",number )));\r\n        serviceCode = eternalStorage.getString(keccak256(abi.encodePacked( \"Specimen.serviceCode\",number )));\r\n        status =getStatus(number); \r\n        if(compareString(status, \"New\") && \r\n            escrowBalance(number) >=  eternalStorage.getUint(keccak256(abi.encodePacked(\"lab.service.price\", labAccount, serviceCode))) ){\r\n            status = \"Paid\";\r\n        }\r\n        return(owner, labAccount, serviceCode, status);\r\n    }\r\n\r\n    function specimenByIndex(address sender, uint index) public view onlyDegenicsContract returns(\r\n        address owner, address labAccount, string memory serviceCode, string memory status){        \r\n        return specimenByNumber( eternalStorage.getBytes32(keccak256(abi.encodePacked(\"Specimen\",sender, index ))));\r\n    }\r\n\r\n    function escrowBalance(bytes32 number) internal view returns(uint){\r\n        address escrow = eternalStorage.getAddress(keccak256(abi.encodePacked(\"Specimen.escrow\", number)));\r\n        return escrow.balance;\r\n    }\r\n\r\n    function sendSpecimen(bytes32  number, string memory remark) public onlyDegenicsContract onlySpecimenOwner(number) {\r\n       require(checkStatus(number, \"New\") && \r\n            escrowBalance(number) >=  checkPrice(number), \"Only paid test\");  \r\n        setStatus(number, \"Sending\");\r\n        degenicsLog.addSpecimenLog(number, \"send\", remark);\r\n    }\r\n\r\n    function receiveSpecimen(bytes32  number, string memory remark) public onlyDegenicsContract onlyLab(number) {\r\n        require(checkStatus(number, \"Sending\") || (checkStatus(number, \"New\") &&   escrowBalance(number) >=  checkPrice(number)) , \"Only sending specimen\" );\r\n        setStatus(number, \"Received\");\r\n        degenicsLog.addSpecimenLog(number, \"receive\", remark);\r\n    }\r\n\r\n    function rejectSpecimen(bytes32  number, string memory remark) public onlyDegenicsContract onlyLab(number) {\r\n        require(checkStatus(number, \"Sending\") || (checkStatus(number, \"New\") &&   escrowBalance(number) >=  checkPrice(number)) , \"Only sending specimen\" );\r\n        setStatus(number, \"Reject\");\r\n        degenicsLog.addSpecimenLog(number, \"reject\", remark);\r\n    }\r\n\r\n    function analysisSucces(bytes32  number, string memory file, string memory remark) public onlyDegenicsContract onlyLab(number) {\r\n        require(checkStatus(number, \"Received\"), \"Only Received specimen\" );\r\n        setStatus(number, \"Succes\");\r\n        degenicsLog.addSpecimenLog(number, \"succes\", remark);\r\n        eternalStorage.setString(keccak256(abi.encodePacked( \"Specimen.file\",number)), file);\r\n    }\r\n\r\n    function analysisFail(bytes32  number, string memory remark) public onlyDegenicsContract onlyLab(number) {\r\n        require(compareString(getStatus(number), \"Received\"), \"Only Received specimen\" );\r\n        degenicsLog.addSpecimenLog(number, \"fail\", remark);\r\n    }\r\n\r\n    function checkPrice(bytes32  number) internal returns(uint){\r\n        return eternalStorage.getUint(keccak256(abi.encodePacked(\"lab.service.price\", \r\n            eternalStorage.getAddress(keccak256(abi.encodePacked( \"Specimen.lab\",number ))), \r\n            eternalStorage.getString(keccak256(abi.encodePacked( \"Specimen.serviceCode\",number )))\r\n        )));\r\n    }\r\n\r\n    function logByIndex(bytes32 number, uint _index)public onlyDegenicsContract returns(uint index, uint time, \r\n        string memory logType, string memory log){\r\n        return degenicsLog.specimenLogByIndex(number, _index);\r\n    }\r\n\r\n    function setStatus(bytes32 number, string memory status) internal {\r\n        eternalStorage.setString(keccak256(abi.encodePacked( \"Specimen.status\",number )), status);\r\n    }\r\n\r\n    function getStatus(bytes32 number) internal view returns(string memory){\r\n        return eternalStorage.getString(keccak256(abi.encodePacked( \"Specimen.status\",number )));       \r\n    }\r\n\r\n    function checkStatus(bytes32 number, string memory status) internal view returns(bool){\r\n        return compareString(getStatus(number), \"Sending\");\r\n    }\r\n\r\n    function getFile(bytes32 number) public view onlyDegenicsContract onlySpecimenOwner(number)  returns(string memory file){\r\n        return eternalStorage.getString(keccak256(abi.encodePacked( \"Specimen.file\",number)));\r\n    }\r\n    \r\n\r\n}",
  "sourcePath": "D:\\projects\\degenics\\degenics-smart-contract\\contracts\\Specimen.sol",
  "compiler": {
    "name": "solc",
    "version": "0.5.16+commit.9c3226ce.Emscripten.clang"
  },
  "schemaVersion": "3.0.23",
  "updatedAt": "2020-12-31T21:10:15.681Z",
  "networkType": "ethereum",
  "devdoc": {
    "methods": {}
  },
  "userdoc": {
    "methods": {}
  }
}